:020000040000FA
:0600000002011A0221EFCB
:03002B0002275851
:03003B000227C2D7
:0300430002272D64
:0300530002226224
:03006B00022780E9
:1000830002205BE5C754F84401F5C779012200005B
:100093000080FB120086B90003020104E4791B7897
:1000A30002B800028004F709D8FCE4791D7802B88D
:1000B30000028004F709D8FCE490028178177910D4
:1000C3008002F0A3D8FCD9FA781A90014A7A01BACF
:1000D30000028007E493A3F608DAF97A977B11907C
:1000E300014B78DE79018015E493A3AD82AE838A58
:1000F300828B83F0A3AA82AB838D828E83D8E9D9C6
:10010300E775828A7583FF740212012C75829175DB
:100113008300740012012C75D00075813F7518811E
:10012300751902759F00020096C09FF59FE473D076
:100133009F22D083D082C09FE493C0E0740193C018
:10014300E0740293F59F22019603A803D2039C0354
:10015300FF0000B4000028002800283075A000A08C
:1001630000A000A00000080008E001F0001000104B
:10017300001000100010001000500050005000103C
:10018300001000D0070000000000000F0001000570
:1001930000307507001000010081FF00000000FF20
:1001A30002020267830100004C83025783010000AF
:1001B300EF11026383010000B202025783010000C2
:1001C300F011026983010000C802FFFF0100FF2054
:1001D3000267830100004F830257830100001E1250
:1001E300026D830000000000025983030000A50391
:1001F300F20AF20AF20AF20AF20AF20AF20AF20A1C
:10020300F20AF20AF20AF20AF20AD80CF60CD20C3B
:1002130001E803053F10020AFFFFFF00A310FEFFE2
:100223003600230001120135F6F9031201350CFAE9
:10023300031201353BFA0312013571FA031201353A
:1002430088FA03120135BFFA0312013512FB0312B8
:10025300013529FB031201351EF50312013535F56E
:100263000312013566F503120135A1F503120135B9
:10027300CBF503120135F5F5031201350CF6031224
:10028300013523F6031201353AF60312013563F6FD
:100293000312013576F6031201358CF6031201358C
:1002A300B6F603120135D2C602120135D6C70212C1
:1002B300013503C80212013559C8021201357CC841
:1002C3000212013590C80212013592C8021201359B
:1002D300B5C802120135C4C90212013588CA021217
:1002E30001355DCB02120135CECB021201355ACC5A
:1002F300021201355DCC02120135E5CC0212013543
:1003030020CD0212013587CD02120135BECD021276
:1003130001354CCE02120135D6CE0212013525CF5E
:100323000212013528CF0212013588CF021201359E
:1003330093CF0212013512D00212013515D00212E9
:10034300013528D0021201352BD002120135BAD063
:1003530002120135D4D002120135E4D00212013564
:1003630014D10212013521D10212013524D1021216
:100373000135A5D10212013593D20212013545D3BD
:1003830002120135B2F302120135AFF40212013544
:1003930031F50212013551F50212013599F50212B8
:1003A3000135ECF50212013550F602120135DDF686
:1003B3000212013597F702120135A6FA021201352E
:1003C30031FC0212013554FC02120135E1DA031249
:1003D30001357EDC03120135E2DC0312013541DD18
:1003E300031201354FDD0312013578DD03120135A8
:1003F300EABB0312013512BC0312013540BC0312E0
:10040300013577BC03120135D5BC0312013520BD7C
:10041300031201356BBD03120135ABBD0312013568
:10042300F1BD031201351FBE03120135DCBE0312F9
:100433000135E6BE03120135F3BE0312013526BFB3
:1004430003120135F2BF03120135FEBF031201355A
:1004530016C00312013520C0031201359EC00312DA
:100463000135F1FE03120135FFFE0312013517FFBB
:10047300031201352FFF0312013547FF0312013524
:10048300548E02120135008F021201357B8F021246
:1004930001359C9002120135D890021201358191E9
:1004A30002120135689202120135CC930212013512
:1004B300239402120135A494021201359495021279
:1004C3000135E195021201356796021201359996BD
:1004D30002120135AD9802120135EF98021201356F
:1004E3000D9902120135AF9902120135779A021262
:1004F3000135849C021201358CDE03120135A2DE24
:1005030003120135C8DE03120135E4DF031201359E
:10051300EEDF0312013523E1031201351BE203125F
:10052300013540C603120135E4C60312013517C76E
:100533000312013561C70312013524C903120135C2
:100543004EB701120135C7B701120135D7B70112F2
:100553000135C5B801120135DFB8011201353EB9C5
:10056300011201355CBA0112013543BC0112013598
:10057300FCBD01120135D8BE011201358CBF011239
:100583000135C9C20112013577C301120135E6C431
:100593000112013566C6011201350DC7011201357D
:1005A30056C7011201358DC7011201352AC8011240
:1005B3000135B5C80112013517DA011201356CDABC
:1005C30001120135CBDB01120135DBDB01120135F1
:1005D30008DC011201355FDC0112013508DD01126F
:1005E30001350FDE01120135D9DE0112013539E083
:1005F300011201357CE00112013521E101120135BF
:1006030047E10112013555E3011201355AE30112A5
:1006130001355FE501120135ACE5011201351FE635
:100623000112013552E601120135F4E601120135DA
:100633009DE701120135D5E701120135D8E7011213
:10064300013520E80112013562E801120135B9E8EC
:100653000112013588EB031201359BEB03120135BF
:10066300A9EB03120135F1EB0312013507EC031279
:1006730001354EEC0312013562ED03120135EFED46
:10068300031201353AEE03120135176400120135E6
:100693002764001201358A6400120135CF64001209
:1006A30001358565001201356066001201358966E2
:1006B30000120135B96600120135F96800120135DF
:1006C300E06A00120135B86C00120135FC6D0012AE
:1006D3000135637000120135717100120135C37267
:1006E30000120135CD73001201350F74001201356C
:1006F300477400120135697400120135CC7400127D
:1007030001358E7900120135237A00120135777A8B
:10071300001201359E7A00120135DC7A0012013590
:10072300FB7A00120135557B00120135557C00120E
:100733000135DA7C00120135E7AA03120135F1AA6B
:100743000312013599AB03120135DCAB03120135FA
:10075300F7AB0312013587AC03120135AFAC0312BB
:100763000135E7AC031201351EAD0312013547AD68
:100773000312013581AD0312013596AD0312013524
:1007830063AE0312013586AE03120135A8AE031220
:100793000135BDAE0312013543AF031201357DAF01
:1007A30003120135F5AF031201353EB003120135D3
:1007B30068B00312013593B00312013500800412AF
:1007C30001359D9C02120135CB9C02120135269EF8
:1007D30002120135069F02120135259F02120135CF
:1007E300A29F02120135E59F0212013560A1021298
:1007F3000135CFA102120135FAA3021201357EA6FB
:10080300021201352FA70212013525A80212013564
:10081300C5A802120135C3A9021201354EAA02125C
:10082300013540FB03120135A9FB03120135FDFB22
:10083300031201352CFC031201354DFC0312013563
:10084300C1CA031201352ECB0312013575CB031236
:1008530001358DCC0312013589CD031201356CCEE0
:1008630003120135D09D03120135129E0312013587
:10087300EB9E03120135E59F03120135C7A0031256
:10088300013530A1031201354CA203120135B8A280
:1008930003120135BBA203120135E4A20312013591
:1008A3005EA30312013503A40312013518A4031236
:1008B30001355EA40312013577A4031201357AA42E
:1008C3000312013525E20312013561E203120135FA
:1008D3009FE20312013569E303120135D8E30312E2
:1008E300013513E40312013551E40312013581E4A8
:1008F30003120135A8E40312013516E5031201358D
:1009030058E50312013578A00112013597A20112AF
:1009130001357AA401120135B6A401120135E3A40D
:1009230001120135AAA501120135F5A50112013500
:1009330040A60112013552A60112013592A60112F9
:100943000135C6A60112013514A70112013545A7C9
:100953000112013568A701120135EFA70112013514
:10096300D7A801120135C4A901120135BDAA01128C
:100973000135CCAC011201356EB201120135BEB2A4
:100983000112013535B5011201357FFD0212013522
:1009930034FF0212013574830112013523840112DD
:1009A30001355084011201359A8401120135D08535
:1009B30001120135668701120135DB87011201350A
:1009C3001C88011201356E8801120135DF8901127D
:1009D3000135248C011201351E8D011201353D8D27
:1009E300011201355C8D011201355F8D0112013554
:1009F300908E01120135888F011201357490011216
:100A03000135E49001120135569101120135DD9152
:100A130001120135B892011201358D93011201358E
:100A23006C9401120135F794011201356595011299
:100A33000135D99501120135049601120135C3968A
:100A430001120135B09901120135F99901120135ED
:100A53003C9A01120135B59A011201354D9B0112E1
:100A630001353E9C01120135639C01120135A99C9D
:100A730001120135D39C011201351B9D0112013571
:100A8300969D01120135F09D01120135599F011206
:100A9300013507A00112013548A001120135FEB846
:100AA300021201354CB90212013558B9021201354F
:100AB30036BA0212013567BA0212013598BA021228
:100AC300013518BB0212013550BB02120135A2BB1E
:100AD30002120135DFBB02120135FCBD02120135E2
:100AE30022C0021201350DC202120135F7C30212F0
:100AF3000135F9FF01120135BBB00312013506B50B
:100B0300031201354AB60312013500800212013582
:100B1300B88202120135BE820212013578850212B3
:100B2300013545880212013526C103120135CAC1B8
:100B3300031201359CC203120135C6C203120135EB
:100B430014C50312013537460012013581460012E0
:100B53000135C254001201354756001201356A5758
:100B630000120135DB5D00120135D65E001201353E
:100B7300135F00120135365F00120135785F0012F2
:100B83000135825F00120135706000120135666124
:100B930000120135FF610012013513D7031201352D
:100BA300A9D703120135BFD70312013535D8031274
:100BB3000135A9D803120135E7D8031201355BD9F2
:100BC30003120135D4D903120135DDD903120135DE
:100BD300E9D903120135FED9031201353CDA0312B8
:100BE300013552DA03120135B1DA031201359EA43D
:100BF30003120135ABA403120135C5A40312013559
:100C030004A50312013542A503120135A7A503125A
:100C13000135BCA503120135D3A503120135E1A5A6
:100C230003120135F0A50312013505A603120135A0
:100C33001AA60312013525A60312013531A60312A4
:100C430001353EA6031201354DA60312013558A600
:100C5300031201357DA60312013524A703120135C2
:100C630039A7031201354EA70312013568A70312F2
:100C7300013583A703120135A0A703120135ABA7E2
:100C83000312013567A80312013553A90312013575
:100C930078A90312013583A90312013598A9031218
:100CA3000135ACA9031201350DAA0312013513AAAC
:100CB3000312013519AA031201351FAA03120135C4
:100CC30037AA031201356AAA0312013515DF02128E
:100CD300013537DF0212013517E002120135EEE26A
:100CE300021201351AE4021201353EE50212013502
:100CF300F0E50212013591E602120135D4AA02127F
:100D0300013558AB0212013507AC0212013566AD4D
:100D13000212013587AF0212013573B00212013599
:100D2300A8B002120135CAB00212013579B102121C
:100D3300013571B3021201359AB3021201352CB495
:100D4300021201355EB4021201356BB40212013591
:100D5300C2B402120135E8B40212013555B70212CA
:100D6300013558B802120135B0B802120135A6E9AF
:100D730001120135B0EA0112013597EB0112013579
:100D8300A1EB01120135C3EB01120135CFEB0112C7
:100D9300013568ED0112013597ED01120135B3EE0E
:100DA300011201350CEF0112013572F00112013508
:100DB30051F101120135ADF1011201351AF201129F
:100DC300013555F20112013594F2011201354DF549
:100DD3000112013567F501120135F3F501120135F1
:100DE30001F6011201355AF60112013568F60112B6
:100DF3000135DBF6011201353FF70112013589F7A1
:100E030001120135C8F603120135EDF6031201355F
:100E13005FF703120135978803120135A088031287
:100E23000135A98803120135808903120135318BFD
:100E330003120135678B03120135A18B03120135B0
:100E4300D78B03120135118C03120135458C031224
:100E53000135718C03120135BA8C03120135F48C00
:100E6300031201353D8D03120135958D03120135B2
:100E7300CA8D03120135258E031201355F8E0312CD
:100E83000135B08E03120135E68E03120135208F32
:100E930003120135438F0312013594820412013585
:100EA300C082041201351B83041201352583041209
:100EB3000135358304120135E38F031201352B907D
:100EC30003120135EF90031201350B910312013523
:100ED3008B9103120135DD91031201351F92031229
:100EE3000135BA92031201352E930312013584940E
:100EF30003120135B8950312013524960312013507
:100F0300929603120135E78104120135502800122D
:100F13000135842B00120135732D00120135182E73
:100F230000120135BB2E00120135722F001201355C
:100F3300A12F001201354C30001201351835001273
:100F43000135AA3500120135E636001201354E3758
:100F530000120135023800120135B83A001201358A
:100F6300F23A001201355C3B00120135B93B001225
:100F73000135163C00120135733C001201355E3D0C
:100F830000120135A43D00120135EF3D0012013579
:100F9300123E00120135553F00120135693F001220
:100FA3000135724000120135B14000120135DD40B8
:100FB300001201352C41001201354D41001201355B
:100FC3008B4100120135BA43001201355844001217
:100FD3000135CA4400120135034600120135E5FF0D
:100FE3000112013564EE031201352FF103120135AD
:100FF300D97F00120135CDFD03120135DDFD03124A
:101003000135FAFD03120135E0FE03120135A0E5B7
:101013000312013544E60312013586E80312013554
:10102300F6FF0112013532D3031201354AD30312FD
:1010330001358ED4031201354BD50312013566D524
:101043000312013586D503120135D4D503120135B8
:10105300EED50312013508D6031201351ED603124D
:1010630001353DD6031201355ED60312013589D60B
:1010730003120135DED6031201358DB60312013595
:10108300AFB60312013544B70312013542B8031258
:10109300013503BB0312013563BB03120135CCBB1E
:1010A30003120135F87F00120135A1E8031201355F
:1010B300CEEA031201353AEB0312013585EB031235
:1010C3000135E19603120135F398031201357D9939
:1010D300031201357B9A03120135419B031201353B
:1010E300259C03120135ED9C031201351C9D03124F
:1010F30001351F9D031201352D9D031201354A9DB4
:1011030003120135739D031201359C9D03120135B2
:10111300AA9D03120135C29D03120135E88304120F
:1011230001350784041201353DF1031201356EF1D7
:101133000312013598F10312013557F203120135F9
:1011430077F203120135D5F20312013512F80112B9
:10115300013522F80112013585F80112013588F8AD
:1011630001120135A9FA0112013515FB01120135EE
:1011730064FC0112013573FC0112013598FC011264
:101183000135AFFC0112013516FD011201352FFDAA
:101193000112013553FF011201356CFF01120135B4
:1011A300B6D302120135CBD30212013527D4021272
:1011B300013592D402120135DAD40212013544D535
:1011C300021201356DD5021201354AD902120135D9
:1011D30058D902120135BAD902120135F8D90212CF
:1011E300013513DA02120135AEDA0212013553DB8F
:1011F30002120135D6DB021201350FDC0212013572
:101203009ADC02120135F1DC021201354FDD0212C4
:10121300013561DD0212013587DD0212013590DDF2
:1012230002120135E1DE021201353EF303120135EC
:10123300A5F30312013550F403120135C6F403126A
:1012430001352ECF0312013561CF031201355FD073
:1012530003120135B1D1031201356BD203120135EB
:1012630093FC0312013571FD03120135417D001218
:101273000135867D00120135CC7D00120135957F45
:10128300001201351981041201353481041201352C
:101293004481041201359B81041201353F830412FA
:1012A30001356BE90212013547EA021201358EEA74
:1012B30002120135CBEA0212013539EB0212013574
:1012C30093EB0212013503EC02120135D3EC021247
:1012D3000135C2ED0212013546EE02120135E2EF8D
:1012E300021201356DF002120135FDF002120135D3
:1012F30096F102120135ADF102120135E0F202124C
:10130300013536F3021201350080031201352080C6
:1013130003120135968103120135E481031201356D
:101323000482031201356C8203120135EE8203122B
:101333000135348303120135C08303120135098853
:10134300031201358688031201356DF80312013546
:10135300ECF80312013592C901120135CACA011210
:1013630001352ECD0112013566CD0112013569CD4E
:1013730001120135F6CE0112013523CF01120135D9
:1013830049D201120135AED20112013501D4011245
:10139300013566D401120135EFD501120135BDD6F1
:1013A3000112013586D701120135D6D70112013555
:1013B300A1D80112013528D901120135178404126D
:1013C3000135AEFF01120135438404120135E0FFFC
:1013D30003E76670100809E766700A0809E7667094
:1013E300040809E76622E066701008A3E066700A45
:1013F30008A3E066700408A3E06622C3E796080921
:10140300E7960809E7960809E79622C3E09608A33A
:10141300E09608A3E09608A3E09622C008C3E096EE
:10142300F50808A3E096420808A3E096420808A33B
:10143300E09645087001D3D00822080808EAC0E006
:10144300EBC0E086F0E7A4FA180986F0E7A42AFACD
:10145300180986F0E7A42AFA180986F0E7A42AFAFD
:101463001986F0E7A4FBE5F02AFA190886F0E7A449
:101473002BFBE5F03AFA190886F0E7A42BFBE5F01D
:101483003AFA18180986F0E7A4C5F02BFBE43AFAF8
:101493001908E7C5F0C6A426F6E5F03BFBE43AFAE3
:1014A3001886F0E7A4F6E5F00826F6E43B08F6E430
:1014B3003A08F6D0E0FBD0E0FA22E4CFC0E0E4CE75
:1014C300C0E0E4CDC0E0E4CCC0E075F020E626F651
:1014D30008E633F608E633F608E633F6181818EC90
:1014E30033FCED33FDEE33FEEF33FFC3EC9709ED31
:1014F3009709EE9709EF97191919400FFFEC97FC1D
:1015030009ED97FD09EE97FE191906D5F0BFECF723
:1015130009EDF709EEF709EFF7191919D0E0FCD037
:10152300E0FDD0E0FED0E0FF226016080808C6C345
:1015330013C618C613C618C613C618C613C6D5E0F5
:10154300EA227009080808226016181818C6C3335F
:10155300C608C633C608C633C608C633C6D5E0EACE
:1015630022E627F60809E637F60809E637F60809FA
:10157300E637F622E026F608A3E036F608A3E036BF
:10158300F608A3E036F622E026F008A3E036F008DA
:10159300A3E036F008A3E036F022C3E697F6080985
:1015A300E697F60809E697F60809E697F622C3E0F8
:1015B30096F008A3E096F008A3E096F008A3E0965F
:1015C300F022E657F60809E657F60809E657F60843
:1015D30009E657F622E056F608A3E056F608A3E01C
:1015E30056F608A3E056F622E056F008A3E056F0BC
:1015F30008A3E056F008A3E056F022E667F60809D0
:10160300E667F60809E667F60809E667F622E0F6F4
:1016130008A3E0F608A3E0F608A3E0F622E6F00844
:10162300A3E6F008A3E6F008A3E6F022E0FAA3E0BD
:10163300FBA3E0FCA3E0FD22EAF0A3EBF0A3ECF0B4
:10164300A3EDF022E0F8A3E0F9A3E0FAA3E0FB2284
:10165300E8F0A3E9F0A3EAF0A3EBF022CAC0E0E6C6
:10166300F0A308DAFAD0E0FA22CAC0E0E0A3C58208
:10167300CCC582C583CDC583F0A3C582CCC582C545
:1016830083CDC583DAE6D0E0CA22C3E498F8E499AF
:10169300F91216CE8026C3E49AFAE49BFBE920E70D
:1016A300E91216CEE498F8E499F922C3E498F8E431
:1016B30099F91216CEE498F8E499F9C3E49AFAE496
:1016C3009BFB22EB20E7CFE920E7E0B90010BB004A
:1016D30008E88AF084F8AAF022E4FBC8FA22EB7047
:1016E300227B10C833C8C933C9335007C39AC3DB3D
:1016F300F280069A50012ADBEAC833F4C8C933F4EE
:10170300C9FA2275F008E4C833C8C933C933C99A82
:10171300C99B5004C92AC93BD5F0ECFBC833F4C8B4
:10172300E4C9FA22600D08C6A2E713C618C613C699
:10173300D5E0F322600C08C6C313C618C613C6D57A
:10174300E0F422700422600D18C6C333C608C63302
:10175300C6D5E0F41822251810AF08F518400C156B
:10176300198008F51840021519D2AF2200C0D02500
:101773001810AF08F518500C05198008F518500219
:101783000519D2AFD0D0222518F58210AF08F5186D
:10179300400C15198008F51840021519D2AF8519A8
:1017A30083222518F582E43519F583222518F8E4F8
:1017B3003519F9222518FAE43519FB222518FCE41A
:1017C3003519FD22E4732518C582C0E0E51934FFFD
:1017D300C583C0E0E518C3958224F810AF0885835C
:1017E300198582188008858319858218D2AFCEF0B7
:1017F300A3E520F0A37808E608F0A3DEFAEFF0A350
:10180300E58124FAF8E608F0A3E608F0A3E608F079
:10181300A30808E608F0A3E608F0A315811581D014
:10182300E0FED0E0F8158115811581E8C0E0EEC037
:10183300E0222518C582C0E0E51934FFC583C0E066
:10184300E518C3958224F910AF088583198582189A
:101853008008858319858218D2AFCEF0A3E520F0E6
:10186300A37808E608F0A3DEFAEFF0A3E58124FBF2
:10187300F8E608F0A3E608F0A30808E608F0A3E6F4
:1018830008F0A315811581D0E0FED0E0F81581158D
:1018930081E8C0E0EEC0E022851983851882E0A3C9
:1018A300FEE0A3F5207808E0A3F608DFFAE0A3FF43
:1018B300E0A3C0E0E0A3C0E0E0A3C0E0E0A3C0E099
:1018C300E0A3C0E010AF08858218858319800885DE
:1018D3008218858319D2AFD083D082020132851951
:1018E30083851882E0A3FEE0A3F5207808E0A3F641
:1018F30008DFFAE0A3FFE0A3C0E0E0A3C0E0E0A3B9
:10190300C0E0E0A3C0E010AF08858218858319808A
:1019130008858218858319D2AFD083D08222C0D0A4
:101923002518C582C0E0E51934FFC583C0E0E5187A
:10193300C3958224F310AF08858319858218800824
:10194300858319858218D2AFC8F0A3E9F0A3EAF022
:10195300A3EBF0A37908E709F0A3D8FAECF0A3ED21
:10196300F0A3EEF0A3EFF0A3D0E0F0A3D0E0F0A358
:10197300D0E0F0A3E520F0A3E5F0F0A322851983DE
:10198300851882E0C0E0A3E0F9A3E0FAA3E0FBA39B
:101993007808E0F608A3DFFAE0FCA3E0FDA3E0FE8D
:1019A300A3E0FFA3E0C0E0A3E0C0E0A3E0F5D0A381
:1019B300E0F520A3E0A3F5F010AF08858319858235
:1019C300188008858319858218D2AFD082D083D03E
:1019D300E0F8D0E03274048006740280027401C01F
:1019E300E0F40412178AD0E012165F227404800414
:1019F30074028000CCC0E0EDC0E0E518C39CCCAD20
:101A03001950011D10AF068C188D1980068C188D86
:101A130019D2AF12166CD0E0FDD0E0FC22D083D0F7
:101A230082E9C0E0E493A3C386F0C5F095F0F9081A
:101A3300E493A386F0C5F095F0700BE493A3C399E8
:101A43004005E9048002A3E475F002A42582F5822F
:101A5300E5F03583F583D0E0F9E493A3C0E0E493A4
:101A6300C0E022D083D082ECC0E0EDC0E0E493A3D9
:101A7300FCE493A3FDED4C600D121AB2EC24FFFCC1
:101A8300ED34FFFD80EFE493A3FCE493A3FDED4C61
:101A9300600D121AF1EC24FFFCED34FFFD80EFD052
:101AA300E0FDD0E0FCE493A3C0E0E493C0E022C0F7
:101AB300E0C3E49396087401939618400FE4936689
:101AC300700808740193661870007019A3A3C3E427
:101AD3009396087401939618A3A3400DD0E0D0E029
:101AE300D0E0021AA2A3A3A3A3A3A3D0E022C0E041
:101AF300C0F088F0E4936670080874019366187068
:101B030000A8F0A3A3700BD0F0D0E0D0E0D0E002A7
:101B13001AA2A3A3D0F0D0E02274F5121835EAFE7E
:101B2300EBFFEE2434F8EF3400F988088909EE243A
:101B330035F582EF3400F583E0F8EE2437F582EFD4
:101B43003400F583E0F50AEC850AF0A4FCAAF085DD
:101B53000AF0EDA42AFDE82CF8E43DF97A257B0090
:101B63001216CEEA850882850983F0F8740758F9BE
:101B73007401B900028004C333D9FCFAE8131313C8
:101B8300541FF8EE28F8EF3400F9E8245DF582E9F4
:101B93003400F583E05A6008EE2434F582EF802C9C
:101BA300EE2434F582EF3400F583E0C0E0EE243612
:101BB300F582EF3400F583E0F5F0D0E084A8F0EE91
:101BC30028F8EF3400F9E82438F582E93400F58386
:101BD300E0F97F040218E174F5121835EAFEEBFF11
:101BE300EE2434F582EF3400F583E0C0E0EE2435D3
:101BF300F582EF3400F583D0E0F08E828F83A3A3C8
:101C0300A3A3A3A3A3C082C0838E828F83A3A3A312
:101C1300A3A3E0F8A3E0F9D083D082E0C398F5084A
:101C2300A3E099F509EE247FF582EF3400F583E014
:101C330064017069EE2480F582EF3400F583E0F8E7
:101C4300A3E0F98E828F83A3A3A3A3A3A3A3E0FCA2
:101C5300A3E0FD8E828F83A3A3A3A3A3E0FAA3E053
:101C6300FBC3EA9CEB9D5010C3EC98ED99402EC347
:101C7300EA98EB995027800EC3EA98EB994007C383
:101C8300EC98ED9940177CBF7D07EEFAEFFB120A43
:101C930038EE247FF582EF3400F583E4F0EE24344C
:101CA300F8EF3400F9E8FCE9FDEE2435F582EF3472
:101CB30000F583E0F8EE2437F582EF3400F583E096
:101CC300F50AE508850AF0A4F508AAF0850AF0E507
:101CD30009A42AF509E82508F8E43509F97A257BEA
:101CE300001216CEEA8C828D83F0F8740758F974CB
:101CF30001B900028004C333D9FCFAE81313135467
:101D03001FF8EE28F8EF3400F9E8245DF582E93492
:101D130000F583E05A6008EE2434F582EF802CEE60
:101D23002434F582EF3400F583E0C0E0EE2436F589
:101D330082EF3400F583E0F5F0D0E084A8F0EE28DC
:101D4300F8EF3400F9E82438F582E93400F583E04C
:101D5300F912271F021BD574EF121835900479E08E
:101D630064086005E06407702A9061C8E06024900D
:101D730004A7E0F4601DE0F875F005A4C8AAF02AF2
:101D8300F974A928FE740439FF8E828F83A3A3A359
:101D9300E07003021E8A906060E0C0E0EE2468F504
:101DA30082EF3400F583D0E0F0750CFB750D0775F9
:101DB3000800750900E5D914F50AE5D95403F50EB1
:101DC30060177403650E605CE50A6010EE2467F526
:101DD30082EF3400F583E07003021E6F9007F6E094
:101DE3006401602AEE2482F582EF3400F583E0601B
:101DF30004780480027800850A08E508C398FA95F8
:101E0300E0FB1209188A088B09EA45097005120CD0
:101E1300AE8074EE2482F582EF3400F583E0700423
:101E23008A0C8B0DE50A6012850C82850D83F50BF8
:101E3300E5D9F0A3150BE50B70F6EE2482F582EFDE
:101E43003400F583E0604474FC250AF50A780C122B
:101E530019DCAC0AA90EEEFAEFFB120AEC740212BB
:101E6300176FE97026AA08AB09121230793D8E82EA
:101E73008F83A3A3A3A3E0FA7B001207FEEEFAEF7E
:101E8300FB120A5C120B4C790080747403650E60BC
:101E930056850A1075110078101219DCAC0CAD0DC3
:101EA300AA08AB09120AC8740212176FEE2468F568
:101EB30082EF3400F583E064807004747F8001E076
:101EC300F50C780C1219E0E50EF50C780C1219E0FC
:101ED300A90AAC08AD099004A7E0FA7B001207BC7D
:101EE300740212176F8013900479E06408700BACCE
:101EF3000CAD0DEEFAEFFB120B1C120CBA79017F3D
:101F03000A0218E174F512183574FC121759EAFE27
:101F1300EBFF8908A2AFE433F509C2AF806AEE2470
:101F230063F8EF3400F97A007B00A2AFE433F50ADB
:101F3300C2AF88828983E0FCA3E0FDEC4D603A8860
:101F4300828983E0FAA3E0FB8A828B83E0FCA3E02F
:101F5300FD88828983ECF0A3EDF08A828B83E4F021
:101F6300A3F088828983E0FCA3E0FDEC4D700A882E
:101F7300828983A3A3E4F0A3F0E50AA2E092AF125F
:101F830012309007C6E004F0EE2463F582EF3400CC
:101F9300F583E0F8A3E0F9E849603DEE2463F582B8
:101FA300EF3400F583E02402FAA3E03400FBEA24D3
:101FB30002F50AEB3400F50B780A1219DC8A828BDE
:101FC30083E0FCA3E0F9EEFAEFFB120A8C74021231
:101FD300176FE97003021F219007C6E06063900743
:101FE300C7E0F89007C6E0C398500C740265087008
:101FF300509007C8E0604A8E828F83A3A3A3A3E017
:10200300851882851983F0A3E4F09007C6E0F8747D
:10201300021217A5E8F0A3E4F09007C6E0F89007D2
:10202300C5E028F074021217A5AC82AD838518822F
:10203300851983AA82AB8379011207C89007C6E486
:10204300F0E509A2E092AF740412176F021BD500EA
:1020530000851B87851CC622C0E0C0D0E8C0E0E92C
:10206300C0E0EAC0E0EBC0E0ECC0E0EDC0E0EEC0F1
:10207300E0C008C009C00AC00BC082C083C0F0A280
:10208300AFE433FEC2AF759B00906182E0A2E050E3
:1020930012E591A2E0500C7591FE7401651B70036B
:1020A300121D5AE0A2E55051E591A2E5504B7591FE
:1020B300DF900479E064076005E06408702374012D
:1020C300651B703579019004A7E0FA75F005A4CA81
:1020D300A8F028FB74A92AFA74043BFB121F07809B
:1020E30018E0640D701390049BE004F06428700200
:1020F300E4F07A00E0F9120CC0906182E0A2E640BD
:10210300030221A2E591A2E640030221A27591BF39
:10211300900479E064057008120BC4120BD080039D
:10212300120BCA751B00120C30E990047AF0790087
:10213300120C121209A87A017B00900478E0F912BC
:102143001200907803E0644270559007FAE014F0AF
:10215300704DC2AF12215A00781ED0E0F618D0E0BD
:10216300F6E59F540770057509FF800375097FC461
:10217300C0E0781DE6F50808E65509F509740B7803
:1021830008121737D0E02508F8906270E0A2E74004
:10219300F8E8C333906272F0906270E0D2E0F0909E
:1021A3006181E0A2E35009E5E9A2E3500375E9F791
:1021B300A3E0A2E75009E591A2E7500375917FEEF2
:1021C300A2E092AFD0F0D083D082D00BD00AD00956
:1021D300D008D0E0FED0E0FDD0E0FCD0E0FBD0E0C2
:1021E300FAD0E0F9D0E0F8D0D0D0E032C0E0C0D0EF
:1021F300C082C083906183E0A2E05009E5BFA2E002
:10220300500375BFFEE0A2E15009E5BFA2E1500310
:1022130075BFFDE0A2E25009E5BFA2E2500375BF1E
:10222300FBE0A2E35009E5BFA2E3500375BFF7E06B
:10223300A2E45009E5BFA2E4500375BFEFE0A2E5B5
:102243005009E5BFA2E5500375BFDFE0A2E65009E0
:10225300E5BFA2E6500375BFBFD083D0828088C09C
:10226300E0C0D0E8C0E0E9C0E0EAC0E0EBC0E0ECE9
:10227300C0E0EDC0E0C0F0E5A7A2E6500FE5A1A2E3
:10228300E6500953A7BF75A1BF1222C7E5A7A2E570
:10229300500CE5A1A2E5500653A7DF75A1DFE5A722
:1022A300A2E15009E5A1A2E1500375A1FDE5A7A2B2
:1022B300E2500CE5A1A2E2500653A7FB75A1FBD0A7
:1022C300F00221D874F8121835751B01900479E0D7
:1022D30064067015120B708A828B83A3A3A3A3A336
:1022E300A3E0FAA3E0FB120BB2A2AFE433FED2AF3A
:1022F30090047FE0640170187A207B00900478E0FA
:10230300F912132C7A207B00900478E0F91212065C
:10231300906182E0D2E6F09007F7E0602185C61C69
:10232300801690047EE064017008E5C654F8440505
:10233300F5C653BEFC1220547401651B60E4EEA283
:10234300E092AF7F010218E174E912183574F812B4
:102353001759851882851983ECF0A3EDF08A088B51
:1023630009900479E024F7C3940550067508010227
:1023730024E2120B708A0A8B0BAE0AAF0BEE4F707E
:10238300030224DFAC08AD0974021217A5AA82ABBD
:1023930083120BE28E828F83A3A3750CFF750DFF4F
:1023A300750EFF750F00780C1215D874021217A55D
:1023B3007510FF7511FF7512FF7513007810121554
:1023C300D8780C79101213FE502A780C7910121554
:1023D3009D7508017509C8750A00750B00780879A1
:1023E3000C1213FE5052850C08850D09850E0A85C3
:1023F3000F0B80507514017515C8751600751700FD
:1024030085100885110985120A85130B7808790C44
:1024130012159D781479081213FE401C7508007577
:102423000900750A00750B017808791012159D785B
:1024330008790C121564800C750801750900750A7A
:1024430000750B0074097808121545750C19F50D04
:10245300F50EF50F7808790C1214BD8E828F83A3C5
:10246300A3A3A3A3A3E0F8A3E0F97AD07B031216F6
:10247300CE880C890DE4F50EF50F7808790C12154A
:102483006474061217A5E0F8A3E0F97AD07B03126F
:1024930016CEE8FA8A0CE4F50D7808790C1213FECF
:1024A30050077808790C12159D900479E064086050
:1024B3000AE064066005E06405702D750C0D780C68
:1024C30079081213FE4021750CF4750DFF750EFF8C
:1024D300750FFF7808790C121564800C7508007568
:1024E3000900750A00750B00851882851983E0F8C9
:1024F300A3E0F58388827808121620740812176FF8
:102503007F100218E174F7121835120BF49007F5D7
:10251300E064017010906245E4F0A3F053F4F343D8
:10252300FE0C5390F3120BA0E5C654804449F5C644
:10253300E59E547F644970F8906185740FF09007AD
:10254300F3E0F47002A3E0604E9007F4E060081437
:10255300601B14602E80407508017509009007F315
:10256300E07808121746E508F45280802A750801BE
:102573007509009007F3E07808121746E508F4524E
:102583009080147508017509009007F3E07808122C
:102593001746E508F452A079007F020218E174F7A8
:1025A300121835E9FEEAFF74016E700C7A807B0025
:1025B300900478E0F9121200902848E493F460083C
:1025C300E493F912099C800953C680E59E547F70F9
:1025D300FA120BA69007F5E0640170031209B49098
:1025E30007F3E0F47002A3E0604B9007F4E06008A7
:1025F30014601A14602C803D75080175090090075A
:10260300F3E07808121746E5084280802875080130
:102613007509009007F3E07808121746E508429021
:1026230080137508017509009007F3E07808121705
:1026330046E50842A0120BF4120B708A088B09A816
:1026430008A909E8496015E5E170FCE82414F5825E
:10265300E93400F583E0F46003E0F5E174016F70A1
:102663000A7A01900478E0F912129002259C74ED25
:102673001218358A088B098C0A8D0B74131217A54F
:10268300780C1216117808790C1213FE7510017567
:1026930011C875120075130050127808790C1215C1
:1026A3009D781079081213FE50168010780C790863
:1026B30012159D7810790C1213FE400479018002E3
:1026C30079007F0C0218E174ED1218358A088B0922
:1026D3008C0A8D0B74131217A5780C121611780C33
:1026E30079081213FE40117808790C12159DAA0877
:1026F300AB09AC0AAD0B8022751000751100751281
:10270300007513017810790C12159D781079081251
:102713001564AA10AB11AC12AD1380A6C082C0839E
:10272300E9906000F0D083D08222C0E074F21219E5
:1027330021A2AFE433FED2AFC2C0E5D1A2E450067A
:1027430053D1EF121116751A00EEF8EEA2E092AF14
:102753007F01021980C0E0C0D0E8C0E0E9C0E0A278
:10276300AFE433F8D2AFC2C7751A00E8F9E8A2E0C4
:1027730092AFD0E0F9D0E0F8D0D0D0E032C0E0742E
:10278300F2121921A2AFE433FED2AF758900C2C59C
:10279300900EB17401F0751A007A01900E84E0F97D
:1027A300121290E9F8901035E0F9901036E0697054
:1027B30002D285EEF8EEA2E092AF7F01021980C04B
:1027C300E074F2121921A2AFE433FED2AF901035B8
:1027D300E0F8901036E068700B539AFB9010377452
:1027E30001F0802CC2E9901035E0F87401289010B4
:1027F30035F0790074B528F582740F39F583E0F567
:10280300C1901035E0C3948040069010357400F0F9
:10281300900EB17401F0751A007A01900E84E0F9FC
:10282300121290E9F8901035E0F9901036E06970D3
:1028330002D285EEF8EEA2E092AF7F01021980C2C8
:10284300AF02000022FFFFFFFFFFFFFFFF74F01244
:1028530017C974F81217598A0E8B0FE9FF8C0C8D68
:102863000D7E00850E08850F097808121A200004D2
:1028730010502B9828BB28DA28FD282029432974D7
:10288300299729AE29DE298F2AB22AD52A032B506C
:102893002B2E2B072A74016F7019850C82850D83EB
:1028A300E0C39403500D850C82850D83E090125F85
:1028B300F080027E18022B7874026F7015850C82EB
:1028C300850D83E0F8A3E0F9901260E8F0A3E9F046
:1028D30080027E18022B7874016F7019850C828533
:1028E3000D83E0C39402500D850C82850D83E09027
:1028F3000DA2F080027E18022B7874016F70198587
:102903000C82850D83E0C39405500D850C82850DE3
:1029130083E0900DA3F080027E18022B7874016F80
:102923007019850C82850D83E0C39402500D850CCC
:1029330082850D83E0900DA4F080027E18022B782F
:1029430074106F702775081075090078081219DC68
:10295300AC0CAD0D7AA57B0D1211A6740212176F84
:102963008A088B0985088285098380027E18022BD9
:102973007874016F7019850C82850D83E0C394020E
:10298300500D850C82850D83E0900DB5F080027E9D
:1029930018022B7874016F700D850C82850D83E00E
:1029A300901263F080027E18022B7874046F7026F5
:1029B30090832E7808121611850C82850D83780872
:1029C30012140E5011850C82850D83121647900D3B
:1029D300B712165380027E18022B78EF702112056E
:1029E3000AE97013120F8AE9F5097950121302E903
:1029F300F508120F78800A900E4A7401F080027E67
:102A030018022B7874076F707E75080675090078B5
:102A1300081219DC850C82850D83A3AC82AD837407
:102A2300041217B71211AC740212176F851882853E
:102A33001983EAF0A3EBF07C007D0074021217B750
:102A4300850C82850D83E0F9120F18E9F50AE50A72
:102A5300C3940A502E12050AE97015A90A120F90A1
:102A6300E9F5097950121302E9F508120F78801974
:102A7300A80A7900744B28F582740E39F583740122
:102A8300F080067E0280027E18022B7874016F703C
:102A930019850C82850D83E0C39402500D850C8249
:102AA300850D83E0900DB6F080027E18022B7874BA
:102AB300016F7019850C82850D83E0C3940A500D54
:102AC300850C82850D83E0901262F080027E1802ED
:102AD3002B7874016F7025850C82850D83E0C39478
:102AE300074019850C82850D83E0C39411500D8531
:102AF3000C82850D83E0901264F080797E188075D6
:102B030074016F7022900E49E0F508850C82850DE3
:102B130083E0900E49F0E508705B900E49E0640194
:102B23007053120F78804E7E18804A74016F7019AB
:102B3300850C82850D83E0C39404500D850C82853A
:102B43000D83E0901265F0802C7E188028C3E50E7B
:102B53009427E50F9400501B74026F7016850C8246
:102B6300850D83E0FCA3E0FDAA0EAB0F1203F0E991
:102B7300FE80027E02EEF9740812176F7F080218B6
:102B83009B74F01217C974D81217598518828519C6
:102B930083EAF0A3EBF0890F8C088D099082A5746A
:102BA300021217BF740612166C74021217BF85182F
:102BB30082851983E0FAA3E0FBA90F120F18E9FE3F
:102BC300EEC3940A4003022D06EEF9120F5AE9F5FB
:102BD3000E90125FE064027004740180027400F5C9
:102BE3000A780A1219E074391217A5E0FDAC0EEE4B
:102BF300F9AA08AB09120FC6740112176F7C147D72
:102C030000790074141217B71211BE8A0A8B0B8550
:102C13000A0C850B0D74141217BF7A1075F006EEAB
:102C2300A42424F91212FCE9703C7C1079FF74147B
:102C33001217B7121224E9702D74241217A5AC824F
:102C4300AD837A0475F006EEA42425F91212FCE98B
:102C5300FF74141217BFE50EA2E0E433F9AA08AB20
:102C630009120486E9F874081217BF7A0C74702EDF
:102C7300F91212FCE9707674081217B7120F4E7F1F
:102C830000EFC394045066EFF87900E875F003A4ED
:102C9300C8AAF075F000A42AFA75F003E9A42AF98A
:102CA30074081217A5E58228F50CE58339F50D851F
:102CB3000C82850D83E0F8A3E0F9E849602C850CCC
:102CC30082850D83A3A3E0F50A750B00780A121918
:102CD300DC850C82850D83E0FCA3E0FDAA08AB092B
:102CE300120708740212176FE9F80F8094E50EA219
:102CF300E15071900DA1E0F9AA08AB0912070EE9A2
:102D0300F8806174381217A5E06408705790125F59
:102D1300E06402704F7C007D00A90FAA08AB091282
:102D23000FC0900DBBE0F8A3E0F9E8496036900DC1
:102D3300BBE0F8A3E0F5838882A3A3E0F8A3E0F95E
:102D4300E84960207C007900AA08AB09900DBBE03C
:102D5300F8A3E0F5838882A3A3E0F8A3E0F58388D2
:102D6300821217C77900742812176F7F0802189B05
:102D730074F21217C9890B8A088B09ECFEEDFF75F3
:102D83000A0AE50B600B14600814604114605F804D
:102D93007DAA08AB09120F6CE9F50AE50AC3940A88
:102DA300506CEE4F6068750C06750D00780C1219A7
:102DB300DCAC08AD09EEFAEFFB1211A67402121790
:102DC3006F8A0C8B0D850C82850D838041AA08AB1D
:102DD30009120F66E9F50AE50AC3940A5030EE4F6B
:102DE300602CEEFAEFFBA90A120F60E98020AA0813
:102DF300AB09120F72E9F50AE50AC3940A500FEE04
:102E03004F600BEEFAEFFBA90A120F60E9F8A90A6B
:102E13007F0602189B74F21217C98A0C8B0DE9FF07
:102E23007E1574FF650C700474FF650D702A7508B8
:102E330000E508C3940A5014EFFC7A027B00A9084A
:102E4300120F3CE960027E00050880E5EF60627ABC
:102E5300B47B0F1208FA8059AA0CAB0D1208DC8A56
:102E6300088B0985080A85090BE50A450B60407C38
:102E7300007D00E50A2405FAE4350BFB850A82850B
:102E83000B83A3A3A3A3E0F9120F18E9F508E50840
:102E9300C3940A500EEFFC7A027B00A908120F3C80
:102EA300E97E00EF600BAA0AAB0B120FB480027E1F
:102EB30014EEF97F0602189B74F01217C974FE1200
:102EC3001759851882851983EAF0A3EBF08C0A8DD4
:102ED3000B74121217A5E0F50EA3E0F50F7E15850E
:102EE3001882851983E064FF7004A3E064FF701DFA
:102EF3007F00EFC3940A506BAC0EAD0FAA0AAB0B65
:102F0300EFF9120F42E960027E000F80E585188217
:102F1300851983E0FAA3E0FB1208DC8A0C8B0D858C
:102F23000C08850D09E508450960367C007D00E540
:102F3300082405FAE43509FB850882850983A3A3E0
:102F4300A3A3E0F9120F18E9FFEFC3940A5014ACDE
:102F53000EAD0FAA0AAB0BEFF9120F42E97E008008
:102F6300027E14EEF9740212176F7F0802189B7425
:102F7300F71217C9EAFEEBFF900DBBEEF0A3EFF0DB
:102F8300900DA1E0FC7D007A267B001203F0E9F5A9
:102F930008900DA1E0F912068A7F0102189B74F0D4
:102FA3001217C974FE121759E9C0E074011217A56C
:102FB300D0E0F0EAFEEBFF74121217A5780C12169C
:102FC300118518828519837400F074011217A5E026
:102FD3007055850C08850D09850E0A850F0B9083A6
:102FE3002E780C1216117808790C1214BD8E088FE6
:102FF3000978081219DCAA0CAB0DAC0EAD0F120444
:1030030098740212176FE9C0E0851882851983D07E
:10301300E0F0851882851983E0601C7901EEFAEFF0
:10302300FB120492E9801074011217A5E0F9EEFA7D
:10303300EFFB120492E9F8851882851983E0F9748D
:103043000212176F7F0802189B74F01217C974ECF1
:103053001217598A0E8B0F850E82850F83A3A3E067
:1030630024FA70030234A424FD70030233AC1470F9
:103073000302313C1460101470030233F024FE7019
:10308300030232B202350CAE0EAF0F900DBBE0F867
:10309300A3E0F9E8496066900DBBE0F8A3E0F5838F
:1030A3008882E0F8A3E0F9E8496052EE240CF58247
:1030B300E43FF583E0F50878081219E0EE240BF5F8
:1030C30082E43FF583E0F98E828F83A3A3A3A3A3B6
:1030D300A3A3A3A3E0FCA3E0FDEE2403FAE43FFBD8
:1030E300900DBBE0F8A3E0F5838882E0F8A3E0F558
:1030F3008388821217C7740112176F80398E828FEB
:1031030083A3A3A3A3A3A3A3A3A31219F3900DB70C
:1031130012162F120498740212176FE960187901BE
:103123008E828F83A3A3A3A3A3A3A3A3A3E0FAA342
:10313300E0FB120492E902350CAE0EAF0F8E828FC4
:1031430083A3E060030232608E828F83A3A3A3A3D1
:10315300A3E0A2E04003023260900E55E0F8A3E042
:10316300F9E84960030232607C0E7D007900740641
:103173001217B71211BE8A088B09AA08AB09EE24ED
:103183000CF582E43FF583E0F8A3E0F9E849603603
:1031930075080675090078081219DCEE240CF5820F
:1031A300E43FF583E02410FCA3E03400FD7408122F
:1031B30017B71211A6740212176F8A088B098508B4
:1031C30082850983804F8E828F83A3A3A3E0FAA312
:1031D300E0FB1208DC8A0A8B0B850A08850B09E5DC
:1031E300084509602D750A06750B00780A1219DC6B
:1031F300E5082405FCE43509FD74081217B712111C
:10320300A6740212176F8A0A8B0B850A82850B83B9
:10321300800302350C8E828F83A3A3A3A3A3E0A212
:10322300E25004D2F08002C2F0A2F0E433F8790055
:1032330074121217A5E048F0A3E049F0EEFCEFFD8D
:1032430074061217B7120F54E970127A027B0090BA
:103253000DA1E0F9121200E9790002350E900DBBC1
:10326300E0F8A3E0F9E8496043900DBBE0F8A3E080
:10327300F5838882A3A3E0F8A3E0F9E849602D8EE3
:10328300828F83A3E0FC79018E828F83A3A3A3E0C3
:10329300FAA3E0FB900DBBE0F8A3E0F5838882A3DB
:1032A300A3E0F8A3E0F58388821217C702350CAEBA
:1032B3000EAF0F8E828F83A3E06406600302335840
:1032C3008E828F83A3A3A3E0FAA3E0FB1208DC8A18
:1032D300088B0985080A85090BE50A450B6076907A
:1032E3001265E014600814602614603F80677C0058
:1032F3007D00850A82850B83A3A3A3A3E0F98E82B5
:103303008F83A3A3A3E0FAA3E0FB120FC080467C44
:10331300058E828F83A3A3A3E0FAA3E0FB850A8231
:10332300850B83E0F9120480E9802A7C007D007913
:10333300007A097B04120F0CE9F5087C058E828F55
:1033430083A3A3A3E0FAA3E0FB850A82850B83E0B2
:10335300F9120480E9900DBBE0F8A3E0F9E84960B5
:1033630045900DBBE0F8A3E0F5838882A3A3E0F8C2
:10337300A3E0F9E849602F850E82850F83A3E0FC63
:1033830079028E828F83A3A3A3E0FAA3E0FB900DBF
:10339300BBE0F8A3E0F5838882A3A3E0F8A3E0F5FC
:1033A3008388821217C702350C850E08850F097CA6
:1033B300007D00E5082404FAE43509FB85088285CD
:1033C3000983A3A3A3E0F9120F18E9FEEEC3940A3D
:1033D3005018E508240AFCE43509FD7A0475F00663
:1033E300EEA42425F91212F6E9F802350C850E82B3
:1033F300850F83A3A3A3E0F508A3E0F50990829FBB
:10340300AC18AD19740612166CAA08AB091208DCC5
:103413008A0C8B0D850C0A850D0BE50A450B607F25
:1034230090125FE064026077AC18AD19E50A2405D9
:10343300FAE4350BFB850A82850B83A3A3A3A3E0E0
:10344300F9120F18E9FEEEC3940A5021EEF9120F98
:103453005AE9FC750C01780C1219E07D08EEF9AA03
:1034630008AB09120FC6740112176F803290125FF6
:10347300E0700D7905AA08AB09120492E9F8801FE0
:1034830090125FE0640170177C007D00850A8285DD
:103493000B83A3A3A3A3E0F9AA08AB09120FC0806F
:1034A3006812050AE97062900E4AE06401701A120C
:1034B3000F8AE9FE900E4A7400F07C0A7D007900C1
:1034C3007A4B7B0E1211BE80367E00EEC3940A50F7
:1034D3002EEEF87900744B28F582740E39F583E0EB
:1034E30064017018EEF9120F90E9FAEEF87900749E
:1034F3004B28F582740E39F5837400F00E80CC7975
:1035030050121302E9FE120F787901741412176F27
:103513007F0802189B74F51217C974F212175989A0
:1035230008EAFEEBFF8C09AC18AD197A0E75F006AC
:10353300E508A42420F91212FCE9705F7C0679FFE8
:10354300AA18AB19121224E97051740C1217A5E0D2
:10355300F8A3E0F9E8F50AE5096005EE420A8004FC
:10356300EEF4520AA80A7900740C1217A5E06870E9
:1035730003A3E0696021A80A7900740C1217A5E877
:10358300F0A3E9F0AC18AD197A0E75F006E508A4BE
:103593002420F91212F6E9790180027900740E12DF
:1035A300176F7F0302189B74F01217C974E6121782
:1035B3005989098A0E8B0FECFEEDFF740C1217BFAD
:1035C3007A0E75F006E509A42420F91212FCE960CD
:1035D300030236DA7C0679FF740C1217B712122431
:1035E300E960030236DAAC18AD197A0C7470250958
:1035F300F91212FCE960030236D6750800AA18AB6B
:1036030019120F4EE50E450F702E7C0C7900AA1887
:10361300AB19121224E960030236BC7C0C7D0079DD
:1036230000AA18AB191211BE8A0A8B0B850A828570
:103633000B837508010236BCAC18AD19AA0EAB0F8B
:10364300120F488A0C8B0D850C0A850D0BE50A4574
:103653000B7030EE4F601BAC18AD197A007B001273
:103663000F488A0C8B0DA80CA90D880A890BE84911
:10367300700479008063850A82850B83E50EF0A3CD
:10368300E50FF0850A82850B83A3A3E0F87900EEAA
:10369300687002EF696022EEC0E0850A82850B83C1
:1036A300A3A3D0E0F0EE4F700D850A82850B8374DF
:1036B30000F0A37400F0750801E5086016AA18ABC2
:1036C30019120F4EAC18AD197A0C74702509F91242
:1036D30012F6E9790180027900741A12176F7F08D4
:1036E30002189B74F71217C9EAFEEBFF7A00EAC3CC
:1036F3009404504EEAF87900E875F003A4C8ABF0DF
:1037030075F000A42BFB75F003E9A42BF9EC28F565
:1037130082ED39F583E06E7003A3E06F7021EAF860
:103723007900E875F003A4C8AAF075F000A42AFA9A
:1037330075F003E9A42AF9EC28FAED39FB80070AAE
:1037430080AC7A007B007F0102189B74F71217C9C3
:103753007C00ECC3940440030237FDECF87900E8E5
:1037630075F003A4C8ADF075F000A42DFD75F0034A
:10377300E9A42DF9EA28F582EB39F583E0F4FEA3F9
:10378300E0F4FFECF87900E875F003A4C8ADF07538
:10379300F000A42DFD75F003E9A42DF9EA28F582C4
:1037A300EB39F583EEF0A3EFF0ECF87900E875F070
:1037B30003A4C8ADF075F000A42DFD75F003E9A4D2
:1037C3002DF9EA28F582EB39F583A3A3E0F4C0E0F1
:1037D300ECF87900E875F003A4C8ADF075F000A427
:1037E3002DFD75F003E9A42DF9EA28F582EB39F5EF
:1037F30083A3A3D0E0F00C0237557F0102189B741A
:10380300F01217C974F4121759EAFEEBFF8C088DF6
:1038130009900E55E0F8A3E0F9E849702CEE4F60EB
:1038230006E508450970057901023AAEEEFAEFFBA9
:10383300120F6CE9901266F0901266E0C3940A408E
:1038430008120F7EE9901266F0901266E0C3940AA4
:103853004003023AAC900E55E0F8A3E0F9E8496062
:10386300030238F8EEFCEFFD7A0E75F0069012664F
:10387300E0A42420F91212F6E9F50B7C0C7D007903
:10388300FFAA18AB191211BE8A0C8B0D850C0E857D
:103893000D0FAC18AD197A0C901266E02470F91272
:1038A30012F6E9F50A750C0E750D00780C1219DC89
:1038B300EEFCEFFD901266E0F87900E875F00EA4D7
:1038C300C8AAF075F000A42AFA75F00EE9A42AF943
:1038D30074BD28FA740D39FB1211A6740212176F06
:1038E3008A0C8B0DA80CA90D900E55E508F0A3E5E5
:1038F30009F0023AA8900E55E0F8A3E0C82406F5B3
:1039030082C83400F583E0F8A3E0F9E84960439006
:103913000E55E0F8A3E0C82406F582C83400F58309
:10392300E0FCA3E0FD7A1B75F006901266E0A42488
:1039330021F91212F6E9F8900E55E0F9A3E0C92433
:1039430006F582C93400F5837400F0A37400F00215
:103953003AA8900E55E0F8A3E0C8240AF582C834CB
:1039630000F583E0F8A3E0F9E8496043900E55E0E1
:10397300F8A3E0C8240AF582C83400F583E0FCA369
:10398300E0FD7A1B75F006901266E0A42422F9127A
:1039930012F6E9F8900E55E0F9A3E0C9240AF5827E
:1039A300C93400F5837400F0A37400F0023AA890C0
:1039B3000E55E0F8A3E0C8240CF582C83400F58363
:1039C300E0F8A3E0F9E8496043900E55E0F8A3E07E
:1039D300C8240CF582C83400F583E0FCA3E0FD7A2B
:1039E3001075F006901266E0A42423F91212F6E98A
:1039F300F8900E55E0F9A3E0C9240CF582C9340010
:103A0300F5837400F0A37400F0023AA8900E55E019
:103A1300F8A3E0C82408F582C83400F583E0F8A3CE
:103A2300E0F9E849606F900E55E0F8A3E0C8240878
:103A3300F582C83400F583E0FCA3E0FD7A1075F04D
:103A430006901266E0A42424F91212F6E9F50A900E
:103A53000E55E0F8A3E0C82408F582C83400F583C6
:103A6300E02410FCA3E03400FD7A0475F006901204
:103A730066E0A42425F91212F6E9F8900E55E0F950
:103A8300A3E0C92408F582C93400F5837400F0A3C8
:103A93007400F08010900E49E06003120FCC120FF7
:103AA300BA79018006790080027901740C12176FCC
:103AB3007F0802189B74F71217C974F2121759E999
:103AC300FEAC18AD197A0E75F006EEA42420F91297
:103AD30012FCE9700E740C1217A5E0F8A3E0F9E8E4
:103AE300F980027900740E12176F7F0102189B741C
:103AF300F41217C974F21217598909EAFEEBFFE5AC
:103B030009C3940A5004EE4F700479028041AC1843
:103B1300AD197A0E75F006E509A42420F91212FCFA
:103B2300E9F508E5087026750A06750B00780A1290
:103B330019DC74021217BFEEFAEFFB1211A674021E
:103B430012176F8A0A8B0B850A82850B83A9087467
:103B53000E12176F7F0402189B74F41217C9EAFE42
:103B6300EBFF750800E508C3940A5043750A067510
:103B73000B00780A1219DCEEFCEFFDA8087900E8C7
:103B830075F00EA4C8AAF075F000A42AFA75F00E19
:103B9300E9A42AF974C328FA740D39FB1211B87415
:103BA3000212176FE96004A9088006050880B67938
:103BB3000A7F0402189B74F41217C9EAFEEBFF751F
:103BC3000800E508C3940A5043750A06750B00788C
:103BD3000A1219DCEEFCEFFDA8087900E875F00E77
:103BE300A4C8AAF075F000A42AFA75F00EE9A42A75
:103BF300F974BD28FA740D39FB1211B87402121747
:103C03006FE96004A9088006050880B6790A7F0475
:103C130002189B74F71217C974F0121759EAFEEBD6
:103C2300FF750800E508C3940A5039AC18AD197A3A
:103C33001075F006E508A42423F91212FCE970209C
:103C43007C1079FFAA18AB19121224E97012EEFC4A
:103C5300EFFDAA18AB19120462E97004A9088006E3
:103C6300050880C0790A741012176F7F0102189B30
:103C730074F41217C9750800E508C3940A400302D7
:103C83003D4DA8087900E875F00EA4C8AAF075F0B8
:103C930000A42AFA75F00EE9A42AF974BD28FC746D
:103CA3000D39FD7A0E75F006E508A42420F91212E9
:103CB300FCE97003023D487C067D0079FFAA087B7E
:103CC30000EA75F00EA4CAA8F075F000A428F875F0
:103CD300F00EEBA428FB74BD2AFA740D3BFB121102
:103CE300BE8A0A8B0BAE0AAF0B7C067D0079FFAA56
:103CF300087B00EA75F00EA4CAA8F075F000A428AA
:103D0300F875F00EEBA428FB74C32AFA740D3BFB81
:103D13001211BE8A0A8B0BAC0AAD0BA8087900E816
:103D230075F00EA4C8AAF075F000A42AFA75F00E77
:103D3300E9A42AF974C928F582740D39F58374004E
:103D4300F0A37400F00508023C7B900E49E0600389
:103D5300120FCC120FBA7F0402189B74F71217C903
:103D63007E00EEC3940A50327C0679FFEEFA7B00A4
:103D7300EA75F00EA4CAA8F075F000A428F875F04F
:103D83000EEBA428FB74BD2AFA740D3BFB1212241C
:103D9300E96004EEF980050E80C8790A7F010218F4
:103DA3009B74F71217C97E007F00EFC3940A503546
:103DB3007C0679FFC9FDC9EFF87900E875F00EA418
:103DC300C8AAF075F000A42AFA75F00EE9A42AF93E
:103DD30074BD28FA740D39FBCDF9CD121224E970A4
:103DE300010E0F80C5EEF97F0102189B74F71217BD
:103DF300C97E007F00EFC3940A500DEE700AEFF9FD
:103E0300120F90E9FE0F80EDEEF97F0102189B740B
:103E1300F01217C974C9121759E9FE901266E06EC1
:103E2300701D7A017B00900DA1E0F9121206E97A68
:103E3300027B00900DA1E0F9121206E9120FD8746B
:103E4300291217BF7A0E75F006EEA42420F9121278
:103E5300FCE96003023F467C0679FF74291217B719
:103E6300121224E96003023F467C0E7D0079FF7441
:103E7300291217B71211BE851882851983EAF0A398
:103E8300EBF07C1B7D0079FF740E1217B71211BE85
:103E93008A0A8B0B850A0E850B0F7C0C7D0079FF3C
:103EA30074021217B71211BE8A0C8B0D850C0A858A
:103EB3000D0B74291217BF7A0E75F006EEA4242099
:103EC300F91212F6E9F508740E1217BF7A1B75F092
:103ED30006EEA42421F91212F6E94208740E121711
:103EE300BF7A1B75F006EEA42422F91212F6E942FA
:103EF30008740E1217BF7A1075F006EEA42423F986
:103F03001212F6E94208740E1217BF7A1075F00602
:103F1300EEA42424F91212F6E94208740E1217BF14
:103F23007A0475F006EEA42425F91212F6E9420884
:103F330074021217BF7A0C74702EF91212F6E9424A
:103F4300088003750800A908743712176F7F0802E9
:103F5300189B74F71217C9E9FEEE900DA1F0120F2A
:103F6300787F0102189B74F21217C9890AEAFEEBE3
:103F7300FFEE5400F8EF5480F9E8496035900DA145
:103F8300E0F91211E88A0C8B0DA80CA90D88088999
:103F930009E8496012AA08AB09120FA2E96008AA4E
:103FA30008AB091211D6E9EE6400FAEF6480FB0254
:103FB300406DEE5402602D7C007D007A007B001280
:103FC3000F54E960187A017B00900DA1E0F91212F9
:103FD30000E9EE6402FAEF6400FB02406D7A027BB3
:103FE3000002406DEEA2E0507D900E55E0F8A3E094
:103FF300F5838882A3A3A3E0FAA3E0FB120FD2E91F
:10400300605E900DBBE0F8A3E0F9E8496045900DD0
:10401300BBE0F8A3E0F5838882A3A3E0F8A3E0F96B
:10402300E849602F7C007901900E55E0F8A3E0F594
:10403300838882A3A3A3E0FAA3E0FB900DBBE0F87F
:10404300A3E0F5838882A3A3E0F8A3E0F583888245
:104053001217C7120FD8EE6401FAEF6400FB800A4F
:104063007A017B0080047A007B007F0602189B7430
:10407300F71217C9EAFEEBFF7508018E828F83E002
:104083002450601314601924E1701CEEFAEFFB1244
:104093000F36E9F5088010EEFAEFFB120FA8800740
:1040A300EEFAEFFB120FAEA9087F0102189B74F71B
:1040B3001217C9EAFEEBFF8E828F83A3A3A3A3E0AB
:1040C300641E701179008E828F83A3A3E0FAA3E0AC
:1040D300FB120F1EE97F0102189B74F61217C98A9F
:1040E300088B09850882850983A3A3A3A3E0703401
:1040F300AE08AF098E828F83A3A3A3A3A3A3A312A6
:1041030019F38E828F83A3A3A3A3A3E0FCA3E0FDF3
:104113008E828F83A3A3E0FAA3E0FB120F24740221
:1041230012176FE97F0202189B74F71217C9EAFE90
:10413300EBFF900DA1E0F98E828F83A3E0FAA3E059
:10414300FB12070EE97F0102189BC082C08374FF34
:10415300121759120F84E9C39402400B8518828504
:1041630019837402F08009851882851983740AF013
:10417300AC18AD197A017905120522E974011217F9
:104183006FD083D08202013274F21217C974E8121D
:1041930017598A088B09E9FE8C0A8D0B7C187D0060
:1041A3007900AA18AB191211BE8A0C8B0DAA0CAB9D
:1041B3000D851882851983E508F0A3E509F0900DB4
:1041C300A3E0C0E074021217A5D0E0F0900DA4E0C4
:1041D300C0E074031217A5D0E0F0901264E0C0E0D1
:1041E30074171217A5D0E0F074151217A5E054FE4A
:1041F300F0A3E054FFF0901263E0A2E0E433F87917
:104203000074151217A5E048F0A3E049F09012637B
:10421300E0A2E15004D2F08002C2F074151217A597
:10422300E054FDF0A3E054FFF0A2F0E433F879008A
:10423300E828F8E933F974151217A5E048F0A3E06C
:1042430049F0901263E0A2E35004D2F08002C2F07E
:1042530074151217A5E054F7F0A3E054FFF0A2F091
:10426300E433F50C750D007403780C1217467415BE
:104273001217A5E0450CF0A3E0450DF0901263E0A2
:10428300A2E45004D2F08002C2F074151217A5E024
:1042930054EFF0A3E054FFF0A2F0E433F50C750DF6
:1042A300007404780C12174674151217A5E0450C18
:1042B300F0A3E0450DF0901263E0A2E55004D2F0C4
:1042C3008002C2F074151217A5E054DFF0A3E05486
:1042D300FFF0A2F0E433F50C750D007405780C12B1
:1042E300174674151217A5E0450CF0A3E0450DF031
:1042F300901263E0A2E25004D2F08002C2F074157F
:104303001217A5E054FBF0A3E054FFF0A2F0E4334E
:10431300F50C750D007402780C12174674151217FC
:10432300A5E0450CF0A3E0450DF0900DA4E0602A54
:10433300750C10750D00780C1219DC7CA57D0D74BD
:10434300061217A5AA82AB831211A6740212176F65
:104353008A0C8B0D850C82850D83900DB5E0601161
:10436300EE600E74151217A5E04402F0A3E04400BA
:10437300F0900DB5E060067801790080047800794B
:104383000074141217A5E048F0900DA2E0600678BF
:1043930004790080047800790074141217A5E048AA
:1043A300F0AC0AAD0BAA18AB1912048CE9741812FD
:1043B300176F7F0602189B74F21217C974E3121762
:1043C300598A0C8B0DE9FF8C0A8D09742B1217A5E2
:1043D300E0F50874086509700A75F006EFA4242255
:1043E300FE800875F006EFA42421FE7C1B7D007976
:1043F3000074021217B71211BE851882851983EA59
:10440300F0A3EBF074021217BF7A1BEEF91212FC41
:10441300E97038741C1217A5E0C39407402D741C6F
:104423001217A5E0C394115022E508F50B780B127F
:1044330019E074031217BFE50AA2E0E433F9AA0CEA
:10444300AB0D12049E740112176FE9741D12176FDE
:104453007F0602189B74F71217C9120786E97E00BC
:10446300EEC3940A505C7C0679FFC9FDC9EEF87966
:1044730000E875F00EA4C8AAF075F000A42AFA7536
:10448300F00EE9A42AF974BD28FA740D39FBCDF9AD
:10449300CD121224E97028EEF87900E875F00EA425
:1044A300C8AAF075F000A42AFA75F00EE9A42AF957
:1044B30074BD28FA740D39FB790012078CE9F80EE4
:1044C300809E7F0102189B74F61217C974FD1217A0
:1044D30059EAFEEBFF900E57E0F8A3E0F9E84970C4
:1044E3003975085975090E78081219DC75080275B3
:1044F300090078081219DC750859750983780812C0
:1045030019DC7CFF7DFF7A017B001205DC74061247
:10451300176F900E57EAF0A3EBF0900E57E0F8A355
:10452300E0F9E84970030245E7E4F508F50978087E
:104533001219DC74041217AF880889097808121954
:10454300DC74041217AF8808890978081219DC9003
:104553000E591219F37902900E57E0FCA3E0FDEE19
:10456300FAEFFB1206FC740812176FE9704A8518FC
:1045730082851983E0FA7B0074011217A5E0F879AC
:1045830000E4C8F9EA28F508EB39F509E508450917
:10459300602678081219DC900E57E0F8A3E0F58343
:1045A3008882A3A3A3A3E0FCA3E0FDEEFAEFFB1232
:1045B3000F24740212176FE9E4F508F5097808125D
:1045C30019DC900E591219F37CFF7DFF900E57E012
:1045D300FAA3E0FB1205E8740412176F900E57EA72
:1045E300F0A3EBF0900E57E0F8A3E0F9E84970046C
:1045F300790180027900740312176F7F0202189BFE
:10460300C082C083900E55E0F8A3E0F9E849601733
:10461300900E55E0FAA3E0FB1211D6E9F8900E557F
:104623007400F0A37400F0901266740AF0D083D083
:1046330082020132C082C083784C790888828983E0
:10464300A3A3A3A3A3A3E4F088828983A3A3A3A31F
:10465300A374FFF0E82418F8E93400F9E864AC70B7
:1046630003E9640870D690084E74FFF090084DE497
:10467300F090084CF090084FF0A3F0025F2F74EC19
:104683001217C990084FE0F508A3E0F509E50845BE
:104693000970061209A80254BD850882850983E0C2
:1046A30014601814601524FE601124C47003024EB4
:1046B300C324C07003024EC30254BDE0F9120B5E63
:1046C3008A0A8B0BAE0AAF0B9004A6E07003024A72
:1046D300C1120A50E9F875F005A4C8AAF02AF974C2
:1046E300A928F50C740439F50D850C82F583E0F5E2
:1046F3000AA3E0F50BAC0AFDEEFAEFFB120B58E947
:10470300F50E7402650E7003024A698E828F83E090
:1047130024FE600A24FE70030249530254BDEE6571
:10472300087003EF650960211209C69007DAE06497
:104733000170169007D9E070107901120C7E120CEB
:104743004E120C787900120C84E50E6021E50824E2
:1047530015F582E5093400F583E060129007D5E092
:10476300F8A3E0F9A3E0687003A3E0697042120BB9
:10477300DC8A0C8B0D8C0E8D0F7510037511007573
:104783001200751300780C79101215647510FF75FB
:1047930011FF7512FF780C79101215C58E828F8365
:1047A300A3A3E50CF0A3E50DF0A3E50EF0A3E4F05D
:1047B300E5082415F582E5093400F583E06401601A
:1047C3000302486B850A82850B83A3A3750CF175DD
:1047D3000DFF750EFF750FFF780C121577780C120D
:1047E30019D88E828F83A3A3C082C0839007D7E09A
:1047F300F508A3E085080CF50DE4F50EF50FD0835D
:10480300D082780C121577AA0CAB0DAC0EAD0F123B
:104813002671740412176FE9701F8E828F83A3A30E
:10482300C082C0839007D7E0F508A3E0F509E4F55B
:104833000AF50BD083D0828014850A82850B83A36B
:10484300A37508F17509FF750AFF750BFF78081248
:104853001577750CFF750DFF750EFF750F00780842
:10486300790C1215C5024DBBEE240EF582EF340010
:10487300F5831219EF8E828F83A3A312162F1226AC
:1048830071740412176FE9640160030253DE850A31
:1048930082850B83A3A3750CF1750DFF750EFF7550
:1048A3000FFF780C121577780C1219D88E828F832C
:1048B300A3A3C082C0839007D7E0F508A3E08508CF
:1048C3000CF50DE4F50EF50FD083D082780C12159C
:1048D30077AA0CAB0DAC0EAD0F1226717404121730
:1048E3006FE9701F8E828F83A3A3C082C08390075A
:1048F300D7E0F508A3E0F509E4F50AF50BD083D07A
:10490300828014850A82850B83A3A37508F1750938
:10491300FF750AFF750BFF7808121577750CFF7585
:104923000DFF750EFF750F007808790C1215C5EE93
:10493300240EF582EF3400F58378081216209007D1
:10494300DDE06427700474258002E004F00253DE86
:10495300EE65087003EF650960319007F1E0F91225
:1049630009CC850882850983E06402701E9007DA0A
:10497300E0640170169007D9E070107900120C7E84
:10498300120C4E120C787901120C84E50E60129011
:1049930007EBE0F8A3E0F9A3E0687003A3E0697014
:1049A30039120BDC8A0C8B0D8C0E8D0F7510037571
:1049B3001100751200751300780C791012156475C7
:1049C30010FF7511FF7512FF780C79101215C58E43
:1049D300828F83A3A3780C121620850A82850B830A
:1049E300A3A3750CF1750DFF750EFF750FFF780C02
:1049F300121577780C1219D88E828F83A3A3C082E5
:104A0300C0839007EDE0F508A3E085080CF50DE4FD
:104A1300F50EF50FD083D082780C121577AA0CAB64
:104A23000DAC0EAD0F122671740412176FE9701FCF
:104A33008E828F83A3A3C082C0839007EDE0F50825
:104A4300A3E0F509E4F50AF50BD083D08280148541
:104A53000A82850B83A3A37508F17509FF750AFF05
:104A6300750BFF0251C7850882850983E0640270D4
:104A7300139007DAE06401700B9007D9E0700579B1
:104A830000120C7EE50C2404FEE50D3400FF8E823B
:104A93008F83E0F9120B948E828F83E09004A7F04A
:104AA3007902FA75F005A4CAA8F028FB74A92AFABA
:104AB30074043BFB121F07AA0AAB0B0254BAEE6540
:104AC300087003EF65098E828F836003024CDDE07B
:104AD30024FE600A24FE7003024C1A0254B6EE242C
:104AE30015F582EF3400F583E0604C9007D5E0F8CC
:104AF300A3E0F9A3E0687003A3E069603A120BDC5A
:104B03008A088B098C0A8D0B750C0A750D00750EBE
:104B130000750F007808790C12156478081219D8FB
:104B23008E828F83A3A312162F1226717404121779
:104B33006FE960030254B6120BDC8A088B098C0AF6
:104B43008D0B750C03750D00750E00750F0078083D
:104B5300790C121564750CFF750DFF750EFF78083F
:104B6300790C1215C58E828F83A3A37808121620A1
:104B7300EE2415F582EF3400F583E0640170328E84
:104B8300828F83A3A3C082C0839007D7E0F508A3D5
:104B9300E0F509E4F50AD083D0827808121577EEA0
:104BA300240EF582EF3400F58378081216200254A0
:104BB300B6EE240EF582EF3400F5831219EF8E82E0
:104BC3008F83A3A312162F122671740412176FE991
:104BD300640160030254B68E828F83A3A3C082C094
:104BE300839007D7E0F508A3E0F509E4F50AD0833D
:104BF300D0827808121577EE240EF582EF3400F593
:104C03008378081216209007DDE06427700474256A
:104C13008002E0040254B59007EBE0F8A3E0F9A3A7
:104C2300E0687003A3E0696037120BDC8A088B0924
:104C33008C0A8D0B750C0A750D00750E00750F002F
:104C43007808790C12156478081219D88E828F832C
:104C5300A3A312162F122671740412176FE970772B
:104C6300EE2402F508EF3400F509120BDC8A0C8BF5
:104C73000D8C0E8D0F7510037511007512007513D1
:104C830000780C79101215647510FF7511FF7512F9
:104C9300FF780C79101215C5850882850983780C75
:104CA300121620850882850983C082C0839007ED90
:104CB300E0F508A3E0F509E4F50AF50BD083D0820B
:104CC3007808121577EE240EF582EF3400F5837819
:104CD300081216201209D20254B6E024FE600A24F8
:104CE300FE7003024DCD0254BD1209C69007DAE0EF
:104CF300640170169007D9E070107901120C7E12CE
:104D03000C4E120C787900120C849007D5E0F8A3AE
:104D1300E0F9A3E0687003A3E0696037120BDC8A53
:104D2300088B098C0A8D0B750C0A750D00750E0026
:104D3300750F007808790C12156478081219D88E4B
:104D4300828F83A3A312162F122671740412176F76
:104D5300E97074EE2402F508EF3400F509120BDC58
:104D63008A0C8B0D8C0E8D0F751003751100751247
:104D730000751300780C79101215647510FF751106
:104D8300FF7512FF780C79101215C5850882850905
:104D930083780C121620850882850983C082C0831C
:104DA3009007D7E0F508A3E0F509E4F50AF50BD081
:104DB30083D0827808121577EE240EF582EF340043
:104DC300F58378081216200253DE9007F1E0F912FA
:104DD30009CC850882850983E06402701E9007DA96
:104DE300E0640170169007D9E070107900120C7E10
:104DF300120C4E120C787901120C849007EBE0F838
:104E0300A3E0F9A3E0687003A3E0696037120BDC49
:104E13008A088B098C0A8D0B750C0A750D00750EAB
:104E230000750F007808790C12156478081219D8E8
:104E33008E828F83A3A312162F1226717404121766
:104E43006FE97079EE2402F8EF3400F988088909D4
:104E5300120BDC8A0C8B0D8C0E8D0F7510037511E4
:104E630000751200751300780C7910121564751013
:104E7300FF7511FF7512FF780C79101215C585089F
:104E830082850983780C121620850882850983C0E0
:104E930082C0839007EDE0F508A3E0F509E4F50A85
:104EA300F50BD083D0827808121577EE240EF582A5
:104EB300EF3400F58378081216201209D20254B099
:104EC3009004A6E070030252D4120A50E9F875F078
:104ED30005A4C8AAF02AF974A928F510740439F5B1
:104EE30011851082F583E0F508A3E0F5099004A786
:104EF300E0F875F005A4C8AAF02AF974A928F50CFE
:104F0300740439F50D90084DE0540770030251E223
:104F1300A3E0F9120B5E8A0A8B0BAE0AAF0BAC0847
:104F2300AD09120B58E9F50E7402650E70030251B8
:104F3300E2850C82850D83A3A3A3A3E0F875F08A11
:104F4300A4C8AAF02AF974B128F50A740839F50B34
:104F5300AA0AFB120B88AA0AAB0B120B82751280EA
:104F630075130078121219DC7C007D60E50A2406B3
:104F7300FAE50B3401FB120AC8740212176FA80A70
:104F8300A90B906195E0C0E0E82486F582E934013D
:104F9300F583D0E0F0906196E0C0E0E82487F582E5
:104FA300E93401F583D0E0F0906197E0C0E0E824B4
:104FB30088F582E93401F583D0E0F0906198E0C090
:104FC300E0E82489F582E93401F583D0E0F08E82AC
:104FD3008F83E024FE600A24FE70030250ED025129
:104FE300E21209C69007DAE0640170119007D9E074
:104FF300700B120C4E120C787900120C84E50E60C3
:10500300129007D5E0F8A3E0F9A3E0687003A3E0EA
:10501300697036120BDC8A0C8B0D8C0E8D0F75109C
:1050230003751100751200780C7910121564751050
:10503300FF7511FF7512FF780C79101215C58E825A
:105043008F83A3A3780C121620850882850983A376
:10505300A3750CF1750DFF750EFF750FFF780C121C
:105063001577780C1219D88E828F83A3A3C082C0C0
:10507300839007D7E0F50CA3E0F50DE4F50EF50FEB
:10508300D083D082780C121577AA0CAB0DAC0EAD81
:105093000F122671740412176FE9701F8E828F83AB
:1050A300A3A3C082C0839007D7E0F508A3E0F50966
:1050B300E4F50AF50BD083D0828014850882850934
:1050C30083A3A37508F17509FF750AFF750BFF78B4
:1050D30008121577750CFF750DFF750EFF750F0020
:1050E3007808790C1215C50253CF9007F1E0F91235
:1050F30009CCE50E60129007EBE0F8A3E0F9A3E01A
:10510300687003A3E0697036120BDC8A0C8B0D8C7C
:105113000E8D0F751003751100751200780C791040
:105123001215647510FF7511FF7512FF780C791055
:105133001215C58E828F83A3A3780C1216208508BF
:1051430082850983A3A3750CF1750DFF750EFF7599
:105153000FFF780C121577780C1219D88E828F8373
:10516300A3A3C082C0839007EDE0F50CA3E0F50D87
:10517300E4F50EF50FD083D082780C121577AA0CC4
:10518300AB0DAC0EAD0F122671740412176FE970DC
:105193001F8E828F83A3A3C082C0839007EDE0F5A7
:1051A30008A3E0F509E4F50AF50BD083D082801457
:1051B300850882850983A3A37508F17509FF750A1C
:1051C300FF750BFF7808121577750CFF750DFF75CA
:1051D3000EFF750F007808790C1215C502549EE571
:1051E30010650C7004E511650D70030252B2850C55
:1051F30082850D83A3A3A3E07003025296850C82DC
:10520300850D83A3A3A3A3E0F875F08AA4C8AAF02D
:105213002AF974B128FE740839FFEEFAEFFB120B7A
:1052230088EEFAEFFB120B82750A80750B00780A81
:105233001219DC7C007D60EE2406FAEF3401FB12C8
:105243000AC8740212176F906195E0C0E0EE2486DD
:10525300F582EF3401F583D0E0F0906196E0C0E091
:10526300EE2487F582EF3401F583D0E0F090619767
:10527300E0C0E0EE2488F582EF3401F583D0E0F05E
:10528300906198E0C0E0EE2489F582EF3401F58364
:10529300D0E0F0E5102404FEE5113400FF8E828F88
:1052A30083E0F9120B948E828F83E09004A7F07948
:1052B300029004A7E0FA75F005A4CAA8F028FB74CD
:1052C300A92AFA74043BFB121F07AA08AB0902546C
:1052D300BA90084DE0540770030254BDA3E0F912DD
:1052E3000B5E8A088B09AE08AF098E828F83E02498
:1052F300FE600A24FE70030253E60254BD1209C67F
:105303009007DAE0640170169007D9E07010790114
:10531300120C7E120C4E120C787900120C8490073A
:10532300D5E0F8A3E0F9A3E0687003A3E069603770
:10533300120BDC8A088B098C0A8D0B750C0A750D10
:1053430000750E00750F007808790C121564780843
:105353001219D88E828F83A3A312162F122671746B
:105363000412176FE97074EE2402F508EF3400F5A8
:1053730009120BDC8A0C8B0D8C0E8D0F75100375C7
:105383001100751200751300780C791012156475ED
:1053930010FF7511FF7512FF780C79101215C58572
:1053A3000882850983780C12162085088285098373
:1053B300C082C0839007D7E0F508A3E0F509E4F5C0
:1053C3000AF50BD083D0827808121577EE240EF5F8
:1053D30082EF3400F583780812162090084E740289
:1053E3000254B59007F1E0F91209CC9007EBE0F80D
:1053F300A3E0F9A3E0687003A3E0696037120BDC54
:105403008A088B098C0A8D0B750C0A750D00750EB5
:1054130000750F007808790C12156478081219D8F2
:105423008E828F83A3A312162F1226717404121770
:105433006FE97076EE2402F8EF3400F988088909E1
:10544300120BDC8A0C8B0D8C0E8D0F7510037511EE
:1054530000751200751300780C791012156475101D
:10546300FF7511FF7512FF780C79101215C58508A9
:1054730082850983780C121620850882850983C0EA
:1054830082C0839007EDE0F508A3E0F509E4F50A8F
:10549300F50BD083D0827808121577EE240EF582AF
:1054A300EF3400F58378081216201209D290084EC3
:1054B3007404F0EEFAEFFB120B527F0C02189B748C
:1054C300F01217C9EAFEEBFFEE2402F8EF3400F9FD
:1054D30088088909EE2406F8EF3400F9880A890B55
:1054E3008882F5831219F385088285098312162FA2
:1054F300120BB8740212176F850A82850B83121977
:10550300F385088285098312162F120BAC740212DD
:10551300176FEE240EF582EF3400F58312162F1267
:105523000BBE8E828F83E06440701CEE2412F8EF72
:105533003400F988828983E0906064F088828983EB
:10554300A3E09060658006906064E4F0A3F09008A7
:105553004FEEF0A3EFF0EE2416F582EF3400F5835F
:10556300E0F8A3E0F58388821217C7906054E4F053
:10557300A3F0A3F0A3F0A3F0A3F0A3F0A3F0A3F090
:10558300A3F0A3F0A3F0906182E0C2E6F07591BFAF
:10559300EE2415F582EF3400F583E0640170031205
:1055A3000BF4E5E170FCEE2414F582EF3400F5838F
:1055B300E0F46003E0F5E1EE2415F582EF3400F545
:1055C300837401F090047FE064017073120BDC8A32
:1055D300088B098C0A8D0B78081219D88E828F8359
:1055E300A3A312162F1226CA740412176F8A088BEC
:1055F300098C0A8D0B750C05750D00750E00750F62
:10560300007808790C12143D7403780812152CE500
:105613000824F4F508E5093401F5099007F7E0607B
:1056230003121260E4F50AF50B78081219D87A20F0
:105633007B00900478E0F9121320740412176F7F33
:105643000802189B74EA1217C9EAFEEBFF8C148D4B
:1056530015EE4F7003025763120BDC8A088B098C1B
:105663000A8D0B750C01750D00750E00750F007812
:1056730008790C121564750CFF750DFF750EFF7814
:1056830008790C1215C58E828F83E0640270149022
:1056930007D5E0F8A3E0F9A3E0687003A3E069701D
:1056A300248017E06404701D9007EBE0F8A3E0F991
:1056B300A3E0687003A3E069700B8E828F83A3A3BA
:1056C300780812162075101A7511007512007513DB
:1056D3000078081219D8851482851583A3A312169E
:1056E3002F1226CA740412176F8A0C8B0D8C0E8D21
:1056F3000F7810790C1213FE40668514828515838A
:10570300A3A3750CE7750DFF750EFF750FFF780CDE
:10571300121577780C1219D88E828F83A3A31216D1
:105723002F122671740412176FE97034750C077504
:105733000D00750E00750F007808790C121564784A
:10574300081219D88E828F83A3A312162F122671E3
:10575300740412176FE970047900800679018002DE
:1057630079027F0E02189B74F01217C9890874FF1F
:10577300650860030258F890084DE054077003026F
:105783005DD47A00784C790888828983A3A3A3A384
:10579300A3E06404703FEA75F018A4F8A9F074520A
:1057A30028F582740839F583E0640170377A00784C
:1057B3004C790888828983A3A3A3A3A3E06404602C
:1057C3000302584D88828983A3A3A3A3A3A3E06400
:1057D30001707780630AE82418F8E93400F9EAC312
:1057E300940440A47A00784C790888828983A3A31F
:1057F300A3A3A3E064017067EA75F018A4F8A9F005
:10580300745228F582740839F583E0640170627A72
:1058130000784C790888828983A3A3A3A3A3E064B7
:105823000160030258D488828983A3A3A3A3A3A3FB
:10583300E0640160030258D4EA75F018A4F8A9F0F3
:10584300745128FA740839025DD10AE82418F8E97A
:105853003400F9EAC3940450030257B6025DD40A34
:10586300E82418F8E93400F9EAC394045003025712
:10587300ED7A00784C790888828983A3A3A3A3A334
:10588300E064027061EA75F018A4F8A9F074522874
:10589300F582740839F583E0640170597A00784C15
:1058A300790888828983A3A3A3A3A3E06402707AFF
:1058B30088828983A3A3A3A3A3A3E06401706BEAF3
:1058C30075F018A4F8A9F0745128FA740839FB800C
:1058D3006F0AE82418F8E93400F9EAC39404500382
:1058E300025818025DD40AE82418F8E93400F9EAEA
:1058F300C3940440827A00784C790888828983A310
:10590300A3A3A3A3E06508703A88828983A3A3A312
:10591300A3A3A3E06401702BEA75F018A4F8A9F01F
:10592300745128FE740839FF802C0AE82418F8E91A
:105933003400F9EAC3940450030258A57A007B00AB
:10594300025DD80AE82418F8E93400F9EAC394049C
:1059530040A97E007F007A00784C79088882898389
:10596300A3A3A3A3A3E06508701BEA75F018A4F82A
:10597300A9F0745228F582740839F583E064017044
:10598300137A0180110AE82418F8E93400F9EAC30C
:10599300940440C87A00E508146010147003025B95
:1059A3000F24FE7003025C22025DD47B00784C79E5
:1059B3000888828983A3A3A3A3A3E064027052EBA4
:1059C30075F018A4F8A9F0745228F582740839F513
:1059D30083E06401704A7B00784C7908888289836C
:1059E300A3A3A3A3A3E064026003025A7D88828970
:1059F30083A3A3A3A3A3A3E06401707EEB75F018B4
:105A0300A4F8A9F0745128F50A740839F50B025A61
:105A1300950BE82418F8E93400F9EBC3940440919A
:105A23007B00784C790888828983A3A3A3A3A3E08E
:105A330064046003025AD6EB75F018A4F8A9F07455
:105A43005228F582740839F583E064016003025A31
:105A5300E87B00784C790888828983A3A3A3A3A356
:105A6300E064046003025AF388828983A3A3A3A397
:105A7300A3A3E064017079025C760BE82418F8E9CB
:105A83003400F9EBC3940450030259DF750A00751F
:105A93000B00EAA2E05035850A82850B83A3A37528
:105AA3000CF6750DFF750EFF750FFF780C12157749
:105AB300780C1219D88E828F83A3A312162F122665
:105AC30071740412176FE97003025DCEAA0AAB0B5F
:105AD300025DD80BE82418F8E93400F9EBC3940409
:105AE3005003025A29EAA2E0501BEEFAEFFB801999
:105AF3000BE82418F8E93400F9EBC39404500302CB
:105B03005A5A025D1B7A007B00025DD87B00784CF9
:105B1300790888828983A3A3A3A3A3E064047040C4
:105B2300EB75F018A4F8A9F0745228F582740839BB
