:020000040000FA
:0600000002010A021FF8D4
:03002B0002227A34
:0300330002225C4A
:03003B0002229B03
:0300430002221086
:0300530002206E1A
:03006B0002223638
:10008300021EA7E5C754F84401F5C7790122000011
:100093000080FB120086B900030200F4E4791A78A9
:1000A30002B800028004F709D8FCE4791C7802B88E
:1000B30000028004F709D8FCE490028178437910A8
:1000C3008002F0A3D8FCD9FA9011C3AA82AB839023
:1000D300013A78DC79018015E493A3AC82AD838A7D
:1000E300828B83F0A3AA82AB838C828D83D8E9D9D8
:1000F300E77582F07583C3740312011C75829175D1
:100103008300740012011C75D00075813F7518813E
:10011300751902759F00020096C09FF59FE473D086
:100123009F22D083D082C09FE493C0E0740193C028
:10013300E0740293F59F2289039B03C5038F03FF9A
:100143000000B4000028002800283075A000A0009B
:10015300A000A00000080008E001F000100010005B
:10016300100010001000100050005000500010004C
:100173001000D0070000000000000F000100050080
:10018300307507001000010081FF00000000FF022E
:1001930002028E900100007F900292900100001BEA
:1001A30012028490010000B2020292900100001C2E
:1001B30012028290010000C802FFFF0100FF20022B
:1001C3008E900100007C900292900100004A12027E
:1001D30088900000000000028690030000A5036FD2
:1001E3000B6F0B6F0B6F0B6F0B6F0B6F0B6F0B6F3C
:1001F3000B6F0B6F0B6F0B6F0B850DA30D7F0DFF3C
:10020300FF01E803053F10020AFF009A10FEFF22D8
:1002130000011201252EB90312012544B90312016D
:100223002573B903120125A9B903120125C0B90326
:10023300120125F7B9031201254ABA0312012561F8
:10024300BA0312012527B1031201253EB10312019E
:10025300256FB103120125AAB103120125D4B103FD
:10026300120125FEB10312012515B2031201252C3B
:10027300B20312012543B2031201256CB20312012A
:10028300257FB20312012595B203120125BFB203E4
:100293001201250080021201250481021201253179
:1002A3008102120125878102120125AA810212010E
:1002B30025BE8102120125C08102120125E38102BC
:1002C300120125F28202120125B683021201258B47
:1002D3008402120125FC8402120125888502120181
:1002E300258B85021201251386021201254E8602F3
:1002F300120125B58602120125EC86021201257A28
:100303008702120125048802120125538802120173
:1003130025608802120125638802120125C3880221
:10032300120125CE88021201254D890212012550A2
:1003330089021201256389021201256689021201CD
:1003430025F589021201250F8A021201251F8A024F
:100353001201254F8A021201255C8A021201255FD0
:100363008A02120125E08A02120125CE8B021201B4
:1003730025808C02120125B8AE02120125B5AF0209
:1003830012012537B00212012557B0021201259F31
:10039300B002120125F2B00212012556B102120178
:1003A30025E3B1021201259DB202120125ACB5026B
:1003B30012012537B7021201255AB70212012596F9
:1003C3009503120125339703120125979703120111
:1003D30025F697031201250498031201252D98038E
:1003E30012012597ED02120125BFED02120125ED41
:1003F300ED0212012524EE0212012582EE02120102
:1004030025CDEE0212012518EF0212012558EF0245
:100413001201259EEF02120125CCEF02120125895C
:10042300F00212012593F002120125A0F00212013D
:1004330025D3F0021201259FF102120125ABF1022F
:10044300120125C3F102120125CDF1021201254B40
:10045300F202120125DFBE03120125EDBE031201D4
:100463002505BF031201251DBF0312012535BF0357
:1004730012012510D501120125BCD5011201253722
:10048300D60112012558D70112012594D701120173
:10049300253DD80112012524D90112012588DA014D
:1004A300120125DFDA0112012560DB01120125505B
:1004B300DC011201259DDC0112012523DD0112015E
:1004C3002555DD0112012569DF01120125ABDF018D
:1004D300120125C9DF011201256BE0011201253349
:1004E300E10112012540E3011201254199031201A3
:1004F300255799031201257D9903120125999A0322
:10050300120125A39A03120125D89B03120125D0BA
:100513009C03120125C2840312012566850312017F
:1005230025998503120125E38503120125A6870377
:1005330012012544A401120125BDA401120125CDF8
:10054300A401120125BBA501120125D5A5011201A4
:100553002534A6011201253FA60112012529A70171
:10056300120125DFA701120125C6A9011201257F6A
:10057300AB011201255BAC011201250FAD01120184
:10058300254CB001120125FAB00112012569B2010F
:10059300120125E9B30112012590B401120125D9F5
:1005A300B40112012510B501120125ADB5011201E7
:1005B3002538B60112012515B7011201256AB701C5
:1005C300120125C9B801120125D9B8011201250666
:1005D300B9011201255DB90112012506BA01120103
:1005E300250DBB01120125D7BB0112012537BD0122
:1005F3001201257ABD011201251FBE0112012545F5
:10060300BE0112012553C00112012558C001120178
:10061300255DC201120125AAC2011201251DC301D4
:1006230012012550C301120125F2C3011201259BBA
:10063300C401120125D3C401120125D6C40112013C
:10064300251EC50112012560C501120125B7C5018B
:10065300120125E8A603120125FBA60312012509B1
:10066300A70312012551A70312012567A70312014E
:1006730025AEA703120125C2A8031201254FA90322
:100683001201259AA9031201251023001201252026
:100693002300120125832300120125C82300120120
:1006A300257E2400120125592500120125822500EB
:1006B300120125B22500120125F22700120125D9C6
:1006C3002900120125B12B00120125F52C0012017E
:1006D300255C2F001201256A3000120125BC310070
:1006E300120125C6320012012508330012012540EC
:1006F3003300120125623300120125C533001201B4
:10070300258738001201251C390012012570390094
:10071300120125973900120125D53900120125F45C
:1007230039001201254E3A001201254E3B001201F9
:1007330025D33B00120125C3E702120125CDE702B1
:1007430012012575E802120125B8E802120125D32A
:10075300E80212012563E9021201258BE902120165
:1007630025C3E902120125FAE90212012523EA024F
:100773001201255DEA0212012572EA021201253FE8
:10078300EB0212012562EB0212012584EB02120136
:100793002599EB021201251FEC0212012559EC02E7
:1007A300120125D1EC021201251AED021201254492
:1007B300ED021201256FED02120125CBBB031201DD
:1007C3002559E30112012587E301120125E2E40122
:1007D300120125C2E501120125E1E5011201255EA1
:1007E300E601120125A1E6011201251CE80112010F
:1007F300258BE801120125B6EA011201253AED0124
:10080300120125EBED01120125E1EE011201258113
:10081300EF011201257FF0011201250AF1011201F6
:100823002578BA03120125E1BA0312012535BB036A
:1008330012012564BB0312012585BB031201254365
:100843008903120125B08903120125F789031201D7
:10085300250F8B031201250B8C03120125EE8C034C
:1008630012012536DA0212012578DA021201255126
:10087300DB021201254BDC021201252DDD021201E0
:100883002596DD02120125B2DE021201251EDF02CA
:1008930012012521DF021201254ADF02120125C4BC
:1008A300DF0212012569E0021201257EE002120136
:1008B30025C4E002120125DDE002120125E0E00279
:1008C300120125DA9C03120125169D0312012554FA
:1008D3009D031201251E9E031201258D9E03120105
:1008E30025C89E03120125069F03120125369F0387
:1008F3001201255D9F03120125CB9F031201250DD4
:10090300A003120125C16A00120125846C001201A3
:10091300254F6E001201258B6E00120125B86E0063
:100923001201257A6F00120125C16F0012012505FE
:100933007000120125177000120125577000120173
:1009430025847000120125D270001201250C71005C
:100953001201252F71001201258171001201250F4B
:100963007200120125E57200120125CF73001201F6
:10097300259E75001201259F7A00120125EE7A004B
:10098300120125357B00120125687D001201259097
:10099300AC0312012502AD0312012558AD03120168
:1009A300259CAD03120125BCAD0312012509AE033D
:1009B30012012551AE03120125A4AE03120125F540
:1009C300AE031201253A3C00120125833C001201BB
:1009D30025B03C00120125E33C00120125F33C0045
:1009E300120125FF3C00120125103D00120125F7DD
:1009F3003D00120125553E001201258A3E001201D9
:100A030025CD3F001201251F40001201256F400034
:100A1300120125C24000120125C141001201253CEB
:100A2300430012012513440012012523440012013F
:100A330025454400120125484400120125164500AE
:100A4300120125E74500120125B646001201250AC9
:100A530047001201256A4700120125CE4700120103
:100A6300257F48001201254A4900120125EC49005F
:100A7300120125614A00120125CD4A0012012522E7
:100A83004B00120125534B00120125EE4B001201BE
:100A930025D24D00120125214E00120125644E007E
:100AA300120125E64E00120125844F00120125CBC9
:100AB3004F00120125EF4F0012012536500012019D
:100AC30025645000120125AC500012012526510067
:100AD3001201256A510012012577520012012526C1
:100AE3005300120125875300120125E3530012011D
:100AF30025FC530012012585B802120125D8B8023E
:100B0300120125E4B802120125B9B902120125E048
:100B1300B9021201251BBA0212012587BA0212017A
:100B230025C3BA02120125FCBA0212012514BB0225
:100B330012012569BB0212012582BB02120125CBDA
:100B4300BB02120125DEBB02120125F8BB02120112
:100B5300250EBC0212012541BD0212012588BE02E9
:100B63001201258ABF0212012584C0021201250544
:100B73002300120125D3F20212012542F6021201CB
:100B8300257BF702120125F18C02120125678F02E2
:100B93001201256D8F02120125D591021201253C08
:100BA3009402120125C6F7021201255CF802120114
:100BB3002513F9021201253DF90212012530FB022A
:100BC30012012558FC02120125A09001120125D41F
:100BD3009001120125C19A01120125159C011201F0
:100BE30025209D01120125A09E01120125819F014F
:100BF300120125BB9F01120125DE9F011201252051
:100C0300A0011201256AA00112012574A00112019D
:100C1300251EA101120125F7A1011201254BA201F5
:100C2300120125ADA20112012500A3011201252FF6
:100C3300A3011201256CA301120125BFA303120115
:100C43002535A4031201254BA4031201258CA4030B
:100C5300120125C6A4031201253FA5031201257A1B
:100C6300A503120125EDA5031201252BA6031201ED
:100C73002534A60312012540A6031201255CA60311
:100C830012012587A603120125B8A6031201250424
:100C9300E10212012517E10212012531E1021201DD
:100CA300255AE1021201259DE102120125DCE10230
:100CB3001201251AE2021201257FE2021201259494
:100CC300E202120125ABE202120125B9E20212018E
:100CD30025C8E202120125DDE202120125F2E20239
:100CE300120125FDE20212012509E3021201251674
:100CF300E30212012529E30212012534E302120162
:100D03002559E30212012500E40212012515E4022C
:100D13001201252AE40212012544E4021201255F8F
:100D2300E4021201257CE40212012587E402120188
:100D33002543E5021201252FE60212012554E6029E
:100D43001201255FE60212012574E60212012588CD
:100D5300E602120125E9E602120125EFE60212017D
:100D630025F5E602120125FBE60212012513E7022F
:100D730012012546E70212012562A402120125840D
:100D8300A40212012564A5021201253BA802120147
:100D93002567A9021201258BAA021201253DAB0288
:100DA300120125DEAB0212012590F1011201251477
:100DB300F201120125C3F20112012522F4011201ED
:100DC3002543F6011201252FF70112012564F701CE
:100DD30012012586F70112012535F8011201252D8F
:100DE300FA0112012556FA01120125E8FA0112014E
:100DF300251AFB0112012527FB011201257EFB01A8
:100E0300120125A4FB0112012511FE011201251473
:100E1300FF011201256CFF01120125A4C601120175
:100E230025AEC70112012595C8011201259FC801EE
:100E3300120125C1C801120125CDC8011201256681
:100E4300CA0112012595CA01120125B1CB01120174
:100E5300250ACC0112012570CD011201254FCE01C7
:100E6300120125ABCE0112012518CF011201255322
:100E7300CF0112012592CF011201254BD20112019C
:100E83002565D201120125F1D201120125FFD201FC
:100E930012012558D30112012566D301120125D968
:100EA300D3011201253DD40112012587D40112017A
:100EB30025D1B203120125F6B20312012568B3034B
:100EC300120125EAD202120125F3D202120125FCF6
:100ED300D202120125D3D30212012584D5021201B5
:100EE30025BAD502120125F4D5021201252AD6020C
:100EF30012012564D60212012598D602120125C4D7
:100F0300D6021201250DD70212012547D70212017D
:100F13002590D702120125E8D7021201251DD80218
:100F230012012578D802120125B2D8021201250335
:100F3300D90212012539D90212012573D9021201EE
:100F43002596D90212012570C1031201259CC10304
:100F5300120125F7C10312012501C2031201251154
:100F6300C2031201254FC20212012559C202120106
:100F73002597C202120125E0C2021201251AC302FB
:100F830012012574C30212012595C3021201256DB6
:100F9300C60212012576C602120125C3C60212013A
:100FA30025ECC602120125F6C60212012562C7020C
:100FB300120125F4C7021201253EC802120125744D
:100FC300C80212012500C90212012541C9021201FA
:100FD3002578C9021201258AC902120125A9C9026D
:100FE300120125B2C9021201257ACA02120125E8AB
:100FF300BD0312012536AF031201256CAF031201A5
:1010030025A2AF03120125EDB00312012527C30367
:101013001201253DC30312012547C303120125B065
:101023008D03120125C58D03120125788E0312014C
:1010330025B88E03120125D18E031201250C8F03CF
:10104300120125598F031201258B8F03120125CD20
:101053008F03120125D8910312012591C3031201B5
:101063002518B60312012541B60312012570B603F4
:1010730012012508B70312012520B70312012562C7
:10108300B7031201250080031201254280031201D8
:1010930025CB80031201251C8103120125618103E5
:1010A300120125BC81031201250B82031201256164
:1010B30082031201255683031201254D8403120175
:1010C300258A8403120125B8C2031201252E540078
:1010D300120125AF5600120125495800120125FDC2
:1010E3005800120125905900120125155A001201CA
:1010F300253A5A001201258C5A00120125415E003F
:10110300120125C75E00120125FA5F001201253482
:101113006000120125696000120125266200120198
:10112300255A6200120125B76200120125006300EF
:10113300120125676300120125E063001201250FE8
:101143006400120125276400120125706500120155
:10115300258065001201259E6600120125C06600E8
:10116300120125F66600120125A568001201253239
:1011730069001201257169001201258A6A001201B2
:1011830025BAC003120125CBC00312012543C403B2
:1011930012012582C403120125FEC4031201251B7B
:1011A300C2031201252BC20312012546C2031201F9
:1011B30025AEC203120125E4BC0312012569BD0358
:1011C300120125CFBD03120125A7B703120125D0B4
:1011D300B7031201253BB8031201258CB803120192
:1011E30025E7B80312012555A0031201256AA003C0
:1011F300120125AEA1031201252AA2031201259E85
:10120300A203120125B8A203120125CFA2031201E2
:1012130025E2A203120125FCA20312012513A30355
:1012230012012539A3031201258AA303120125E51F
:101233009103120125FC91031201257692031201F9
:10124300255A93031201253195031201258FFC02C0
:101253001201251FFD02120125ABFD0212012544D7
:10126300FE02120125D5FE02120125DEFE02120145
:10127300255CFF021201256FFF0212012585FF0283
:10128300120125E5FF02120125F8FF021201256D67
:101293007F00120125DD7F00120125ED7F00120181
:1012A3002576B403120125C8B40312012552B503F0
:1012B300120125B9B503120125C4A903120125EEB4
:1012C300A903120125BCAA0312012597AB0312013E
:1012D300251EAC03120125A8CA021201256FCB02F9
:1012E300120125A6CB02120125D0CB021201253013
:1012F300CC0212012586CC02120125EBCC0212018D
:101303002583CD0212012592CE0212012529D00296
:10131300120125B6D0021201251DD1021201253476
:10132300D1021201254ED2021201258CD2021201E2
:1013330025CEBF03120125C69802120125D09902BA
:10134300120125939B02120125289C021201252CD0
:101353009D021201254F9D0212012585A002120153
:1013630025D7A00212012575A1021201259AA20216
:101373001201253FA302120125C0A3021201258CED
:10138300C403120125BAFF01120125B8C4031201D7
:1013930025E0C403E066701008A3E066700A08A3A2
:1013A300E066700408A3E06622C3E7960809E7969F
:1013B3000809E7960809E79622C3E09608A3E09692
:1013C30008A3E09608A3E09622C008C3E096F508B8
:1013D30008A3E096420808A3E096420808A3E09613
:1013E30045087001D3D00822080808EAC0E0EBC022
:1013F300E086F0E7A4FA180986F0E7A42AFA1809A8
:1014030086F0E7A42AFA180986F0E7A42AFA1986CF
:10141300F0E7A4FBE5F02AFA190886F0E7A42BFB12
:10142300E5F03AFA190886F0E7A42BFBE5F03AFA5F
:1014330018180986F0E7A4C5F02BFBE43AFA19085B
:10144300E7C5F0C6A426F6E5F03BFBE43AFA1886B6
:10145300F0E7A4F6E5F00826F6E43B08F6E43A08DC
:10146300F6D0E0FBD0E0FA22E4CFC0E0E4CEC0E067
:10147300E4CDC0E0E4CCC0E075F020C3E633F60869
:10148300E633F608E633F608E633F6181818EC33B5
:10149300FCED33FDEE33FEEF33FFC3EC9709ED971D
:1014A30009EE9709EF97191919400FFFEC97FC09FB
:1014B300ED97FD09EE97FE191906D5F0BEECF70975
:1014C300EDF709EEF709EFF7191919D0E0FCD0E0B1
:1014D300FDD0E0FED0E0FF226016080808C6C31363
:1014E300C618C613C618C613C618C613C6D5E0EA6F
:1014F300227009080808226016181818C6C333C6D4
:1015030008C633C608C633C608C633C6D5E0EA22C2
:10151300E627F60809E637F60809E637F60809E686
:1015230037F622E026F608A3E036F608A3E036F6FF
:1015330008A3E036F622E026F008A3E036F008A37D
:10154300E036F008A3E036F022C3E697F60809E692
:1015530097F60809E697F60809E697F622C3E09698
:10156300F008A3E096F008A3E096F008A3E096F055
:1015730022E657F60809E657F60809E657F608097A
:10158300E657F622E056F608A3E056F608A3E0561F
:10159300F608A3E056F622E056F008A3E056F0085A
:1015A300A3E056F008A3E056F022E066F608A3E0B5
:1015B30066F608A3E066F608A3E066F622E0F608FE
:1015C300A3E0F608A3E0F608A3E0F622E6F008A3FA
:1015D300E6F008A3E6F008A3E6F022E0FAA3E0FBB6
:1015E300A3E0FCA3E0FD22EAF0A3EBF0A3ECF0A35D
:1015F300EDF022CAC0E0E6F0A308DAFAD0E0FA225E
:10160300CAC0E0E0A3C582CCC582C583CDC583F043
:10161300A3C582CCC582C583CDC583DAE6D0E0CA33
:1016230022C3E498F8E499F91216658026C3E49A74
:10163300FAE49BFBE920E7E9121665E498F8E499DC
:10164300F922C3E498F8E499F9121665E498F8E4EA
:1016530099F9C3E49AFAE49BFB22EB20E7CFE92054
:10166300E7E0B90010BB0008E88AF084F8AAF0228A
:10167300E4FBC8FA22EB70227B10C833C8C933C914
:10168300335007C39AC3DBF280069A50012ADBEA80
:10169300C833F4C8C933F4C9FA2275F008E4C8336F
:1016A300C8C933C933C99AC99B5004C92AC93BD590
:1016B300F0ECFBC833F4C8E4C9FA22600D08C6A2F3
:1016C300E713C618C613C6D5E0F322600C08C6C3D9
:1016D30013C618C613C6D5E0F422700422600D1891
:1016E300C6C333C608C633C6D5E0F418222518107E
:1016F300AF08F518400215198008F51840021519AE
:10170300D2AF22C0D0251810AF08F5185002051922
:101713008008F51850020519D2AFD0D0222518F54C
:101723008210AF08F518400215198008F518400219
:101733001519D2AF851983222518F582E43519F5D9
:101743008322E4732518C582C0E0E51934FFC583FD
:10175300C0E0E518C3958224F810AF088583198586
:1017630082188008858319858218D2AFCEF0A3E54D
:1017730020F0A37808E608F0A3DEFAEFF0A3E581F2
:1017830024FAF8E608F0A3E608F0A3E608F0A308B5
:1017930008E608F0A3E608F0A315811581D0E0FE62
:1017A300D0E0F8158115811581E8C0E0EEC0E02294
:1017B3002518C582C0E0E51934FFC583C0E0E518EC
:1017C300C3958224F910AF08858319858218800890
:1017D300858319858218D2AFCEF0A3E520F0A378D4
:1017E30008E608F0A3DEFAEFF0A3E58124FBF8E6B0
:1017F30008F0A3E608F0A30808E608F0A3E608F05B
:10180300A315811581D0E0FED0E0F815811581E89C
:10181300C0E0EEC0E022851983851882E0A3FEE0D4
:10182300A3F5207808E0A3F608DFFAE0A3FFE0A31E
:10183300C0E0E0A3C0E0E0A3C0E0E0A3C0E0E0A319
:10184300C0E010AF08858218858319800885821847
:10185300858319D2AFD083D0820201228519838573
:101863001882E0A3FEE0A3F5207808E0A3F608DFE2
:10187300FAE0A3FFE0A3C0E0E0A3C0E0E0A3C0E080
:10188300E0A3C0E010AF088582188583198008851E
:101893008218858319D2AFD083D08222C0D0251875
:1018A300C582C0E0E51934FFC583C0E0E518C395E0
:1018B3008224F310AF0885831985821880088583F5
:1018C30019858218D2AFC8F0A3E9F0A3EAF0A3EB1D
:1018D300F0A37908E709F0A3D8FAECF0A3EDF0A39D
:1018E300EEF0A3EFF0A3D0E0F0A3D0E0F0A3D0E0BC
:1018F300F0A3E520F0A3E5F0F0A322851983851872
:1019030082E0C0E0A3E0F9A3E0FAA3E0FBA3780838
:10191300E0F608A3DFFAE0FCA3E0FDA3E0FEA3E00A
:10192300FFA3E0C0E0A3E0C0E0A3E0F5D0A3E0F5AF
:1019330020A3E0A3F5F010AF0885831985821880F2
:1019430008858319858218D2AFD082D083D0E0F87E
:10195300D0E03274048006740280027401C0E0F4A3
:1019630004121720D0E01215F622740480047402C6
:101973008000CCC0E0EDC0E0E518C39CCCAD1950AD
:10198300011D10AF068C188D1980068C188D19D285
:10199300AF121603D0E0FDD0E0FC22D083D082E961
:1019A300C0E0E493A3C386F0C5F095F0F908E4938F
:1019B300A386F0C5F095F0700BE493A3C39940059B
:1019C300E9048002A3E475F002A42582F582E5F020
:1019D3003583F583D0E0F9E493A3C0E0E493C0E05A
:1019E30022D083D082ECC0E0EDC0E0E493A3FCE41A
:1019F30093A3FDED4C600D121A30EC24FFFCED3483
:101A0300FFFD80EFE493A3FCE493A3FDED4C600D95
:101A1300121A6FEC24FFFCED34FFFD80EFD0E0FDE4
:101A2300D0E0FCE493A3C0E0E493C0E022C0E0C3B1
:101A3300E49396087401939618400FE49366700834
:101A430008740193661870007019A3A3C3E49396F6
:101A5300087401939618A3A3400DD0E0D0E0D0E022
:101A6300021A20A3A3A3A3A3A3D0E022C0E0C0F043
:101A730088F0E4936670080874019366187000A8F0
:101A8300F0A3A3700BD0F0D0E0D0E0D0E0021A2096
:071A9300A3A3D0F0D0E02274
:101A9C0074F51217B3EAFEEBFFEE2434F8EF3400C2
:101AAC00F988088909EE2435121BC8F8EE24371280
:101ABC001BC8F50AEC850AF0A4FCAAF0850AF0ED27
:101ACC00A42AFDE82CF8E43DF97A257B0012166572
:101ADC00EA850882850983F074075AF87401B80006
:101AEC00028004C333D8FCFBEA131313541FF8EE23
:101AFC0028F8EF3400F9E8245DF582E9121BCB5B82
:101B0C006003EA801CEE2436121BC8F5F0EA84A8A8
:101B1C00F0EE28F8EF3400F9E82438F582E9121BCE
:101B2C00CBF97F0402185F74F51217B3EAFEEBFFD2
:101B3C00EE2434121BC8C0E0EE2435F582EF3400DD
:101B4C00F583D0E0F08E828F83A3A3A3A3A3E0FA46
:101B5C00A3E0FB8E828F83A3A3A3A3A3A3A3E0FC88
:101B6C00A3E0FDECC39AF50AED9BF50BEE247FF593
:101B7C0008EF3400F509850882F583E06401702BC9
:101B8C00EE2480F582EF3400F583121971121BD10B
:101B9C007402121706E960137CBF7D07EEFAEFFBA7
:101BAC00120A85850882850983E4F0AC0AAD0BEE38
:101BBC00FAEFFB121A9C1221FC021B2EF582EF3459
:101BCC0000F583E022C082C083851882851983E0EA
:101BDC00F8A3E0F9C3EA9CEB9D5010C3EC98ED9987
:101BEC00401BC3EA98EB995014800EC3EA98EB990A
:101BFC004007C3EC98ED994004790180027900D03C
:101C0C0083D0822274ED1217B3900479E0640860DB
:101C1C0005E06407702C9061C8E060269004A7E092
:101C2C00F874FF68601CE875F005A4C8AAF02AF9DE
:101C3C0074A928FE740439FF8E828F83A3A3A3E0BA
:101C4C0070057900021DB0EE2468F510EF3400F534
:101C5C0011906060E0851082851183F0750AFB7528
:101C6C000B07750800750900E5D914F50EE5D95474
:101C7C0003F50F601CEE2482F50CEF3400F50D74A7
:101C8C0003650F6058E50E6013EE2467121BC870D5
:101C9C000B793DEEFAEFFB120AAF80A69007F6E047
:101CAC0064016026850C82850D83E06004780480D5
:101CBC00027800850E08E508C398FA95E0FB120936
:101CCC00178A088B09EA45097006120D5B021C4E37
:101CDC00850C82850D83E070048A0A8B0B7800805A
:101CEC0016E5D9C0E08812E50A2512F582E50B3419
:101CFC0000F583D0E0F008E8C3950E40E4850C8233
:101D0C00850D83E0602874FC250EF50E780A1219F7
:101D1C005AAC0EA90FEEFAEFFB120B6974021217F4
:101D2C0006E9700AAA08AB091212A7021C9D7403DB
:101D3C00650F6058850E0C750D00780C12195AAC95
:101D4C000AAD0BAA08AB09120B2D740212170685EB
:101D5C001082851183E0F87480687005750C7F80A3
:101D6C0002880CE50CF50A780A12195EE50FF50AE3
:101D7C00780A12195EA90EAC08AD099004A7E0FA16
:101D8C007B001207BB74021217068013900479E0D3
:101D9C006408700BAC0AAD0BEEFAEFFB120B991248
:101DAC000D6779017F0C02185F74F31217B374FC82
:101DBC001216F0EAFEEBFF8908A2AFE433F509C274
:101DCC00AFEE2463F50AEF3400F50B8010AA0AABD2
:101DDC000B120AE51212A79007C6E004F0850A82DE
:101DEC00850B83E0F8A3E0F9E849602FE82402FAB8
:101DFC00E93400FBEA2402F50CEB3400F50D780C09
:101E0C0012195A8A828B83E0FCA3E0F9EEFAEFFBFD
:101E1C00120AD97402121706E960B29007C6E06084
:101E2C00579007C7E0F89007C6E0C398500C7402AF
:101E3C00650870449007C8E0603E8E828F83A3A330
:101E4C00A3A3E0851882851983121E9474021217BD
:101E5C003BE8121E949007C5E028F0740212173B61
:101E6C00AC82AD83851882851983AA82AB837901F4
:101E7C001207C79007C6E4F0E509A2E092AF74041C
:101E8C001217067F0602185FF0A3E4F09007C6E075
:101E9C00F8220000851A87851BC622C0E074EF1259
:101EAC00189FA2AFE433FEC2AF759B00906182E035
:101EBC00A2E05012E591A2E0500C7591FE74016500
:101ECC001A7003121C10E0A2E55051E591A2E550E6
:101EDC004B7591DF900479E064076005E06408704D
:101EEC00237401651A703579019004A7E0FA75F036
:101EFC0005A4CAA8F028FB74A92AFA74043BFB12A7
:101F0C001DB58018E0640D701390049BE004F06420
:101F1C00287002E4F07A00E0F9120D6D906182E015
:101F2C00A2E64003021FCEE591A2E64003021FCEBB
:101F3C007591BF900479E064057008120C6B120C5B
:101F4C00778003120C71751A00120CDDE990047A7B
:101F5C00F07900120CBF1209E97A017B0090047829
:101F6C00E0F9120FC5907803E0644270559007FABF
:101F7C00E014F0704DC2AF121F8600781DD0E0F651
:101F8C0018D0E0F6E59F540770057509FF800375BE
:101F9C00097FC4C0E0781CE6F50808E65509F50988
:101FAC00740B78081216CED0E02508F8906270E019
:101FBC00A2E740F8E8C333906272F0906270E0D20E
:101FCC00E0F0906181E0A2E35009E5E9A2E350035F
:101FDC0075E9F7A3E0A2E75009E591A2E750037574
:101FEC00917FEEA2E092AF7F040218FEC0E0C0D059
:101FFC00C082C083906183E0A2E05009E5BFA2E0FB
:10200C00500375BFFEE0A2E15009E5BFA2E1500309
:10201C0075BFFDE0A2E25009E5BFA2E2500375BF17
:10202C00FBE0A2E35009E5BFA2E3500375BFF7E064
:10203C00A2E45009E5BFA2E4500375BFEFE0A2E5AE
:10204C005009E5BFA2E5500375BFDFE0A2E65009D9
:10205C00E5BFA2E6500375BFBFD083D082D0D0D0ED
:10206C00E032C0E074F212189FE5A7A2E4500FE52D
:10207C00A1A2E4500953A7EF75A1EF1220C2E5A766
:10208C00A2E5500CE5A1A2E5500653A7DF75A1DF30
:10209C00E5A7A2E15009E5A1A2E1500375A1FDE578
:1020AC00A7A2E2500CE5A1A2E2500653A7FB75A132
:1020BC00FB7F010218FE74F81217B3751A01900415
:1020CC0079E0640670077A007B00120C53A2AFE42F
:1020DC0033FED2AF90047FE0640170187A207B004D
:1020EC00900478E0F91210437A207B00900478E099
:1020FC00F9120FCB906182E0D2E6F09007F7E06026
:10210C002185C61B801690047EE064017008E5C62C
:10211C0054F84405F5C653BEFC121EA07401651A92
:10212C0060E4EEA2E092AF7F0102185F74F1121727
:10213C00B38A088B098C0A8D0B90900478081215C1
:10214C0087740F12173B780C1215C0909004780C02
:10215C001215877808790C1213AC9090685010788F
:10216C0008790C12154C78081213CC4014800E7898
:10217C000C790812154C780C1213CC500479018090
:10218C000279007F0802185F74ED1217B38A088B6E
:10219C00098C0A8D0B909004780812158774131211
:1021AC00173B780C1215C0909004780C1215877898
:1021BC000C79081213AC40117808790C12154CAA42
:1021CC0008AB09AC0AAD0B802275100075110075B7
:1021DC0012007513017810790C12154C78107908CF
:1021EC00121513AA10AB11AC12AD137F0C02185FB1
:1021FC00C082C083E9906000F0D083D08222C2AF4D
:10220C0002000022C0E074F212189FA2AFE433FE69
:10221C00D2AFC2C0E5D1A2E4500653D1EF1212895D
:10222C00EEA2E092AF7F010218FEC0E074F2121829
:10223C009FA2AFE433FED2AFE589A2E150031211A5
:10224C00E1758900C2C5EEA2E092AF7F010218FED3
:10225C00C0E074F212189FA2AFE433FED2AFE58B4C
:10226C00A2E050031211E1758B00C2E880D8C0E0E7
:10227C00C0D0E8C0E0E9C0E0E5A8D2AFC2C7A2E791
:10228C00A2E792AFD0E0F9D0E0F8D0D0D0E032C0E5
:10229C00E0C0D0E8C0E0E9C0E0C008C009C082C01E
:1022AC0083A2AFE433F9D2AF901052E0F8A3E06808
:1022BC007008539AFBA374018026C2E9901052E077
:1022CC00F50874012508F074D22508F582740F34D2
:1022DC0000F583E0F5C1901052E0C394804002E415
:1022EC00F0E9A2E092AFD083D082D009D008D0E040
:1022FC00F9D0E0F8D0D0D0E032020122FFFFFFFF8E
:10230C00FFFFFFFFC082C083E9901249F0D083D059
:10231C008202012274F6121747E9900365F07CA53E
:10232C007D037AFF7BFF1207137A008A0875090078
:10233C00740278081216DD74662508F874033509E2
:10234C0012236FA3F00AEAC3940340DF7905120647
:10235C00A1900365E0F91205C37A2B7B071208C91B
:10236C0002396BF98882898374FF12237CE4F02292
:10237C00F0A3123816A32274F41217478A088B099B
:10238C00EB54806030900365E0F9120FAD8A0A8B34
:10239C000BAE0AAF0BEE4F60138E828F83E064B0EE
:1023AC0070031206B3EEFAEFFB120F9BAA08E509B5
:1023BC006480FB80047A007B0002255474F21217AF
:1023CC004774FC1216F0EAFEEBFFEE4F6038740215
:1023DC0012173BEEF0A3EF1227D9ECF0A3ED122766
:1023EC00D9AA82AB831205BDE9F50870717412127B
:1023FC00173B1233BDE50A450B60638E828F831247
:10240C002474EE4F700575080280537A067B001217
:10241C0010018A0C8B0DA80CA90DE84970057508E4
:10242C0013803B88828983E412237CEEF0A3EF12A5
:10243C00385EE50AF0A3E50BF090037312254C907F
:10244C0003736017E0FCA3E08003EAFCEBFD8C82D5
:10245C008D8312254C70F38C828D831232C0A908A7
:10246C007404121706023A49A3A3A3A3E0FEA3E047
:10247C00FF2274F2121747890AE975F045A4FEAFE2
:10248C00F0900372E4F090036812254C602812104F
:10249C000779008908750900740278081216DD7432
:1024AC00682508F58274033509F583E4F0A3F00977
:1024BC00E9C3940340DDEEFAEFFB1210018A088B9E
:1024CC0009EA45096075EEFCEFFD7900120F837D7A
:1024DC00008D0C750D007402780C1216DD746825D5
:1024EC000CF87403350DF9E50AF5F0EDA475F01749
:1024FC00A4FAABF0E5082AFAE5093BFB888289834C
:10250C00EAF0A3EBF07E00801BEE75F017A4FAAB9B
:10251C00F088828983E02AFCA3E03B8C82F583E47B
:10252C00F0A3F00EEEC3950A40DF0DEDC39403400B
:10253C00A0E50A900372F0790080027913023A49FF
:10254C00E0FAA3E0FBEA4B227F0402181974F412A0
:10255C0017477900EAA2E0501B7508E875098F78D7
:10256C000812195A7C047D007A4B7B1212069B745C
:10257C000212170680D2C082C083900373123850A7
:10258C0049601C88828983A3A3E06A7003A3E06B73
:10259C008882898370E7A3A3A3A312306480047A92
:1025AC00007B0002231974EE12174774FC1216F00C
:1025BC00EAFEEBFF851882851983E4F0A3F0EE2484
:1025CC00021232ABEE24051227C7EE2404F50EEFEF
:1025DC00122BA3E024FE603924FC604624FE6052DA
:1025EC0024FE605E24FE70030226CC24FE700302DF
:1025FC00274424FE700302275324FE700302276233
:10260C0024FC700302277124FE700302278002272A
:10261C00BD90038C7417F0A3E41227E112024B0255
:10262C0027BD851882851983AC82AD831206B90249
:10263C00278D851882851983AC82AD831206BF0263
:10264C00278D850C08850D09740212173BAC82ADE1
:10265C00838508828509831230641205E18A0C8B0C
:10266C000DAC0CAD0DEC4D6042E4F50CF50D780C99
:10267C0012195A750C8C750D03780C12195A750CAD
:10268C008D750D03780C12195A740812173B121918
:10269C0071791612305E1206FB7408121706E9F5F2
:1026AC000C700B12305A120263800F750C018508E6
:1026BC00828509831227CF1232C0850C080227901D
:1026CC00740212173BAC82AD83850C82850D83128C
:1026DC0030641205E18A108B11AC10AD11EC4D6019
:1026EC0043850C82850D83A3A312197175108C750B
:1026FC001103781012195A75108D75110378101278
:10270C00195A740812173B121971791612305E128D
:10271C0006FB7408121706E9F509700B12305A12F1
:10272C000269800F750901850C82850D831227CFF4
:10273C001232C0850908804C851882851983AC82B9
:10274C00AD831206C5803A851882851983AC82AD9B
:10275C00831206CB802B851882851983AC82AD83BE
:10276C001206D1801C851882851983AC82AD831228
:10277C0006D7800D851882851983AC82AD8312062D
:10278C00DDE9F508E50860298E828F83A3E06414E7
:10279C00601F850E82850F83E090038C1227D9125F
:1027AC003B1890038D1232C0E508A31227E11202E8
:1027BC0045EEFAEFFB12065F0231B2F50CEF340076
:1027CC00F50D22123B1C85188285198322F0851881
:1027DC008285198322F07C8C7D03850A82850B838C
:1027EC00E0FAA3E0FB2274EE12174774FC1216F009
:1027FC008A0A8B0B8C0E8D0FEA2405F508EB34003E
:10280C00F5097C157D0079007A8C7B03120F83E52A
:10281C00082402F50CE5091227CA8518828519834C
:10282C00858210858311781012195A8508828509C2
:10283C0083A3A3A3A3122CEC12195AE5082405F5C3
:10284C0010E5093400F511781012195A850C82859F
:10285C000D8312304E1230641205DB74061217060B
:10286C008A108B11AE10AF11E50A2402F50AE50BA4
:10287C001232AEEE4F70030229BB8017740212178E
:10288C003B12306488828983EAF0A3EBF090038CCE
:10289C00E004F090038CE0C3940540030229BBE4F0
:1028AC00F510F511781012195A7510757511037809
:1028BC001012195A751076751103781012195A7472
:1028CC000612173B1219717910EEFCEFFD12305EF7
:1028DC001206FB7408121706E9705E8508828509DA
:1028EC0083A3A3A3A3A3A3A3E0F8900375E068704C
:1028FC0048122CEC12195A7C767D03E5082408FA50
:10290C00E5093400FB120F7D7402121706E96029E9
:10291C008E828F83A3A3A3A312306490038CE0F563
:10292C0010740278101216DD748D2510F582740364
:10293C003511F583EAF0A3EBF0740212173B858294
:10294C0010858311781012195A740212173B121940
:10295C0071850C82850D83123B2D1205E7740412D0
:10296C0017068A108B11AE10AF1190038CE0F51086
:10297C00751100740278101216DD748C2510F87421
:10298C00033511F988828983A312254C7003022820
:10299C007FE82403F8E93400F9EE4F60030228883D
:1029AC008882898374FFF0A3F090038CE004F0908C
:1029BC00038CE0600A12305A1202577900800B85A2
:1029CC0008828509831232B7790A0231B274EA128D
:1029DC00174774FE1216F08C128D13EA2405F50CB1
:1029EC00EB123B37122478750800750900EA2402B3
:1029FC00F510EB3400F51185188285198385820A50
:102A0C0085830B780A12195A850C82850D83A3A332
:102A1C00A3A3122BAD12195AE50C2405F50AE50DEA
:102A2C001232AE780A12195A850C82850D83123B2C
:102A3C002B1205DB74061217068A0A8B0BEA450B60
:102A4C007003022B6EEA2404F50EEB122BA3122456
:102A5C00788A828B83A3A3A3E0F9851082851183E6
:102A6C001230641205C9E9F5096003022B6EE4F516
:102A7C0014F515781412195A751475751503781404
:102A8C0012195A751476751503781412195A74069E
:102A9C0012173B1219717913AC0AAD0B8510828594
:102AAC0011831230641206FB7408121706E9F5093B
:102ABC006003022B6E900375E0F8E5087009E024C2
:102ACC000290038DF0801790038DE0FCE82402FA4D
:102ADC00E43400FBEA6C7001EB6003022B72850896
:102AEC0082AA82122CE39414122CDB5075850E8270
:102AFC00850F83E0C0E0122F1AD0E0F00508850E98
:102B0C0082850F83A3E0C0E085080A748E250AF540
:102B1C008274033400F583D0E0F00508900375123D
:102B2C002BAD12195A7C767D0385080A748E250A02
:102B3C00FA74033400FB120F6B7402121706900325
:102B4C0075E02508F50874FF6E700374FF6F601252
:102B5C00EE24010EEF3400FFE508C3941450030279
:102B6C002A03E5086013122F408510828511831209
:102B7C00306412025D79008014E509700375090A4E
:102B8C00851282851383EEF0A3EFF0A9097402126B
:102B9C0017067F0E0218193400F50F850E82F58387
:102BAC002212386D2274EE12174774FE1216F08C36
:102BBC000E8D0FEA2405F50CEB1227CA750B00904D
:102BCC00038CE4F0F50AEA2402F508EB3400F5096D
:102BDC00804990038CE0FA900375E0F8122CE39492
:102BEC0017122CDB400D90038CE0F87416C39890F0
:102BFC000375F0122CEC12195A7C767D03748D2A15
:102C0C00FA74033400FB120F6B7402121706900354
:102C1C0075E0F890038CE028F0050AE50C2416F515
:102C2C0082E50D3400F583E0F8E50AC39840030211
:102C3C002CC490038CE0C39416507DE50AC333F882
:102C4C00E433F9E50C28FEE50D39FF85188285196A
:102C5C0083AC82AD838E828F831230641205E18A3D
:102C6C00108B11AC10AD11EC4D7005750B01804340
:102C7C00E4F510F511781012195A751075751103C9
:102C8C00781012195A751076751103781012195A9A
:102C9C00740612173B1219717916850882850983FF
:102CAC001230641206FB7408121706E9F50B700358
:102CBC00022BDE1232B380107C8C7D03850882855A
:102CCC00098312306412026FA90B74020231B4E949
:102CDC009400C365D03322EA28F8E43400F9E822E2
:102CEC00E0F51075110078102274EA12174774FC85
:102CFC001216F08A0C8B0D8C128D13EA2405F50A32
:102D0C00EB1232AE750800750900E50A2402F510C5
:102D1C00E50B3400F511740212173B85820E858386
:102D2C000F780E12195A850A82850B83A3A3A3A3CD
:102D3C0012381D12195AE50A2405F50EE50B34005C
:102D4C00F50F780E12195A8510828511831231AC49
:102D5C0012305E1205DB74061217068A0E8B0FAE4C
:102D6C000EAF0FE50C2402F50EE50D3400F50F80C7
:102D7C00408882898374FFF00508122F2674FFF0B7
:102D8C000508900375E0F50C750D00780C12195AB6
:102D9C007C767D0385080C748E250CFA7403340044
:102DAC00FB120F6B7402121706900375E02508F5E1
:102DBC0008EE4F60718E828F83A3A3A3E0F9850E7A
:102DCC0082850F831230641205C9E9F509EE2404DB
:102DDC001227C7E97044E4F514F515781412195A42
:102DEC00751475751503781412195A7514767515B2
:102DFC0003781412195A740812173B1219717911AD
:102E0C00EEFCEFFD850E82850F831230641206FBFB
:102E1C007408121706E9F5096027850C82850D8365
:102E2C00122F361232C0E5087003022F00122F4009
:102E3C00850E82850F831230641202757900022F81
:102E4C0015850882AA82EA9003757009E024049023
:102E5C00038DF08022E0F890038DE0F514E8240453
:102E6C00FCE43400FDEC65147001ED70C0122CE331
:102E7C009412122CDB50B6850C82850D83E0C0E0D9
:102E8C00122F1AD0E0F00508850C82850D83A3E083
:102E9C00C0E0122F26D0E0122F5285820C85830DB4
:102EAC00780C12195A740412173B1219718510827E
:102EBC00851183123B2D1205E774041217068A0C38
:102ECC008B0DAE0CAF0D85080C748E250CF87403AD
:102EDC003400F9EE4F7003022D7D8518828519831D
:102EEC00E088828983122F52A3E0C0E0122F26D0F3
:102EFC00E0022D8BE509700375090A850A82850BA2
:102F0C0083122F361232C0A9097404022B9B748EC3
:102F1C002AF58274033400F5832285080C748E25FF
:102F2C000CF58274033400F58322123B1C8512824B
:102F3C008513832290038DE0F5F0E5088490038CD3
:102F4C00F07C8C7D0322F00508851882851983227C
:102F5C0074EC12174774FE1216F08A088B098C0E4B
:102F6C008D0FEA2405FEEB3400FF8518828519834A
:102F7C00AC82AD838E828F831230641205E18A0A93
:102F8C008B0BEE24181227C7EA450B70030230296D
:102F9C0012319450328518828519831230641206CE
:102FAC00EF8A108B11EA4511606E7912AC0AAD0BE9
:102FBC0085088285098312306485108285118312FD
:102FCC001745E9F50A705BE4F50AF50B780A121956
:102FDC005A8E828F83A3A3E0F50A780A12195AEE4F
:102FEC0024031232AB780A12195A8E828F83123054
:102FFC004E1230641207017406121706E9F50A70B6
:10300C0021850C82850D83E0701F850882850983DC
:10301C0012306412027B8011750A0E8009750A0148
:10302C008004E50A60031232B3850C82850D83E0BF
:10303C00600479008002A90A74021217067F0C0240
:10304C001819E0FCA3E0FD850882850983227C8C9D
:10305C007D03850A82850B83E0FAA3E0FB2274EEE4
:10306C0012174774FE1216F08A088B098C0C8D0D02
:10307C00EA2405FEEB3400FF750E008518828519D5
:10308C0083AC82AD838E828F831230641205E18A09
:10309C000A8B0BEA450B70030231801231945035C8
:1030AC008518828519831230641206EF8A0E8B0FF5
:1030BC00EA450F605E7912AC0AAD0B850882850972
:1030CC0083123064850E82850F83121745E9F50E45
:1030DC0060030231838508828509831233BDAA0AF5
:1030EC00FB1206E38A108B11A810A911E849701E77
:1030FC007AFF7BFF1206E38A108B11A810A911E846
:10310C0049606C88828983E50AF0A3E50BF0750AA7
:10311C00008007750E0E805F050A900372E0FAE5D9
:10312C000AC39A504AE50A75F017A4FAABF08882E4
:10313C008983A3A3E02AFAA3E03BFB8A828B831248
:10314C0031ACEC4D70D2750A17750B00780A121958
:10315C005AEEFCEFFD120F6B7402121706EEFCEF29
:10316C00FD850882850983123064120281801475F2
:10317C000E098003750E01123B14850C82850D839C
:10318C001232C0A90E022CD6E5082402F508E50976
:10319C003400F5098A828B83A3A3A3E0A2E522A3C2
:1031AC00E0FCA3E0FD2274041217067F0A02181932
:1031BC0074EC1217478C108D11EA2405F50CEB12E8
:1031CC0027CA750F00EA2402F50AEB1232AE850A03
:1031DC0082F5831230641206E38A088B09EA4509EA
:1031EC0070030232A0750E008071850C82850D83F0
:1031FC00E06401704F8E828F83A3A31219718E82AB
:10320C008F83A3A3A3A3E0F51275130078121219F0
:10321C005AEE2405F512EF3400F513781212195AF0
:10322C0012305E1207017406121706E9F50F6014CE
:10323C00850C82850D83E4F0123B14851082851178
:10324C00831232C07C177D007900EEFAEFFB120F6F
:10325C00838E828F83E4F0A3F0050E900372E0F866
:10326C00E50EC398501FE50E75F017A4F8A9F0856C
:10327C000882850983A3A3123B41FCA3E0FDEC4D1E
:10328C0060030231F685088285098374FFF0A3F090
:10329C00E50F700612305E120287A90F023049F555
:1032AC000AEF3400F50B228E828F83123B1C850EA5
:1032BC0082850F83E8F0A3E9F02274F61217477C9D
:1032CC00008C08750900740278081216DD1232F8A9
:1032DC006A7003A3E06B7006E8FAE9FB800B0CEC58
:1032EC00C3940340DC7A007B0002396B74662508BA
:1032FC00F874033509F988828983E02274F7121770
:10330C00477F00EF75F003A4F8A9F0EC28F8ED392D
:10331C00F988828983E06A7003A3E06B7006E8FA8F
:10332C00E9FB800B0FEFC3940440D87A007B007F3D
:10333C000102181974F61217471206AD8A828B8394
:10334C00E582458370067A007B008007A3A3A3A3C4
:10335C0012306402396B74F2121747E9FE740E12C4
:10336C00173B1233BD741012173B1238388C828DF8
:10337C0083E064027036A3123B22F50CA3E0F9A89B
:10338C000C74026870037429697021750C02750D38
:10339C0000780C12195A780812195A780A12195A0C
:1033AC00EEF9120725740612170680027901023A0B
:1033BC0049E0F50AA3E0F50B2274E812174774FBF9
:1033CC001216F0E9851882851983F08A168B17EC92
:1033DC00FEEDFF751000741D12173B123B18741D87
:1033EC0012173B1232C08E828F83A3A3A3E0A2E4F8
:1033FC00502D741D12173B1230641206EF8A828B0B
:10340C0083E58245837003023807790AEEFCEFFDF1
:10341C00AA16AB17121745E9F510600302380A74A7
:10342C001F12173B123838742112173B1233BD741C
:10343C002312173BE0F50EA3E0F50F8E828F83E08D
:10344C00640260030237B5A3123B18850882850914
:10345C0083A3858212858313EE24061227C78882E4
:10346C008983E0FAA3E0F9EA2400F514E439F515B0
:10347C0078141219E4010000280128A9340700026D
:10348C00286E350328DB340029A5360129D03602F5
:10349C002971360329A53604294F37B537E50E4572
:1034AC000F60030237B0850C82850D83123850FAF9
:1034BC00E9FB8A828B83E0850A82850B8312386450
:1034CC0012195A8A828B83A3E0FCA3E0023739E5F8
:1034DC000E450F60030237B0850A82850B83740199
:1034EC00F0123840850882850983F07C007D008EBF
:1034FC00828F83A3A3A3A3E02401FAA3E03400FBEF
:10350C001205E1EA4B60418A828B83E02402F88544
:10351C000A82850B83E028F0EA2404F8EB3400F9E6
:10352C0088828983E085128285138312387612385B
:10353C006412195A8A828B831231ABE5082403FA80
:10354C00E5093400FB02373E850A82850B83E024B3
:10355C0004F07C047D007900AA12AB13120F8302D5
:10356C00380AE50E450F60030237B0123840FEA34F
:10357C00E0FF850A82850B837404F0EE8508828552
:10358C000983F0EF851282851383F0740312173BC5
:10359C00AC82AD83EEFAEFFB1205E18A0C8B0DEADF
:1035AC00450D70030236528A828B83A3A3122474B6
:1035BC00740112173B85820E85830F780E12195AEF
:1035CC00740512173B1219717CFF7DFF1205E7740D
:1035DC00041217068B0FEA450F7033850C82850D8C
:1035EC008312381D12195A850C82850D83A312196A
:1035FC00717C027D007A8C7B9012036B7404121721
:10360C0006E9700A740112173B74FFF0A3F08E8266
:10361C008F83E064027039750C02750D00780C1202
:10362C00195A8E828F831231ABE5082404FAE5090E
:10363C003400FB120F6B7402121706850A82850B7D
:10364C0083E024028009740112173BEEF0A3EFF023
:10365C00740112173B12382EF0740112173BA3128F
:10366C0038260237AAE50E450F60030237B0850CE9
:10367C0082850D831231ACAA16AB17120719850A75
:10368C0082850B837402F0EA850882850983F085B4
:10369C001282851383EB0237ADE50E450F600302F2
:1036AC0037B0123840F8A3E0F9850A82850B837491
:1036BC0002F0E8850882850983F0E985128285137A
:1036CC00830237AD850C82850D83123064120F6531
:1036DC00EAFC8C82A882C3950EE4950F405FE865E6
:1036EC000E7002E50F70047C00802285188285190B
:1036FC0083E0FAE50E2AFAE50F3400FBC3EA98EBF7
:10370C0094005003E08005E50ECCC39CFCEC850ACC
:10371C0082850B83F08C0A750B00780A12195A8576
:10372C000C82850D83E0250EFCA3E0350FFDAA0865
:10373C00AB09120F6B740212170602380A751007C8
:10374C0002380AE50E450F705B850C82850D8312DD
:10375C003B18850A82850B837407F0888289831253
:10376C003826123816E0851282851383F0E824027D
:10377C00FAE93400FB8A828B8312382612385512F0
:10378C00382EA312385E123832F0E82405F8E934EA
:10379C0000F988828983123832A3123876A3A3A346
:1037AC00A3F0805A75100B8055741D12173B123004
:1037BC00641206AD8A828B83E5824583603D123BA1
:1037CC0018880C890DE8450D6031780E12195A785D
:1037DC000A12195A780812195A740612173BE0F992
:1037EC00EEFCEFFDAA16AB17850C82850D83121724
:1037FC00457406121706E9F510800375100EA91012
:10380C0074051217067F10021819F088828983A399
:10381C0022E0F50E750F00780E22E08508828509EE
:10382C00832212387D2212387DA3A322E0F508A34F
:10383C00E0F50922850C82850D83E0F8A3E0F58381
:10384C008882E022123B1CE822A3A3F08A828B839D
:10385C00A32212237EA3A322F08A828B8312386DBB
:10386C0022E0F50A750B00780A2212381612387D00
:10387C0022E0850882850983A3A32274EE121747E0
:10388C0074FE1216F08A0A8B0BECFAEDFB74141210
:10389C00173BE0F510A3E0F511741612173BE0FE90
:1038AC00741812173BE0F50EA3E0F50F851882850E
:1038BC001983AC82AD831205E18A0C8B0DEA450DA0
:1038CC0060498518828519831230641206AD8A828C
:1038DC008B83E5824583602FA3A3123838E5084516
:1038EC00096024780E12195A781012195AEEF9AC94
:1038FC000CAD0DAA0AAB0B850882850983121745FE
:10390C0074041217068006790E80027901022CD6F7
:10391C0074F612174774FE1216F0740C12173B1241
:10392C003850851882851983F0740112173BE9F021
:10393C00E4F508F509780812195A75080278081286
:10394C00195A740412173B8582088583097808126A
:10395C00195A120701740612170674021217067F01
:10396C000202181974F7121747EAFEEBFF89087C5C
:10397C00A57D03120719EA5402600BA908EEFAEFB1
:10398C00FB1205D58002790102333B74F6121747FE
:10399C0074FF6A700374FF6B701B7B00EB75F00394
:1039AC00A4F8A9F0EC28F8ED3912236F0BEBC394B3
:1039BC0004501480E71206E98A088B09A808A909A3
:1039CC00E8496003122370809674F61217471206AA
:1039DC00E98A828B83E58245836006A3A3E0FA80A3
:1039EC00027A007B0002396B74F21217478A088B3B
:1039FC0009ECFEEDFF740E12173BE0F50A1206E916
:103A0C008A0C8B0DA80CA90DE8497026EEFCEFFD75
:103A1C007AFF7BFF1206E98A0C8B0DA80CA90DE826
:103A2C004970047911801688828983E508F0A3E532
:103A3C0009F088828983A3A3E50AF079007F060246
:103A4C00181974EE121747EAFEEBFF8C088D0989E2
:103A5C000C741412173B123B18741612173B1230CD
:103A6C0064750D00E8496003023B0C7402650C6040
:103A7C0003023B07741212173B123B22FCA3E0F922
:103A8C00EC2400F50EE439F50FEAF4F8EBF4F9EC5C
:103A9C0058F8E50F59F9E849705CE5082406F8ED8B
:103AAC003400F9880A890B8882F583123B2D1207A2
:103ABC00198A108B11E50E65107004E50F65116005
:103ACC0042780E12195A850A82850B83123B2D12ED
:103ADC00071F7402121706E9F50D7027780E1219DC
:103AEC005A850882850983A3A3123B2B12073174D4
:103AFC0002121706800D750D808008750D0D800360
:103B0C00750D0BA90D0231B78E828F83123B1C22CF
:103B1C00E0F8A3E0F922123B1C88828983E022A3FF
:103B2C00A3E0FCA3E0FDEEFAEFFB223400F50D85DB
:103B3C000C82F58322E028FEA3E039FF8E828F836E
:103B4C00E02274F2121747EAFEEBFF890B74016551
:103B5C000B600E7402650B706B79011208E7E9704B
:103B6C0063EEFAEFFB1206E38A088B09EA4509605B
:103B7C0048750A00800B7C177D007900120F8305B5
:103B8C000A900372E0F8E50AC3985022E50A75F032
:103B9C0017A4F8A9F0850882850983A3A3E028FA65
:103BAC00A3E039FB8A828B831238504970C8850890
:103BBC008285098374FFF0A3F07CA57D03EEFAEFF8
:103BCC00FB120713023A4974F21217478A088B0941
:103BDC00ECFEEDFF740E12173B1233BD901249E050
:103BEC00F4603D7A097B00120F95EA4B60328A82B1
:103BFC008B8374B1F0A3E4123857A3123855A3E5A4
:103C0C0008F0A3E509123C2FEEF0A3EF123C2FA312
:103C1C00A3E50AF0A3E50BF0901249E0F9120FA10D
:103C2C00023A49F08A828B83A3A3A3A3A322C08266
:103C3C00C0839061907404F0A37448F0A3E4F090F6
:103C4C0061807440F09061BC7407F0906187746976
:103C5C00F09061B67416F079001209EF790212092E
:103C6C00F5902308E493F46006E493F91209CB79F8
:103C7C0005120D4F02405BC082C083E9540FF990CE
:103C8C006185E0696012E5C654804449F5C6E59E3D
:103C9C00547F644970F8E9F053C680E59E547F70F8
:103CAC00FA02405B74F7121747E5A8FE53A87E1280
:103CBC0009D7C2BA539AFEC289759B00C2C21209B7
:103CCC00DD75A91175B9051209E3D2BA439A0174CD
:103CDC00805E42A8024F7FC082C083906181E4F075
:103CEC00A3F0A3F002405B75E90075910075BF006D
:103CFC00020122C082C083906181E4F0A374C0F001
:103D0C00A3E480DFC082C08374F81216F090047BA9
:103D1C001253CE7003023DEF90047BE054406023BD
:103D2C007908851882851983AA82AB83120B0385C7
:103D3C001882851983AA82AB831207A390047BE0B7
:103D4C0054BFF0E054806010790C7A1B7B08120B86
:103D5C000390047BE0547FF0E0A2E0500F79001256
:103D6C0009EF1207A990047BE054FEF0E0540260C6
:103D7C000F79011209EF1207A990047BE054FDF0B2
:103D8C00E05404600F79001209F51207AF90047B20
:103D9C00E054FBF0E05408600F79011209F51207AA
:103DAC00AF90047BE054F7F0E05410600F790212EE
:103DBC0009F51207AF90047BE054EFF0E05420605B
:103DCC000F79031209F51207AF90047BE054DFF072
:103DDC00A3E05401600D120A011207B590047CE0B7
:103DEC0054FEF0740812170602405BC082C083E9CF
:103DFC00600514602A804F90619A7433F0A3745557
:103E0C00F09061A0743AF09007F5E064017009C27B
:103E1C009190047D7467802D90047D746180269050
:103E2C00619A743FF0A3745AF09061A0747FF09083
:103E3C0007F5E064017009D29190047D74718005DE
:103E4C0090047D746AF002405BC082C083E9600B11
:103E5C0014600D14601714600C802090230C8015D6
:103E6C0090230D80109007F5E06401700590230EEF
:103E7C00800390230FE493906186F002405B74EE14
:103E8C0012174774F41216F0851882851983AC82C8
:103E9C00AD8375839075822C740412160390230CD9
:103EAC0093F46003023FB4907808E0C3940250038B
:103EBC00023F94740412173BAC82AD8375838F75EB
:103ECC0082DA7408121603FC7EFF7FFF8E0C7D00D5
:103EDC008C8285820E800F74086D606D74096D6024
:103EEC0068740A6D60638D08750900740278081295
:103EFC0016DD123FBE1215C0A909E50AC9F88810D3
:103F0C00741878081214DBE5104508FAE9FBE50E85
:103F1C00C333F8E433F9740412173BE58228F582B5
:103F2C00E583391246B0C3E89AE99B4008E8C39A86
:103F3C00F8E99B8006EAC398F8EB99F9C3E89EE987
:103F4C009F5006E8FEE9FF8D0C0DEDC394134087DE
:103F5C0074FF6E700374FF6F6024850C0874027814
:103F6C00081216DD123FBE1215C085188285198302
:103F7C00E582250EF582E583124AC9E508F00CECC2
:103F8C00C394045003023ED47508017509007808E7
:103F9C0012195A740212173BAC82AD837AC37B0898
:103FAC001211BD7402121706740C1217067F0A0246
:103FBC00181974482508F58274783509F583780842
:103FCC0022C082C083906186E0F890230FE493684E
:103FDC00700990230EE493906186F09061AE746842
:103FEC00F0A3746AF090624574FBF0A304F053F4F0
:103FFC00FD43FE029007F57401F09061A0E0643A75
:10400C0070047900800279011209EF02405B7F0491
:10401C00021819C082C0839007D3E064017013901A
:10402C0007D9E0F87401686019E87006A3E0640130
:10403C0060109007EAE06401700C9007F0E06401F6
:10404C007004790C800279008005E0F91221FCD013
:10405C0083D082020122124756940622E0C43333E5
:10406C0054C022C082C0839007DD7425F09007DB1A
:10407C007401F0A3E4F07A01FB120CCB1240BB24C8
:10408C0016F582E8124AC97425F0A3740AF0900759
:10409C00DAE0640170169007D9E070107901120D06
:1040AC002B120CFB120D257900120D3702405B9080
:1040BC0007C912443F2274F612174774FA1216F00D
:1040CC009007D2E064017008120A0D9007D2E4F058
:1040DC0075E1F11240BB2415F582E8124AC974014E
:1040EC00F09007D4E064017053908FEEC082851875
:1040FC0082851983AC82AD8375838FD0827406124E
:10410C00160375D90D9007CB1240684403F5D97886
:10411C0000880874CC125058740712406240F27830
:10412C00008808851882851983E582125058E5832A
:10413C0012406240EC75E195790180027900120C15
:10414C00D190126B1241B874ABF0A3740BF0A312A4
:10415C0041B81241B812430C74B1F0A3740B124362
:10416C00219007CBE0F97ACC7B07120CAD9007DDE0
:10417C00E0F91221FC7901120CD79090201215DE77
:10418C00120CEF90901C1215DE120CB97900120D66
:10419C00431240BB2414F582E8124AC97416F090FD
:1041AC0004797405F0041217060247C074A5F0A335
:1041BC00740BF0A32274F41217478908A808124E46
:1041CC00C49007E2E0F97AE37B07120CAD9007F09C
:1041DC00E0701A7900120D0D9007B8E070047900A8
:1041EC00800279017AB97B07120CB3800579011230
:1041FC000D0D75E1F175D9239007E2124068440565
:10420C00F5D97800880A74E3250AF5827407124000
:10421C006240F175D90075D90075D90075D9007552
:10422C00D90075D9007A0012531A242212466F4015
:10423C00F67A0012531A2426F582E91247C80AEAC4
:10424C00C3940340EEEE242B1247C57A0012531A86
:10425C00242C12467540F67A0012531A242E12465C
:10426C007540F67A0012531A243012467540F67ACD
:10427C000012531A243212467540F67A008A0AEE5E
:10428C00250AF8EF124BE1124681940540EFEE241B
:10429C0037F582EF124E18541FF8EE242AF582EFF0
:1042AC00124E18C43354E048F5D975E19590126B51
:1042BC007475F0A3740BF0A3747BF0A3740B12430E
:1042CC00037481F0A3740B1243219007EFE0F912F1
:1042DC0021FC9090201215DE120CEF90901C121500
:1042EC00DE120CB990600DE4F07901120D439004CC
:1042FC00797406F002401AF0A312430C12430C22FC
:10430C0012431022746FF0A3740BF0A3746FF0A31C
:10431C00740BF0A32212432522F090127912433130
:10432C00A312433122124310746FF0A3740BF022CA
:10433C0074EC1217479007E0124EDB78101215C080
:10434C009007F1E0FAF875F005A4C8ACF02CF974FC
:10435C00D728F582740439F583E0FEA3E0FFEEC3A1
:10436C0033FEEF33FF8E0CF50D750E00750F0085C7
:10437C00100885110985120A85130B909024780872
:10438C001215267808121956851008851109851200
:10439C000A85130B7808790C1215137810790C1206
:1043AC00146BE4F50EF50F7808790C12154C8A0C89
:1043BC00750D007403780C1216DD7808790C121543
:1043CC00139090047808121587AA08AB09AC0AADB3
:1043DC000B12219474041217068A088B09A808A9D9
:1043EC0009C3EE98EF995006E82EF8E93FF9E890EA
:1043FC00600EF0E9A3F0EEA3F0EFA3F090600D7463
:10440C00C1F07F0C021819C082C0839007C91244F6
:10441C00339007DD024056C082C0839007E01244FF
:10442C00339007EF02405612443F2406F582E812FF
:10443C00486122E0F8A3E0C82202012274F21217AC
:10444C00471245B2F50AEF12493F60047804800226
:10445C007800E8240EF8EAC398500302450F75085B
:10446C000C9007FBE4F0EE2476F582EF124E1890D8
:10447C0007FCF07902EE2477FCEF3400FD7AFD7B2B
:10448C0007120AF17902EE2479FCEF3400FD120ACE
:10449C00F17902EE247BFCEF3400FD120AF1790273
:1044AC00EE247DFCEF3400FD120AF1EE247412456B
:1044BC00C8120AF1850A82850B83E0601E7508FB21
:1044CC00750907780812195A7C0C7903EEFAEFFB80
:1044DC00120B63740212170675081074012508F587
:1044EC00D975D90378008009880A74FB250A12450E
:1044FC00A7E8C3950840F175E1957904120CF5799C
:10450C0001800279007F0602181974F21217471203
:10451C0045B2F508EF3400F509850882F583E060B3
:10452C0004780480027800E8240AF8EAC398406012
:10453C00750A089007FB7401F079057CBF7D077A3A
:10454C00FC7B07120AF1EE24801245C8120AF18591
:10455C000882850983E0601E7508FB7509077808D9
:10456C0012195A7C087903EEFAEFFB120B637402F2
:10457C00121706750A0C12483E80031245A1E8C3B7
:10458C00950A40F775E1957904120CF579018002D2
:10459C007900024511880874FB2508F5827407120E
:1045AC004E1CF5D908221245B622EAFEEBFF9061AB
:1045BC00D0E0F87480C398FAEE248222FCEF340029
:1045CC00FD8E828F83A3A3A3A3A31253DD8C828DB4
:1045DC0083E028F0A3E039F079022274F612174731
:1045EC00EAFEEBFF9061D0E0707475D91875D903B1
:1045FC0075D9037A008A08EE250812531F249B12E2
:10460C00468840F17A008A08EE250812531F24A32D
:10461C0012467540F17A008A08EE250812531F24C1
:10462C009312468840F17A008A08EE250812531F2F
:10463C00248712466F40F175E1957908EE2493FAC0
:10464C00EF3400FB120AF77904EE2487FAEF3400FA
:10465C00FB120AF77904120CF512469180027900CC
:10466C000247C012467B94042212467B940222F528
:10467C0082E9124F74E0F5D90AEAC32212467B9400
:10468C00082275E195EE246FF582EF124F701253EC
:10469C00DDEE2471F582EF124F70E8F0A3E9F079AA
:1046AC0001223400F5831253DD2274F6121747EA07
:1046BC00FEEBFF9007FB740612476012195A7C013F
:1046CC007903120B63740212170675D90675D90398
:1046DC00780012474640FB75E195900479E0640838
:1046EC007017EE246FF582EF1246AEEE2471F58250
:1046FC00EF124AC9E8F0A3E9F079010247C074F659
:10470C00121747EAFEEBFF9061D0E070299007FB8F
:10471C00740A12476012195A7C017903120B6374E4
:10472C000212170675D90675D90378001247464050
:10473C00FB12468E80027900807A880874FB25086B
:10474C00F5827407124756940522124F74E0F5D97E
:10475C0008E8C322F07508FB75090778082274F67F
:10476C00121747EAFEEBFF9061D0E070427901909E
:10477C0007FB740BF0900479E0640770197508FB63
:10478C00750907780812195A7C010909120B637410
:10479C00021217067905740129F5D975D903780029
:1047AC0080031245A1E8C39940F812468E80027925
:1047BC00008001F07F02021819F582EF124E1CF5F1
:1047CC00D92274F5121747124869600478048002E4
:1047DC007800E8240BF8EAC3984052750A09900750
:1047EC00FB7408F0F912484A120AF185088285090F
:1047FC0083E0601E7508FB750907780812195A7C4E
:10480C00097903EEFAEFFB120B63740212170675AB
:10481C000A0D12483E80031245A1E8C3950A40F7E1
:10482C0075E1957904120CF512469180027900021B
:10483C004ABF7401250AF5D975D903780022EE24F4
:10484C00E4FCEF3400FD7AFC7B0722EE241DF5829C
:10485C00EF12486122124F74E4F0A3F0221245B615
:10486C00F8EF124872223400F9880889098882F519
:10487C0083E02274F31217478A088B091249D5FA80
:10488C00E5082482F50AEB12493F600478048002A3
:10489C007800E82408F8EAC3985003024938750CEC
:1048AC00069007FB740CF0900496E09007FCF074F3
:1048BC0002C0E0F97C977D047AFD7B07120AF1D0E7
:1048CC00E0F97C997D04120AF1850A82850B83E05C
:1048DC00601E750AFB750B07780A12195A7C06794B
:1048EC0003AA08AB09120B637402121706750C0AA3
:1048FC007401250CF5D975D90378008009880A74E0
:10490C00FB250A1245A7E8C3950C40F175E1957992
:10491C0004120CF5E508246FF582E5091246AEE5A4
:10492C00082471F582E5091246A3800279007F05FF
:10493C000218193400F50B850A82F583E02274F60F
:10494C00121747EAFEEBFF1249D5FCEE2482F8EF72
:10495C00124A5860047A0480027A00EA2404FAECC1
:10496C00C39A40607A029007FBEAF0EE24F6F582D7
:10497C00EF1249DF601B7508FB75090778081219DF
:10498C005A7C027903EEFA120B6374021217067A40
:10499C000674012AF5D975D903780080031245A154
:1049AC00E8C39A40F875E195EE247312505DEE243D
:1049BC007F12505D1248577904120CF5EE240D123B
:1049CC004694800279000247C09061D0E0F8748070
:1049DC00C39822124E1C9007FCF088828983E02237
:1049EC0074F61217471249D5FEEA2482F8EB124AE4
:1049FC005860047C0480027C00EC2404FCEEC39C14
:104A0C0040457C029007FB7407F0EA24F7F582EB33
:104A1C001249DF60177508FB750907780812195AD7
:104A2C007903120B6374021217067C0674012CF5C1
:104A3C00D975D903780080031245A1E8C39C40F8CE
:104A4C0075E1957901800279000247C03400F9883C
:104A5C00828983E02274F5121747E9FEA2AFE43392
:104A6C00F50AC2AF7F00EA246EF8EB3400F980013E
:104A7C000F88828983E0F508EFC3950850188F08DA
:104A8C00EA2508FCEB3400FDEC246AF582ED124EAD
:104A9C00186E70DC8017EA2508FAEB3400FBEA2468
:104AAC006AF582EB124AC9EE1249E504F0E50AA256
:104ABC00E092AF7F03021819246AF582E9124F7055
:104ACC002274F6121747A2AFE433FFC2AFEA246E8A
:104ADC00F8EB12510CE014F07E0080198E08EA25D8
:104AEC0008F8EB125321246B124E15C0E0E8124A61
:104AFC00C4D0E0F00E8C828D83E0F8EEC39840DCDD
:104B0C00EA246DF582EB124AC974FF124B42EFA2F4
:104B1C00E092AF0247C0C082C083E5A8F8C2AFEAFA
:104B2C00246AF582EB124AC9E9124B42E8A2E7A2C9
:104B3C00E792AF02405BF0EA2469124B4A22F582FD
:104B4C00EB124F74E4F02274F21217478C828D83AF
:104B5C00A3A3A3A3E0541FF0EA24361251028E82C1
:104B6C008F83E4F0F50C850C8285820AEC250AF81B
:104B7C00ED124872C0E0EA250AF8EB124BE1D0E0E6
:104B8C00F0750D00850882850983E0F50A750B0028
:104B9C00E50D780A1216BEE50AA2E05023E50C33A7
:104BAC00333354F8250DC0E08E828F83E0F8124D1C
:104BBC00B52438124AC6D0E0F08E828F83E004F020
:104BCC00050DE50DC3940840BB050CE50CC394051D
:104BDC0040940245113400F9E8245DF582E9124F46
:104BEC00702274F41217479004A5E064037003025A
:104BFC004D9B7E00EEF875F005A4C8AAF02AF97456
:104C0C00AB28F582740439F583E06003024D91748E
:104C1C00A928FA740439FB8A828B83A3A37401122A
:104C2C005374A3A3A3E4F0EA2404F8EB125321FC7D
:104C3C00E9FDEE8C828D83F0EA2462124DA224678A
:104C4C00F582EB124AC97401124DC7E4F0A3124D60
:104C5C00C7A3A3124DC2240F124DA22435F582EB2B
:104C6C00125060F508F509F50AF50BEA2418124DF7
:104C7C00AA1215CFEA241C124DB0241D124DBE24CD
:104C8C007F124DB02473124DB02468F582EB124A9A
:104C9C00C97480124B42EA246E124DB024EC124DB2
:104CAC00B024ED124DB024EE124DB024EF124DB0E5
:104CBC0024F0124DBE24F2124DBE24F5124DB02438
:104CCC0082124DB024D2124DB024D3124DB024D444
:104CDC00124DAA1215CFEA24D8124DAA1215CFEAFA
:104CEC0024DE124DB024E0124DB024DC124DB02461
:104CFC00E1124DB024E2124DB024F8124DBE24FA4C
:104D0C00124DBE24FC124DBE24FEF582EB12485D02
:104D1C00FE8E08EA2508F8EB125321124AC474FFE0
:104D2C00F00EEEC3940440E97E008E82A88274BF1C
:104D3C0028F5827407124E18C0E0124DB5245D128E
:104D4C004AC6D0E0F00EEEC3940540DE7E008E82A3
:104D5C00A882748D28F5827404124E18C0E0124D8E
:104D6C00B524E4124AC6D0E0F00EEEC3940840DE3F
:104D7C009004A5E004F0640170198C828D83E0909E
:104D8C0004A7F0800E0EEEC394035003024C007A7D
:104D9C00007B0002401A124F6D7401F0EA22124F90
:104DAC006D780822124B4AEA22EA28F8EB3400F913
:104DBC00E822124F6DE4F0A3F0EA22F08A828B8392
:104DCC00A3A3A3A3A322C082C083EA2403F582EB8E
:104DDC00124E186008E4F09004A6E014F09004A5BC
:104DEC00E014F070069004A774FFF08A828B83A302
:104DFC00A3E4F09007C4E0700D9004A6E064017089
:104E0C00057900120CBF02405BF582E9124E1C22A0
:104E1C00124F74E022C082C0837B00EBF875F00562
:104E2C00A4C8AAF02AF974A528F8740412502CA36B
:104E3C00A3A3A3E4F088828983A3A3A3A3A3A3F0D1
:104E4C000BEBC3940340D49004A5E4F0A3F0A3743B
:104E5C00FFF075E1F102405B74F51217477508001D
:104E6C00750900750A00A80A124EC48E828F83A39E
:104E7C00A3A3E0602BE5084509601D850882850920
:104E8C0083124EDB12196D124ED71215DE12213819
:104E9C007404121706E97008EEF8EFF9880889090E
:104EAC00050AE50AC3940340BD850882850983A3DE
:104EBC00A3A3A3E0F9024ABFE875F005A4C8AAF0C1
:104ECC002AF974A928FE740439FF228E828F83E09C
:104EDC00F8A3E0F5838882A3A32274F7121747780E
:104EEC00FF79FF7F00EFFC75F005A4CCAEF02EFD32
:104EFC0074A92CFC74043DFD8C828D83A3A3A3E0C8
:104F0C00603EEC2473F582ED124E18FE74FF68704F
:104F1C000374FF69700774016E701C800D74016E50
:104F2C00700DEC2479124F605016EC2479800BEC48
:104F3C00242E124F605009EC242EF582ED1246AE51
:104F4C000FEFC39403409EC3EA98EB994004E8FA30
:104F5C00E9FB801FF582ED124F70C3E098A3E09936
:104F6C0022F582EB124F74223400F58322A2E092D8
:104F7C00AF79007F0102181974F6121747EAFEEB9D
:104F8C00FFEE2463F508EF3400F5098016AA08AB90
:104F9C0009120AE51212A79007C5E004F09007C6A3
:104FAC00E004F08508828509831253CE70DFEEFA97
:104FBC00EFFB120A91EEFAEFFB120BED0247C074F5
:104FCC00F7121747EAFEEBFF8E828F83A3A3A3A3EE
:104FDC00E0FA7B001207FDEEFAEFFB120AA9120BA6
:104FEC00CF8090C082C0837B00EBF875F005A4C81D
:104FFC00AAF02AF974A928F8740412502CE0601451
:10500C00E8246E124E15600CE8246A124E157004DA
:10501C00790180090BEBC3940340CE790002405B0D
:10502C0039F988828983A3A3A32274F612174778CF
:10503C00008808748D125058740412506008E8C32C
:10504C00940840ED90048D74010247BF2508F58249
:10505C0022F582EF124B4D2274F712174774FC1293
:10506C0016F0851882851983E4F0A3F0A3F0A3F061
:10507C00120AFDE9851882851983F0120AFD740164
:10508C0012173BE9F0120AFD740212173BE9F08586
:10509C0018828519831215DE7404121706024F7FCD
:1050AC0074F6121747EA240D125102EC2403F8EDA2
:1050BC003400F988088909EC2407F8ED12510C1218
:1050CC0046B2850882850983E0FAA3E0FB121665D7
:1050DC008E828F83E8F0A3E91253D4850882850968
:1050EC0083E0FAA3E0FB1216658B09EA450960031D
:1050FC001251180247C0F8EB3400F9E8FEE9FF2220
:10510C003400F9E8FCE9FD8C828D83228E828F833A
:10511C00E02401F0A3E03400F02274F6121747EA01
:10512C00242EF582EB124E18FCA3E0FDEA246F123C
:10513C005102780079FAECFAEDFB1216658E828F2B
:10514C0083E8F0A3E9F0780079FAECFAEDFB12169B
:10515C00658B09EA450960031251180247C074F0C7
:10516C00121747EAFEEBFF741012173B7808121562
:10517C00C0120C838A0C8B0D8C0E8D0F9090707856
:10518C000C121526909004780C121587780C1219B5
:10519C0056124ED71215DE1221387404121706E976
:1051AC0060030252528E828F83E02402F8A3E01235
:1051BC005321FAE9FB8A828B837808121539909077
:1051CC000478081215C08A828B83780812159AEE1F
:1051DC00240BF582EF124AC9C082C0838E828F8362
:1051EC00A3A3A3A3A3E02401F8A3E03400F9D08384
:1051FC00D082E0687003A3E069700479018049EE05
:10520C002407F8EF3400F98882898312511CEE24AC
:10521C00731252597014EE24741252627003A3E08C
:10522C006D70078A828B8312511CEE247F125259A7
:10523C007014EE24801252627003A3E06D70078A22
:10524C00828B8312511C79007F08021819F582EFAA
:10525C00124E1C640122FAEF3400FB8A828B83E02D
:10526C00FCA3E0FD88828983E06C2274F31217475B
:10527C00E9FEECFFEA2462F582EB12525C60030259
:10528C0053159061D0E0F508EA2482F582EB124EBA
:10529C0018F50C60047804800278007480C39508BB
:1052AC00FC95E0FDEF28F8E41253212402F8E934D0
:1052BC0000F9EC98ED99A2D265D0334048740D12E8
:1052CC00173BE0F50AA3E0F50BE50C6015780A1224
:1052DC00195AEFFCEEF9120B6374021217067404E0
:1052EC002FFF74012FF5D98ED97800800C8808E532
:1052FC000A125058E50B1245ABE8C39F40EF75E11D
:10530C0095790080067907800279FF02493A8A0A6A
:10531C00EE250AF8EF3400F9E82274F7121747A2C9
:10532C00AFE433F508C2AFEA2402F8EB3400F98A93
:10533C00828B83E0FEA3E0FFEE4F600E88828983B0
:10534C00E0FAA3E0F5838A8280048A828B83ECF0F6
:10535C00A3EDF08882898312537AF0E508024F7925
:10536C008C828D83E8F0A3E9F08A828B8322ECF0A7
:10537C00A3EDF08C828D83E4F0A32274F71217470F
:10538C00EAFCEBFD7A007B00A2AFE433FEC2AF8CEB
:10539C00828D831253CE6022E8FAE9FB8A828B83DA
:1053AC001246B212536CE4F0A31253D4E849700ABB
:1053BC008C828D83A3A3E4F0A3F0EEA2E092AF0263
:1053CC004F7F1253DDE84922F08C828D831253DD1E
:1053DC0022E0F8A3E0F922C082C0838003125411AA
:1053EC00E9F874FF28190470F4ECFAEDFB02405B49
:1053FC00C082C0838003125411E9F874FF28190489
:10540C0070F402405B8C828D83E08A828B83F08CFB
:10541C00828D83A3AC82AD838A828B83A3AA82AB59
:10542C00832274F012174774FA1216F0890BECFEF3
:10543C00EDFF750A008A088B09780812199E000482
:10544C0010785671548F54A954C154DF54F7541A20
:10545C0055325546557055F855095620563A5678DA
:10546C00565B5686557401650B60030256738E822B
:10547C008F83E0F8C394034003025673E890128DB7
:10548C000256707402650B60030256738E828F8312
:10549C00125E3090128EE8F0A3E90256707401652A
:1054AC000B60030256731256A54003025673E89024
:1054BC000DBF0256707401650B60030256738E8229
:1054CC008F83E0F8C394054003025673E8900DC037
:1054DC000256707401650B60030256731256A54098
:1054EC0003025673E8900DC10256707410650B6080
:1054FC0003025673750810750900780812195A7A48
:10550C00C27B0D120F6B74021217060256997401AE
:10551C00650B60030256731256A54003025673E8DE
:10552C00900DD20256707401650B60030256738E97
:10553C00828F83E09012910256707404650B6003A5
:10554C000256738E828F83780C1215C0909010784F
:10555C000C1213CC5003025673900DD4780C121508
:10556C00CF025699E960030256731204FDE97005E7
:10557C0012113F8060900E67806E7407650B60039C
:10558C00025673750806750900780812195A8E822E
:10559C008F83A3AC82AD83740212173BAA82AB83B8
:1055AC00120F7174021217067C007D00851882851B
:1055BC001983AA82AB838E828F83E0F91210D9E90A
:1055CC00F508C3940A40030256961204FDE9700CC8
:1055DC00A908121145795012132B806E7468250896
:1055EC00F582740E3400F583740180787401650BB8
:1055FC0070751256A55070E8900DD38067740165D4
:10560C000B70648E828F83E0F8C3940A5059E89033
:10561C00129080507401650B704D8E828F83E0F870
:10562C0074F928C3940A503FE890129280367401A2
:10563C00650B7033900E66E0F88E828F83E0900ECF
:10564C0066F0E87048E064017043121133803E74D8
:10565C0001650B70128E828F83E0F8C3940450079F
:10566C00E8901293F08026750A188021C3EA9427DB
:10567C00EB940050157402650B700F8E828F8312A1
:10568C0062201203E3E9F50A8003750A02A90A7481
:10569C00061217067F080218198E828F83E0F8C352
:1056AC0094022274F212174774DA1216F0890AEC7B
:1056BC00FEEDFF742012173BAC82AD8375838F75A2
:1056CC0082FA7406121603742012173BAC82AD8357
:1056DC001210D9E9F508743412173BE0F50BE9C345
:1056EC00940A400302580A12111BE9F50990128D15
:1056FC00E06402700474018001E4F50C780C12195A
:10570C005EAD0BAC09A908EEFAEFFB12116974013E
:10571C001217067C147D007900740C12173BAA82B8
:10572C00AB83120F8375F006E508A4F50B740C120D
:10573C00173BAC82AD837A107424250BF912132518
:10574C00E9703D7C1079FF740C12173BAA82AB8375
:10575C00120FE9E9702A741C12173BAC82AD837AE4
:10576C00047425250BF9121325740C12173BAC820B
:10577C00AD83E509A2E0E433F9EEFAEFFB1204790C
:10578C00851882851983AC82AD837A0C74702508D8
:10579C00F9121325E97053851882851983AA82ABF7
:1057AC008312110F750800E50875F003A4F8A9F031
:1057BC00851882851983E58228F8E58312602D12FD
:1057CC00621A601D88828983A3A3E0F50C750D0015
:1057DC00780C12195AEEFAEFFB1207077402121723
:1057EC00060508E508C3940440BDE509A2E150464E
:1057FC00900DBEE0F9EEFAEFFB12070D803874083D
:10580C00650B703290128DE06402702A7C007D0072
:10581C00A90AEEFAEFFB121163126AAF6018125E5E
:10582C003588828983E5824583600B7C007900EEA4
:10583C00FAEFFB121745790074260261F674F01228
:10584C001747EAFEEBFF8C088D09750A0AE9600C14
:10585C001460091460371460790258F8121127E9A2
:10586C00F50AC3940A40030258F8E5084509607C20
:10587C00750E06750F00780E12195AEEFCEFFDAA84
:10588C0008AB09120F6B7402121706805F750B00C0
:10589C00750E06750F00780E12195AEEFCEFFDE529
:1058AC000B75F00EA4F8A9F074E028FA740D39FB0E
:1058BC00120F7D7402121706E9600C850B0AE50ABB
:1058CC00C3940A50278016050BE50BC3940A501C91
:1058DC0080BE12112DE9F50AC3940A500FE5084554
:1058EC00096009AA08AB09A90A121121A90A0256D2
:1058FC00A074F4121747890875091574FF6A7003B0
:10590C0074FF6B70277E00AC087A027B00EEF912F4
:10591C0010FDE960037509000EEEC3940A40E8E53A
:10592C000860537A577B111208F9804A1208DB8AF7
:10593C000A8B0BAE0AAF0BEE4F60387C007D00EE8D
:10594C002405FAEF3400FB8E828F83A3A3A3A3E07C
:10595C00F91210D9E9C3940A500CAC087A027B00F6
:10596C001210FD750900E508600CEEFAEFFB121140
:10597C00578003750914A9098005740E1217067F48
:10598C000402181974F2121747ECFEEDFF75081596
:10599C00740E12173BE0F50AA3E0F50B74FF6A7066
:1059AC000374FF6B7021750900AC0AAD0BEEFAEFB6
:1059BC00FBA909121103E960037508000509E50943
:1059CC00C3940A503F80E21208DB8A828B83E58203
:1059DC004583602D7C007D00E5822405FAE5833447
:1059EC0000FBA3A3A3A3E0F91210D9E9C3940A50B6
:1059FC0013AC0AAD0BEEFAEFFB1211037508008025
:105A0C0003750814A9080261F9C082C083900DD8EF
:105A1C00EAF0A3EBF0900DBEE0FC7D007A267B0053
:105A2C001203E3900DBEE0F91206890266EF74ECE6
:105A3C001217478A088B09E9FE741412173B780C6D
:105A4C001215C07F00EE702E780812195A90901023
:105A5C0078101215C0780C791012146BAA10AB11B7
:105A6C00AC12AD1312048B7402121706E9FF600915
:105A7C007901AA08AB09120485EFF97F0C021819F9
:105A8C0074F012174774EC1216F0EAFEEBFFEE24DA
:105A9C000CF50EEF3400F50F8E828F83A385820AEE
:105AAC0085830BEE2403F508EF3400F5098E828F05
:105ABC0083A3A3E024FA7003025DD124FD700302DA
:105ACC005CE8147003025B64146010147003025DD4
:105ADC001C24FE7003025C60025E29EE2409F50AA8
:105AEC00EF3400F50B126AAF6043E0F58388821245
:105AFC005E30880C890DE8450D6032850E82850F6D
:105B0C0083E0F50E780E12195EEE240BF582EF127F
:105B1C005FF4F9850A82850B831262200A0A0AABAC
