:020000040000FA
:0600000002010A022020AB
:03002B000222A20C
:0300330002228422
:03003B000222C3DB
:030043000222385E
:03005300022096F2
:03006B0002225E10
:10008300021ECFE5C754F84401F5C77901220000E9
:100093000080FB120086B900030200F4E4791A78A9
:1000A30002B800028004F709D8FCE4791C7802B88E
:1000B30000028004F709D8FCE49002817855791096
:1000C3008002F0A3D8FCD9FA9011D5AA82AB839011
:1000D300013A78DC79018015E493A3AC82AD838A7D
:1000E300828B83F0A3AA82AB838C828D83D8E9D9D8
:1000F300E77582A17583FF740112011C75829175E6
:100103008300740012011C75D00075813F7518813E
:10011300751902759F00020096C09FF59FE473D086
:100123009F22D083D082C09FE493C0E0740193C028
:10013300E0740293F59F2289039B03C5038F03FF9A
:100143000000B4000028002800283075A000A0009B
:10015300A000A00000080008E001F000100010005B
:10016300100010001000100050005000500010004C
:100173001000D0070000000000000F000100050080
:10018300307507001000010081FF00000000FF022E
:100193000202739001000063900279900100002D28
:1001A30012026B90010000B2020279900100002E4E
:1001B30012026990010000C802FFFF0100FF200244
:1001C300739001000060900279900100005C1202BC
:1001D3006F900000000000026D90030000A5036F04
:1001E3000B6F0B6F0B6F0B6F0B6F0B6F0B6F0B6F3C
:1001F3000B6F0B6F0B6F0B6F0B850DA30D7F0DFF3C
:10020300FF01E803053F10020AFF009B10FEFF36C3
:1002130000011201251EBB0312012534BB03120189
:100223002563BB0312012599BB03120125B0BB0350
:10023300120125E7BB031201253ABC031201255124
:10024300BC03120125B5B103120125CCB103120180
:1002530025FDB10312012538B20312012562B20351
:100263001201258CB203120125A3B203120125BA90
:10027300B203120125D1B203120125FAB20312010E
:10028300250DB30312012523B3031201254DB30337
:100293001201250080021201250481021201253179
:1002A3008102120125878102120125AA810212010E
:1002B30025BE8102120125C08102120125E38102BC
:1002C300120125F28202120125B683021201258B47
:1002D3008402120125FC8402120125888502120181
:1002E300258B85021201251386021201254E8602F3
:1002F300120125B58602120125EC86021201257A28
:100303008702120125048802120125538802120173
:1003130025608802120125638802120125C3880221
:10032300120125CE88021201254D890212012550A2
:1003330089021201256389021201256689021201CD
:1003430025F589021201250F8A021201251F8A024F
:100353001201254F8A021201255C8A021201255FD0
:100363008A02120125E08A02120125CE8B021201B4
:1003730025808C0212012542AF021201253FB002F3
:10038300120125C1B002120125E1B0021201252993
:10039300B1021201257CB102120125E0B102120162
:1003A300256DB20212012527B30212012536B602CA
:1003B300120125C1B702120125E4B7021201259DDE
:1003C30095031201253A97031201259E9703120103
:1003D30025FD97031201250B980312012534980379
:1003E30012012521EE0212012549EE0212012577A1
:1003F300EE02120125AEEE021201250CEF021201EC
:100403002557EF02120125A2EF02120125E2EF02A6
:1004130012012528F00212012556F00212012513BC
:10042300F1021201251DF1021201252AF102120126
:10043300255DF10212012529F20212012535F2028E
:100443001201254DF20212012557F202120125D5A0
:10045300F202120125CFC003120125DDC0031201F0
:1004630025F5C0031201250DC10312012525C10382
:10047300120125F7D401120125A3D5011201251E6E
:10048300D6011201253FD7011201257BD7011201A5
:100493002524D8011201250BD9011201256FDA0198
:1004A300120125C6DA0112012547DB0112012537A6
:1004B300DC0112012584DC011201250ADD01120190
:1004C300253CDD0112012550DF0112012592DF01D8
:1004D300120125B0DF0112012552E0011201251A94
:1004E300E10112012527E3011201254899031201B5
:1004F300255E9903120125849903120125A09A030D
:10050300120125AA9A03120125DF9B03120125D7A5
:100513009C03120125C984031201256D8503120171
:1005230025A08503120125EA8503120125AD870362
:100533001201252BA401120125A4A401120125B443
:10054300A401120125A2A501120125BCA5011201D6
:10055300251BA60112012526A60112012510A701BC
:10056300120125C6A701120125ADA90112012566B5
:10057300AB0112012542AC01120125F6AC011201B7
:100583002533B001120125E1B00112012550B2015A
:10059300120125D0B30112012577B401120125C040
:1005A300B401120125F7B40112012594B50112011A
:1005B300251FB601120125FCB60112012551B70111
:1005C300120125B0B801120125C0B801120125EDB1
:1005D300B80112012544B901120125EDB901120137
:1005E30025F4BA01120125BEBB011201251EBD016E
:1005F30012012561BD0112012506BE011201252C40
:10060300BE011201253AC0011201253FC0011201AA
:100613002544C20112012591C20112012504C3011F
:1006230012012537C301120125D9C3011201258205
:10063300C401120125BAC401120125BDC40112016E
:100643002505C50112012547C5011201259EC501D6
:1006530012012520FD0212012533FD02120125415D
:10066300FD0212012589FD021201259FFD021201DF
:1006730025E6FD02120125FAFE0212012587FF027B
:10068300120125D2FF021201253823001201254849
:100693002300120125AB2300120125F023001201D0
:1006A30025A62400120125812500120125AA250073
:1006B300120125DA25001201251A2800120125014D
:1006C3002A00120125D92B001201251D2D0012012C
:1006D30025842F00120125923000120125E43100F8
:1006E300120125EE32001201253033001201256874
:1006F30033001201258A3300120125ED3300120164
:1007030025AF38001201254439001201259839001C
:10071300120125BF3900120125FD39001201251CE4
:100723003A00120125763A00120125763B001201A8
:1007330025FB3B001201254DE80212012557E80273
:10074300120125FFE80212012542E9021201255D8B
:10075300E902120125EDE90212012515EA0212014F
:10076300254DEA0212012584EA02120125ADEA02AF
:10077300120125E7EA02120125FCEA02120125C94A
:10078300EB02120125ECEB021201250EEC02120121
:100793002523EC02120125A9EC02120125E3EC0248
:1007A3001201255BED02120125A4ED02120125CEF3
:1007B300ED02120125F9ED02120125BBBD03120161
:1007C3002540E3011201256EE301120125C9E4016D
:1007D300120125A9E501120125C8E50112012545EC
:1007E300E60112012588E60112012503E801120141
:1007F3002572E8011201259DEA0112012521ED016F
:10080300120125D2ED01120125C8EE01120125685E
:10081300EF0112012566F001120125F1F001120129
:100823002568BC03120125D1BC0312012525BD0394
:1008330012012554BD0312012575BD031201254A7A
:100843008903120125B78903120125FE89031201C9
:1008530025168B03120125128C03120125F58C0337
:10086300120125C0DA0212012502DB02120125DB87
:10087300DB02120125D5DC02120125B7DD021201CC
:100883002520DE021201253CDF02120125A8DF022A
:10089300120125ABDF02120125D4DF021201254E1E
:1008A300E002120125F3E00212012508E102120120
:1008B300254EE10212012567E1021201256AE102D8
:1008C300120125E19C031201251D9D031201255BE5
:1008D3009D03120125259E03120125949E031201F7
:1008E30025CF9E031201250D9F031201253D9F0372
:1008F300120125649F03120125D29F0312012514BF
:10090300A003120125E96A00120125AC6C00120153
:1009130025776E00120125B36E00120125E06E00EB
:10092300120125A26F00120125E96F001201252D86
:1009330070001201253F70001201257F7000120123
:1009430025AC7000120125FA7000120125347100E4
:10095300120125577100120125A9710012012537D3
:1009630072001201250D7300120125F773001201A5
:1009730025C67500120125C77A00120125167B00D2
:100983001201255D7B00120125907D001201251EB9
:10099300AD0312012590AD03120125E6AD0312014B
:1009A300252AAE031201254AAE0312012597AE0391
:1009B300120125DFAE0312012532AF031201258395
:1009C300AF03120125623C00120125AB3C0012016A
:1009D30025D83C001201250B3D001201251B3D00CB
:1009E300120125273D00120125383D001201251F64
:1009F3003E001201257D3E00120125B23E00120188
:100A030025F53F00120125474000120125974000BC
:100A1300120125EA4000120125E941001201256473
:100A230043001201253B44001201254B44001201EF
:100A3300256D44001201257044001201253E450036
:100A43001201250F4600120125DE46001201253250
:100A53004700120125924700120125F647001201B3
:100A630025A74800120125724900120125144A00E6
:100A7300120125894A00120125F54A001201254A6F
:100A83004B001201257B4B00120125164C0012016D
:100A930025FA4D00120125494E001201258C4E0006
:100AA3001201250E4F00120125AC4F00120125F350
:100AB3004F001201251750001201255E500012014C
:100AC300258C5000120125D450001201254E5100EF
:100AD3001201259251001201259F52001201254E49
:100AE3005300120125AF53001201250B54001201CC
:100AF300252454001201250FB90212012562B902FF
:100B03001201256EB90212012543BA021201256AA8
:100B1300BA02120125A5BA0212012511BB02120164
:100B2300254DBB0212012586BB021201259EBB0285
:100B3300120125F3BB021201250CBC02120125553B
:100B4300BC0212012568BC0212012582BC021201FB
:100B53002598BC02120125CBBD0212012512BF024A
:100B630012012514C0021201250EC1021201252D06
:100B730023001201255DF302120125CCF6021201B6
:100B83002505F8021201251799021201258D9B02F2
:100B9300120125939B02120125FB9D02120125627E
:100BA300A002120125008003120125968003120181
:100BB300254D81031201257781031201256A8303E1
:100BC300120125928403120125879001120125BB8E
:100BD3009001120125A89A01120125FC9B01120123
:100BE30025079D01120125879E01120125689F019A
:100BF300120125A29F01120125C59F01120125079C
:100C0300A00112012551A0011201255BA0011201CF
:100C13002505A101120125DEA10112012532A20140
:100C230012012594A201120125E7A2011201251642
:100C3300A30112012553A30112012529A7031201C0
:100C4300259FA703120125B5A703120125F6A703C4
:100C530012012530A803120125A9A803120125E4D6
:100C6300A80312012557A90312012595A90312010F
:100C7300259EA903120125AAA903120125C6A903CA
:100C8300120125F1A90312012522AA031201258EBF
:100C9300E102120125A1E102120125BBE1021201C9
:100CA30025E4E10212012527E20212012566E20290
:100CB300120125A4E20212012509E3021201251EF5
:100CC300E30212012535E30212012543E302120177
:100CD3002552E30212012567E3021201257CE30298
:100CE30012012587E30212012593E302120125A0D5
:100CF300E302120125B3E302120125BEE30212014E
:100D030025E3E3021201258AE4021201259FE4028E
:100D1300120125B4E402120125CEE402120125E9F1
:100D2300E40212012506E50212012511E502120172
:100D330025CDE502120125B9E602120125DEE60200
:100D4300120125E9E602120125FEE602120125122F
:100D5300E70212012573E70212012579E702120166
:100D6300257FE70212012585E7021201259DE7028F
:100D7300120125D0E702120125ECA4021201250E6F
:100D8300A502120125EEA502120125C5A802120132
:100D930025F1A90212012515AB02120125C7AB02E9
:100DA30012012568AC0212012577F101120125FB1E
:100DB300F101120125AAF20112012509F401120120
:100DC300252AF60112012516F7011201254BF70119
:100DD3001201256DF7011201251CF80112012514DA
:100DE300FA011201253DFA01120125CFFA01120180
:100DF3002501FB011201250EFB0112012565FB01F3
:100E03001201258BFB01120125F8FD01120125FBBF
:100E1300FE0112012553FF011201258BC6011201A8
:100E23002595C7011201257CC80112012586C80139
:100E3300120125A8C801120125B4C8011201254DCC
:100E4300CA011201257CCA0112012598CB011201A6
:100E530025F1CB0112012557CD0112012536CE0113
:100E630012012592CE01120125FFCE011201253A6E
:100E7300CF0112012579CF0112012532D2011201CE
:100E8300254CD201120125D8D201120125E6D20147
:100E93001201253FD3011201254DD301120125C0B3
:100EA300D30112012524D4011201256ED4011201AC
:100EB300255FB30312012584B303120125F6B3039F
:100EC30012012574D3021201257DD3021201258656
:100ED300D3021201255DD4021201250ED60212019E
:100EE3002544D6021201257ED602120125B4D6026C
:100EF300120125EED60212012522D7021201254E38
:100F0300D70212012597D702120125D1D702120168
:100F1300251AD80212012572D802120125A7D80278
:100F230012012502D9021201253CD9021201258D95
:100F3300D902120125C3D902120125FDD9021201DA
:100F43002520DA0212012560C3031201258CC30395
:100F5300120125E7C303120125F1C3031201250181
:100F6300C403120125D9C202120125E3C2021201F0
:100F73002521C3021201256AC302120125A4C3025B
:100F8300120125FEC3021201251FC402120125F717
:100F9300C60212012500C7021201254DC702120124
:100FA3002576C70212012580C702120125ECC7026C
:100FB3001201257EC802120125C8C802120125FEAE
:100FC300C8021201258AC902120125CBC9021201E6
:100FD3002502CA0212012514CA0212012533CA02CC
:100FE3001201253CCA0212012504CB02120125D8A5
:100FF300BF03120125C4AF03120125FAAF03120187
:101003002530B0031201257BB103120125957F0022
:10101300120125AB7F00120125B57F00120125B710
:101023008D03120125CC8D031201257F8E0312013E
:1010330025BF8E03120125D88E03120125138F03BA
:10104300120125608F03120125928F03120125D40B
:101053008F03120125DF9103120125A2C50312019B
:1010630025A6B603120125CFB603120125FEB6034A
:1010730012012596B703120125AEB703120125F01D
:10108300B70312012550F80212012592F80212014A
:101093002514F90212012529F9021201257AF90210
:1010A300120125BFF9021201251AFA02120125695C
:1010B300FA02120125BFFA02120125B4FB02120142
:1010C30025ABFC02120125E8FC0212012533C503FE
:1010D300120125565400120125D75600120125711D
:1010E3005800120125255900120125B85900120193
:1010F300253D5A00120125625A00120125B45A00F7
:10110300120125695E00120125EF5E0012012522FE
:1011130060001201255C600012012591600012013C
:10112300254E6200120125826200120125DF620052
:101133001201252863001201258F6300120125087F
:1011430064001201253764001201254F6400120167
:1011530025986500120125A86500120125C66600C1
:10116300120125E866001201251E6700120125CD34
:1011730068001201255A69001201259969001201BC
:1011830025B26A00120125AAC203120125BBC203BC
:1011930012012506C60312012545C603120125F7D0
:1011A300C6031201250BC4031201251BC40312013C
:1011B3002536C4031201259EC403120125D4BE03A0
:1011C30012012559BF03120125BFBF0312012535A3
:1011D300B8031201255EB803120125C9B803120131
:1011E300251AB90312012575B903120125C8A303F2
:1011F300120125DDA30312012518A503120125946D
:10120300A50312012508A60312012522A603120134
:101213002539A6031201254CA60312012566A60350
:101223001201257DA603120125A3A603120125F4AD
:10123300A603120125EC9103120125039203120167
:10124300257D92031201256193031201253895032D
:101253001201255CA003120125ECA00312012578DD
:10126300A10312012511A203120125A2A203120157
:1012730025ABA20312012529A3031201253CA303D5
:1012830012012552A303120125B2A303120125C59E
:10129300A303120125A8C40312012518C5031201D3
:1012A3002528C503120125AFB903120125BBB903D4
:1012B300120125E8B903120125D9BA031201250445
:1012C300B50312012556B503120125E0B50312013A
:1012D3002547B60312012552AA031201257CAA034E
:1012E3001201254AAB0312012525AC03120125ACDB
:1012F300AC0312012532CB02120125F9CB021201F4
:101303002530CC021201255ACC02120125BACC0297
:1013130012012510CD0212012575CD021201250DF2
:10132300CE021201251CCF02120125B3D0021201F5
:101333002540D102120125A7D102120125BED102F7
:10134300120125D8D20212012516D302120125BE9D
:10135300C103120125F18C02120125048E02120130
:1013630025D88F021201256D900212012594910256
:10137300120125B79102120125D1940212012523EE
:101383009502120125C19502120125F09602120160
:1013930025959702120125169802120125AB980292
:1013A300120125D7980212012585C6031201254F84
:1013B300C603120125B1C603120125D9C603E0668F
:1013C300701008A3E066700A08A3E066700408A31F
:1013D300E06622C3E7960809E7960809E796080935
:1013E300E79622C3E09608A3E09608A3E09608A335
:1013F300E09622C008C3E096F50808A3E0964208E9
:1014030008A3E096420808A3E09645087001D3D0EC
:101413000822080808EAC0E0EBC0E086F0E7A4FA77
:10142300180986F0E7A42AFA180986F0E7A42AFA2D
:10143300180986F0E7A42AFA1986F0E7A4FBE5F079
:101443002AFA190886F0E7A42BFBE5F03AFA190803
:1014530086F0E7A42BFBE5F03AFA18180986F0E7C3
:10146300A4C5F02BFBE43AFA1908E7C5F0C6A42695
:10147300F6E5F03BFBE43AFA1886F0E7A4F6E5F06C
:101483000826F6E43B08F6E43A08F6D0E0FBD0E0A1
:10149300FA22E4CFC0E0E4CEC0E0E4CDC0E0E4CC87
:1014A300C0E075F020C3E633F608E633F608E6330A
:1014B300F608E633F6181818EC33FCED33FDEE337B
:1014C300FEEF33FFC3EC9709ED9709EE9709EF970A
:1014D300191919400FFFEC97FC09ED97FD09EE97D9
:1014E300FE191906D5F0BEECF709EDF709EEF70979
:1014F300EFF7191919D0E0FCD0E0FDD0E0FED0E001
:10150300FF226016080808C6C313C618C613C618F8
:10151300C613C618C613C6D5E0EA22700908080820
:10152300226016181818C6C333C608C633C608C6C1
:1015330033C608C633C6D5E0EA22E627F60809E62D
:1015430037F60809E637F60809E637F622E026F605
:1015530008A3E036F608A3E036F608A3E036F62241
:10156300E026F008A3E036F008A3E036F008A3E095
:1015730036F022C3E697F60809E697F60809E697D8
:10158300F60809E697F622C3E096F008A3E096F082
:1015930008A3E096F008A3E096F022E657F60809C0
:1015A300E657F60809E657F60809E657F622E05625
:1015B300F608A3E056F608A3E056F608A3E056F6AD
:1015C30022E056F008A3E056F008A3E056F008A383
:1015D300E056F022E066F608A3E066F608A3E066AC
:1015E300F608A3E066F622E0F608A3E0F608A3E017
:1015F300F608A3E0F622E6F008A3E6F008A3E6F077
:1016030008A3E6F022E0FAA3E0FBA3E0FCA3E0FDDD
:1016130022EAF0A3EBF0A3ECF0A3EDF022CAC0E0C2
:10162300E6F0A308DAFAD0E0FA22CAC0E0E0A3C5E4
:1016330082CCC582C583CDC583F0A3C582CCC582C8
:10164300C583CDC583DAE6D0E0CA22C3E498F8E4C3
:1016530099F912168F8026C3E49AFAE49BFBE920DA
:10166300E7E912168FE498F8E499F922C3E498F8AD
:10167300E499F912168FE498F8E499F9C3E49AFA15
:10168300E49BFB22EB20E7CFE920E7E0B90010BBA6
:101693000008E88AF084F8AAF022E4FBC8FA22EBF7
:1016A30070227B10C833C8C933C9335007C39AC3E8
:1016B300DBF280069A50012ADBEAC833F4C8C93347
:1016C300F4C9FA2275F008E4C833C8C933C933C969
:1016D3009AC99B5004C92AC93BD5F0ECFBC833F423
:1016E300C8E4C9FA22600D08C6A2E713C618C613D8
:1016F300C6D5E0F322600C08C6C313C618C613C6CA
:10170300D5E0F422700422600D18C6C333C608C6A0
:1017130033C6D5E0F41822251810AF08F518400297
:1017230015198008F51840021519D2AF22C0D0252B
:101733001810AF08F518500205198008F518500263
:101743000519D2AFD0D0222518F58210AF08F518AD
:10175300400215198008F51840021519D2AF8519F2
:1017630083222518F582E43519F58322E4732518BD
:10177300C582C0E0E51934FFC583C0E0E518C39511
:101783008224F810AF088583198582188008858321
:1017930019858218D2AFCEF0A3E520F0A37808E62E
:1017A30008F0A3DEFAEFF0A3E58124FAF8E608F0E7
:1017B300A3E608F0A3E608F0A30808E608F0A3E60A
:1017C30008F0A315811581D0E0FED0E0F81581154E
:1017D300811581E8C0E0EEC0E0222518C582C0E093
:1017E300E51934FFC583C0E0E518C3958224F910D9
:1017F300AF08858319858218800885831985821827
:10180300D2AFCEF0A3E520F0A37808E608F0A3DE7C
:10181300FAEFF0A3E58124FBF8E608F0A3E608F06D
:10182300A30808E608F0A3E608F0A315811581D004
:10183300E0FED0E0F815811581E8C0E0EEC0E022BB
:10184300851983851882E0A3FEE0A3F5207808E0DC
:10185300A3F608DFFAE0A3FFE0A3C0E0E0A3C0E043
:10186300E0A3C0E0E0A3C0E0E0A3C0E010AF0885C0
:1018730082188583198008858218858319D2AFD091
:1018830083D082020122851983851882E0A3FEE0BA
:10189300A3F5207808E0A3F608DFFAE0A3FFE0A3AE
:1018A300C0E0E0A3C0E0E0A3C0E0E0A3C0E010AF6D
:1018B300088582188583198008858218858319D243
:1018C300AFD083D08222C0D02518C582C0E0E519ED
:1018D30034FFC583C0E0E518C3958224F310AF0835
:1018E3008583198582188008858319858218D2AF6C
:1018F300C8F0A3E9F0A3EAF0A3EBF0A37908E709A2
:10190300F0A3D8FAECF0A3EDF0A3EEF0A3EFF0A36D
:10191300D0E0F0A3D0E0F0A3D0E0F0A3E520F0A363
:10192300E5F0F0A322851983851882E0C0E0A3E0E7
:10193300F9A3E0FAA3E0FBA37808E0F608A3DFFA33
:10194300E0FCA3E0FDA3E0FEA3E0FFA3E0C0E0A36F
:10195300E0C0E0A3E0F5D0A3E0F520A3E0A3F5F019
:1019630010AF0885831985821880088583198582BD
:1019730018D2AFD082D083D0E0F8D0E032740480A4
:1019830006740280027401C0E0F40412174AD0E026
:10199300121620227404800474028000CCC0E0ED8F
:1019A300C0E0E518C39CCCAD1950011D10AF068CE7
:1019B300188D1980068C188D19D2AF12162DD0E010
:1019C300FDD0E0FC22D083D082E9C0E0E493A3C33E
:1019D30086F0C5F095F0F908E493A386F0C5F09579
:1019E300F0700BE493A3C3994005E9048002A3E4D8
:1019F30075F002A42582F582E5F03583F583D0E006
:101A0300F9E493A3C0E0E493C0E022D083D082EC56
:101A1300C0E0EDC0E0E493A3FCE493A3FDED4C60D0
:101A23000D121A5AEC24FFFCED34FFFD80EFE49312
:101A3300A3FCE493A3FDED4C600D121A99EC24FF73
:101A4300FCED34FFFD80EFD0E0FDD0E0FCE493A398
:101A5300C0E0E493C0E022C0E0C3E49396087401BD
:101A6300939618400FE49366700808740193661800
:101A730070007019A3A3C3E4939608740193961896
:101A8300A3A3400DD0E0D0E0D0E0021A4AA3A3A361
:101A9300A3A3A3D0E022C0E0C0F088F0E493667073
:101AA300080874019366187000A8F0A3A3700BD004
:101AB300F0D0E0D0E0D0E0021A4AA3A3D0F0D0E007
:101AC3002274F51217DDEAFEEBFFEE2434F8EF344F
:101AD30000F988088909EE2435121BF0F8EE243743
:101AE300121BF0F50AEC850AF0A4FCAAF0850AF0B3
:101AF300EDA42AFDE82CF8E43DF97A257B001216C3
:101B03008FEA850882850983F074075AF87401B84F
:101B130000028004C333D8FCFBEA131313541FF8E9
:101B2300EE28F8EF3400F9E8245DF582E9121BF39F
:101B33005B6003EA801CEE2436121BF0F5F0EA84A6
:101B4300A8F0EE28F8EF3400F9E82438F582E9121A
:101B53001BF3F97F0402188974F51217DDEAFEEB13
:101B6300FFEE2434121BF0C0E0EE2435F582EF348F
:101B730000F583D0E0F08E828F83A3A3A3A3A3E019
:101B8300FAA3E0FB8E828F83A3A3A3A3A3A3A3E063
:101B9300FCA3E0FDECC39AF50AED9BF50BEE247F65
:101BA300F508EF3400F509850882F583E0640170D8
:101BB3002BEE2480F582EF3400F58312199B121B60
:101BC300F97402121730E960137CBF7D07EEFAEF58
:101BD300FB120A85850882850983E4F0AC0AAD0B04
:101BE300EEFAEFFB121AC4122224021B56F582EFFF
:101BF3003400F583E022C082C0838518828519836F
:101C0300E0F8A3E0F9C3EA9CEB9D5010C3EC98ED18
:101C130099401BC3EA98EB995014800EC3EA98EBE2
:101C2300994007C3EC98ED9940047901800279004B
:101C3300D083D0822274ED1217DD900479E064081A
:101C43006005E06407702C9061C8E060269004A7EB
:101C5300E0F874FF68601CE875F005A4C8AAF02AD0
:101C6300F974A928FE740439FF8E828F83A3A3A37A
:101C7300E070057900021DD8EE2468F510EF3400FA
:101C8300F511906060E0851082851183F0750AFB81
:101C9300750B07750800750900E5D914F50EE5D92C
:101CA3005403F50F601CEE2482F50CEF3400F50DA0
:101CB3007403650F6058E50E6013EE2467121BF082
:101CC300700B793DEEFAEFFB120AAF80A69007F690
:101CD300E064016026850C82850D83E0600478044E
:101CE30080027800850E08E508C398FA95E0FB1298
:101CF30009178A088B09EA45097006120D5B021C55
:101D030076850C82850D83E070048A0A8B0B78003C
:101D13008016E5D9C0E08812E50A2512F582E50BA5
:101D23003400F583D0E0F008E8C3950E40E4850C59
:101D330082850D83E0602874FC250EF50E780A1267
:101D43001984AC0EA90FEEFAEFFB120B69740212A1
:101D53001730E9700AAA08AB091212C5021CC57430
:101D630003650F6058850E0C750D00780C121984ED
:101D7300AC0AAD0BAA08AB09120B2D740212173073
:101D8300851082851183E0F87480687005750C7F77
:101D93008002880CE50CF50A780A121988E50FF51C
:101DA3000A780A121988A90EAC08AD099004A7E0B5
:101DB300FA7B001207BB7402121730801390047968
:101DC300E06408700BAC0AAD0BEEFAEFFB120B9953
:101DD300120D6779017F0C02188974F31217DD74F1
:101DE300FC12171AEAFEEBFF8908A2AFE433F509E8
:101DF300C2AFEE2463F50AEF3400F50B8010AA0A94
:101E0300AB0B120AE51212C59007C6E004F0850A6F
:101E130082850B83E0F8A3E0F9E849602FE8240208
:101E2300FAE93400FBEA2402F50CEB3400F50D78F3
:101E33000C1219848A828B83E0FCA3E0F9EEFAEF9B
:101E4300FB120AD97402121730E960B29007C6E098
:101E530060579007C7E0F89007C6E0C398500C742A
:101E630002650870449007C8E0603E8E828F83A3AA
:101E7300A3A3A3E0851882851983121EBC740212E2
:101E83001765E8121EBC9007C5E028F0740212170C
:101E930065AC82AD83851882851983AA82AB837969
:101EA300011207C79007C6E4F0E509A2E092AF74F8
:101EB300041217307F06021889F0A3E4F09007C6D6
:101EC300E0F8220000851A87851BC622C0E074EF64
:101ED3001218C9A2AFE433FEC2AF759B00906182B2
:101EE300E0A2E05012E591A2E0500C7591FE74015E
:101EF300651A7003121C38E0A2E55051E591A2E582
:101F0300504B7591DF900479E064076005E0640845
:101F130070237401651A703579019004A7E0FA758E
:101F2300F005A4CAA8F028FB74A92AFA74043BFBA1
:101F3300121DDD8018E0640D701390049BE004F023
:101F430064287002E4F07A00E0F9120D6D9061826A
:101F5300E0A2E64003021FF6E591A2E64003021F5A
:101F6300F67591BF900479E064057008120C6B124A
:101F73000C778003120C71751A00120CDDE99004C2
:101F83007AF07900120CBF1209E97A017B00900400
:101F930078E0F9120FC5907803E06442705590071A
:101FA300FAE014F0704DC2AF121FAE00781DD0E0FE
:101FB300F618D0E0F6E59F540770057509FF800316
:101FC30075097FC4C0E0781CE6F50808E65509F5F5
:101FD30009740B78081216F8D0E02508F89062709F
:101FE300E0A2E740F8E8C333906272F0906270E0D9
:101FF300D2E0F0906181E0A2E35009E5E9A2E35069
:102003000375E9F7A3E0A2E75009E591A2E75003BE
:1020130075917FEEA2E092AF7F04021928C0E0C061
:10202300D0C082C083906183E0A2E05009E5BFA2E3
:10203300E0500375BFFEE0A2E15009E5BFA2E15005
:102043000375BFFDE0A2E25009E5BFA2E2500375AC
:10205300BFFBE0A2E35009E5BFA2E3500375BFF75E
:10206300E0A2E45009E5BFA2E4500375BFEFE0A28C
:10207300E55009E5BFA2E5500375BFDFE0A2E650D6
:1020830009E5BFA2E6500375BFBFD083D082D0D08D
:10209300D0E032C0E074F21218C9E5A7A2E4500FF1
:1020A300E5A1A2E4500953A7EF75A1EF1220EAE5D9
:1020B300A7A2E5500CE5A1A2E5500653A7DF75A141
:1020C300DFE5A7A2E15009E5A1A2E1500375A1FD57
:1020D300E5A7A2E2500CE5A1A2E2500653A7FB75C7
:1020E300A1FB7F0102192874F81217DD751A0190FC
:1020F3000479E0640670077A007B00120C53A2AFE8
:10210300E433FED2AF90047FE0640170187A207B41
:1021130000900478E0F91210437A207B0090047851
:10212300E0F9120FCB906182E0D2E6F09007F7E07E
:10213300602185C61B801690047EE064017008E56B
:10214300C654F84405F5C653BEFC121EC874016597
:102153001A60E4EEA2E092AF7F0102188974F112D3
:1021630017DD8A088B098C0A8D0B908FE47808128F
:1021730015B1740F121765780C1215EA908FE47875
:102183000C1215B17808790C1213D69090005010E8
:102193007808790C12157678081213F64014800E1D
:1021A300780C7908121576780C1213F6500479011D
:1021B300800279007F0802188974ED1217DD8A08FE
:1021C3008B098C0A8D0B908FE478081215B1741368
:1021D300121765780C1215EA908FE4780C1215B17A
:1021E300780C79081213D640117808790C121576F9
:1021F300AA08AB09AC0AAD0B80227510007511005B
:102203007512007513017810790C12157678107910
:102213000812153DAA10AB11AC12AD137F0C0218B6
:1022230089C082C083E9906000F0D083D08222C24B
:10223300AF02000022C0E074F21218C9A2AFE43367
:10224300FED2AFC2C0E5D1A2E4500653D1EF1212C1
:102253008FEEA2E092AF7F01021928C0E074F21260
:1022630018C9A2AFE433FED2AFE589A2E15003124D
:1022730011E7758900C2C5EEA2E092AF7F01021992
:1022830028C0E074F21218C9A2AFE433FED2AFE55E
:102293008BA2E050031211E7758B00C2E880D8C00F
:1022A300E0C0D0E8C0E0E9C0E0E5A8D2AFC2C7A271
:1022B300E7A2E792AFD0E0F9D0E0F8D0D0D0E03297
:1022C300C0E0C0D0E8C0E0E9C0E0C008C009C082F7
:1022D300C083A2AFE433F9D2AF901052E0F8A3E089
:1022E300687008539AFBA374018026C2E9901052C8
:1022F300E0F50874012508F074D22508F582740FFF
:102303003400F583E0F5C1901052E0C3948040029D
:10231300E4F0E9A2E092AFD083D082D009D008D014
:10232300E0F9D0E0F8D0D0D0E032020122FFFFFF85
:10233300FFFFFFFFFFC082C083E990125BF0D083F1
:10234300D08202012274F6121771E9900365F07CC2
:10235300A57D037AFF7BFF1207137A008A087509AC
:10236300007402780812170774662508F874033599
:1023730009122397A3F00AEAC3940340DF790512F5
:1023830006A1900365E0F91205C37A2B7B071208B7
:10239300C9023993F98882898374FF1223A4E4F074
:1023A30022F0A312383EA32274F41217718A088B09
:1023B30009EB54806030900365E0F9120FAD8A0A8F
:1023C3008B0BAE0AAF0BEE4F60138E828F83E064EC
:1023D300B070031206B3EEFAEFFB120F9BAA08E5E7
:1023E300096480FB80047A007B0002257C74F2126E
:1023F300177174FC12171AEAFEEBFFEE4F60387484
:1024030002121765EEF0A3EF122801ECF0A3ED1210
:102413002801AA82AB831205BDE9F5087071741215
:102423001217651233E5E50A450B60638E828F83CD
:1024330012249CEE4F700575080280537A067B00C8
:102443001210018A0C8B0DA80CA90DE849700575B3
:102453000813803B88828983E41223A4EEF0A3EF60
:10246300123886E50AF0A3E50BF090037312257486
:102473009003736017E0FCA3E08003EAFCEBFD8CA0
:10248300828D8312257470F38C828D831232E8A9B6
:10249300087404121730023A71A3A3A3A3E0FEA3A6
:1024A300E0FF2274F2121771890AE975F045A4FE60
:1024B300AFF0900372E4F090036812257460281261
:1024C3001007790089087509007402780812170744
:1024D30074682508F58274033509F583E4F0A3F0E5
:1024E30009E9C3940340DDEEFAEFFB1210018A08F9
:1024F3008B09EA45096075EEFCEFFD7900120F8345
:102503007D008D0C750D007402780C12170774682A
:10251300250CF87403350DF9E50AF5F0EDA475F013
:1025230017A4FAABF0E5082AFAE5093BFB88828990
:1025330083EAF0A3EBF07E00801BEE75F017A4FA9C
:10254300ABF088828983E02AFCA3E03B8C82F5838D
:10255300E4F0A3F00EEEC3950A40DF0DEDC3940340
:1025630040A0E50A900372F0790080027913023AE1
:1025730071E0FAA3E0FBEA4B227F0402184374F4F0
:102583001217717900EAA2E0501B7508D075098F04
:1025930078081219847C047D007A5D7B1212069BF5
:1025A300740212173080D2C082C083900373123832
:1025B3007849601C88828983A3A3E06A7003A3E03F
:1025C3006B8882898370E7A3A3A3A312308C800452
:1025D3007A007B0002234174EE12177174FC121708
:1025E3001AEAFEEBFF851882851983E4F0A3F0EE67
:1025F30024021232D3EE24051227EFEE2404F50E43
:10260300EF122BCBE024FE603924FC604624FE60ED
:102613005224FE605E24FE70030226F424FE70033F
:1026230002276C24FE700302277B24FE700302271B
:102633008A24FC700302279924FE70030227A80250
:1026430027E590038C7417F0A3E412280912024BB8
:102653000227E5851882851983AC82AD831206B9FA
:102663000227B5851882851983AC82AD831206BF14
:102673000227B5850C08850D097402121765AC8213
:10268300AD8385088285098312308C1205E18A0C9B
:102693008B0DAC0CAD0DEC4D6042E4F50CF50D78F3
:1026A3000C121984750C8C750D03780C1219847532
:1026B3000C8D750D03780C121984740812176512AA
:1026C300199B79161230861206FB7408121730E92B
:1026D300F50C700B123082120263800F750C0185AA
:1026E30008828509831227F71232E8850C0802272E
:1026F300B87402121765AC82AD83850C82850D8395
:1027030012308C1205E18A108B11AC10AD11EC4D17
:102713006043850C82850D83A3A312199B75108CCE
:10272300751103781012198475108D7511037810C3
:10273300121984740812176512199B7916123086C0
:102743001206FB7408121730E9F509700B12308278
:10275300120269800F750901850C82850D8312278A
:10276300F71232E8850908804C851882851983ACF5
:1027730082AD831206C5803A851882851983AC829F
:10278300AD831206CB802B851882851983AC82AD6D
:10279300831206D1801C851882851983AC82AD8390
:1027A3001206D7800D851882851983AC82AD8312FA
:1027B30006DDE9F508E50860298E828F83A3E064CE
:1027C30014601F850E82850F83E090038C1228010D
:1027D300123B4090038D1232E8E508A31228091238
:1027E3000245EEFAEFFB12065F0231DAF50CEF3425
:1027F30000F50D22123B4485188285198322F0854A
:10280300188285198322F07C8C7D03850A82850BCF
:1028130083E0FAA3E0FB2274EE12177174FC121723
:102823001A8A0A8B0B8C0E8D0FEA2405F508EB34FC
:1028330000F5097C157D0079007A8C7B03120F83E8
:10284300E5082402F50CE5091227F285188285199B
:1028530083858210858311781012198485088285F7
:102863000983A3A3A3A3122D14121984E508240535
:10287300F510E5093400F5117810121984850C82DE
:10288300850D8312307612308C1205DB7406121715
:10289300308A108B11AE10AF11E50A2402F50AE558
:1028A3000B1232D6EE4F70030229E3801774021223
:1028B300176512308C88828983EAF0A3EBF09003CA
:1028C3008CE004F090038CE0C3940540030229E3F9
:1028D300E4F510F51178101219847510757511034C
:1028E30078101219847510767511037810121984F3
:1028F300740612176512199B7910EEFCEFFD123066
:10290300861206FB7408121730E9705E850882850B
:102913000983A3A3A3A3A3A3A3E0F8900375E0688B
:102923007048122D141219847C767D03E50824085F
:10293300FAE5093400FB120F7D7402121730E960C7
:10294300298E828F83A3A3A3A312308C90038CE0E0
:10295300F51074027810121707748D2510F5827420
:10296300033511F583EAF0A3EBF0740212176585C2
:10297300821085831178101219847402121765125C
:10298300199B850C82850D83123B551205E7740450
:102993001217308A108B11AE10AF1190038CE0F533
:1029A3001075110074027810121707748C2510F833
:1029B30074033511F988828983A312257470030285
:1029C30028A7E82403F8E93400F9EE4F600302284E
:1029D300B08882898374FFF0A3F090038CE004F045
:1029E30090038CE0600A1230821202577900800B48
:1029F3008508828509831232DF790A0231DA74EAA3
:102A030012177174FE12171A8C128D13EA2405F52E
:102A13000CEB123B5F1224A0750800750900EA2431
:102A230002F510EB3400F511851882851983858230
:102A33000A85830B780A121984850C82850D83A37A
:102A4300A3A3A3122BD5121984E50C2405F50AE5DB
:102A53000D1232D6780A121984850C82850D8312E1
:102A63003B531205DB74061217308A0A8B0BEA45B7
:102A73000B7003022B96EA2404F50EEB122BCB12F8
:102A830024A08A828B83A3A3A3E0F98510828511F6
:102A93008312308C1205C9E9F5096003022B96E411
:102AA300F514F515781412198475147575150378D2
:102AB3001412198475147675150378141219847415
:102AC3000612176512199B7913AC0AAD0B85108298
:102AD30085118312308C1206FB7408121730E9F546
:102AE300096003022B96900375E0F8E5087009E08E
:102AF300240290038DF0801790038DE0FCE82402FC
:102B0300FAE43400FBEA6C7001EB6003022B9A8554
:102B13000882AA82122D0B9414122D035075850E70
:102B230082850F83E0C0E0122F42D0E0F0050885D4
:102B33000E82850F83A3E0C0E085080A748E250A00
:102B4300F58274033400F583D0E0F0050890037533
:102B5300122BD51219847C767D0385080A748E2581
:102B63000AFA74033400FB120F6B740212173090CD
:102B73000375E02508F50874FF6E700374FF6F603A
:102B830012EE24010EEF3400FFE508C39414500342
:102B9300022A2BE5086013122F68851082851183A2
:102BA30012308C12025D79008014E50970037509F7
:102BB3000A851282851383EEF0A3EFF0A90974024C
:102BC3001217307F0E0218433400F50F850E82F57D
:102BD30083221238952274EE12177174FE12171A9B
:102BE3008C0E8D0FEA2405F50CEB1227F2750B0002
:102BF30090038CE4F0F50AEA2402F508EB3400F5BF
:102C030009804990038CE0FA900375E0F8122D0BCC
:102C13009417122D03400D90038CE0F87416C3989B
:102C2300900375F0122D141219847C767D03748D34
:102C33002AFA74033400FB120F6B740212173090DC
:102C43000375E0F890038CE028F0050AE50C2416E0
:102C5300F582E50D3400F583E0F8E50AC3984003F7
:102C6300022CEC90038CE0C39416507DE50AC33329
:102C7300F8E433F9E50C28FEE50D39FF8518828564
:102C83001983AC82AD838E828F8312308C1205E15F
:102C93008A108B11AC10AD11EC4D7005750B0180D2
:102CA30043E4F510F5117810121984751075751138
:102CB30003781012198475107675110378101219A0
:102CC30084740612176512199B7916850882850983
:102CD3008312308C1206FB7408121730E9F50B705F
:102CE30003022C061232DB80107C8C7D0385088264
:102CF30085098312308C12026FA90B74020231DC36
:102D0300E99400C365D03322EA28F8E43400F9E8F3
:102D130022E0F51075110078102274EA121771740D
:102D2300FC12171A8A0C8B0D8C128D13EA2405F5ED
:102D33000AEB1232D6750800750900E50A2402F57C
:102D430010E50B3400F511740212176585820E85A8
:102D5300830F780E121984850A82850B83A3A3A39C
:102D6300A3123845121984E50A2405F50EE50B3440
:102D730000F50F780E1219848510828511831231A4
:102D8300D41230861205DB74061217308A0E8B0FAD
:102D9300AE0EAF0FE50C2402F50EE50D3400F50F72
:102DA30080408882898374FFF00508122F4E74FFD8
:102DB300F00508900375E0F50C750D00780C1219F9
:102DC300847C767D0385080C748E250CFA74033499
:102DD30000FB120F6B7402121730900375E0250885
:102DE300F508EE4F60718E828F83A3A3A3E0F9856C
:102DF3000E82850F8312308C1205C9E9F509EE2482
:102E0300041227EFE97044E4F514F5157814121948
:102E130084751475751503781412198475147675F1
:102E230015037814121984740812176512199B7903
:102E330011EEFCEFFD850E82850F8312308C120696
:102E4300FB7408121730E9F5096027850C82850D9C
:102E530083122F5E1232E8E5087003022F28122F27
:102E630068850E82850F8312308C120275790002F9
:102E73002F3D850882AA82EA9003757009E0240435
:102E830090038DF08022E0F890038DE0F514E824A0
:102E930004FCE43400FDEC65147001ED70C0122DE8
:102EA3000B9412122D0350B6850C82850D83E0C05E
:102EB300E0122F42D0E0F00508850C82850D83A334
:102EC300E0C0E0122F4ED0E0122F7A85820C85836A
:102ED3000D780C121984740412176512199B85104E
:102EE30082851183123B551205E774041217308A49
:102EF3000C8B0DAE0CAF0D85080C748E250CF8747D
:102F0300033400F9EE4F7003022DA585188285194D
:102F130083E088828983122F7AA3E0C0E0122F4EC8
:102F2300D0E0022DB3E509700375090A850A82858D
:102F33000B83122F5E1232E8A9097404022BC374A7
:102F43008E2AF58274033400F5832285080C748E6F
:102F5300250CF58274033400F58322123B44851259
:102F6300828513832290038DE0F5F0E508849003B6
:102F73008CF07C8C7D0322F00508851882851983EB
:102F83002274EC12177174FE12171A8A088B098CBB
:102F93000E8D0FEA2405FEEB3400FF851882851998
:102FA30083AC82AD838E828F8312308C1205E18ACB
:102FB3000A8B0BEE24181227EFEA450B700302303D
:102FC300511231BC503285188285198312308C120C
:102FD30006EF8A108B11EA4511606E7912AC0AADC7
:102FE3000B85088285098312308C851082851183B5
:102FF30012176FE9F50A705BE4F50AF50B780A120C
:1030030019848E828F83A3A3E0F50A780A121984A8
:10301300EE24031232D3780A1219848E828F83121C
:10302300307612308C1207017406121730E9F50A54
:103033007021850C82850D83E0701F8508828509C8
:103043008312308C12027B8011750A0E8009750A77
:10305300018004E50A60031232DB850C82850D834F
:10306300E0600479008002A90A74021217307F0C11
:10307300021843E0FCA3E0FD850882850983227CD6
:103083008C7D03850A82850B83E0FAA3E0FB22741F
:10309300EE12177174FE12171A8A088B098C0C8DA5
:1030A3000DEA2405FEEB3400FF750E0085188285BA
:1030B3001983AC82AD838E828F8312308C1205E12B
:1030C3008A0A8B0BEA450B70030231A81231BC50FC
:1030D3003585188285198312308C1206EF8A0E8B80
:1030E3000FEA450F605E7912AC0AAD0B8508828545
:1030F300098312308C850E82850F8312176FE9F5D1
:103103000E60030231AB8508828509831233E5AA79
:103113000AFB1206E38A108B11A810A911E8497063
:103123001E7AFF7BFF1206E38A108B11A810A911E8
:10313300E849606C88828983E50AF0A3E50BF075A2
:103143000A008007750E0E805F050A900372E0FA8D
:10315300E50AC39A504AE50A75F017A4FAABF0885A
:10316300828983A3A3E02AFAA3E03BFB8A828B83B1
:103173001231D4EC4D70D2750A17750B00780A1210
:103183001984EEFCEFFD120F6B7402121730EEFC84
:10319300EFFD85088285098312308C120281801429
:1031A300750E098003750E01123B3C850C82850D5B
:1031B300831232E8A90E022CFEE5082402F508E585
:1031C300093400F5098A828B83A3A3A3E0A2E52235
:1031D300A3E0FCA3E0FD2274041217307F0A021857
:1031E3004374EC1217718C108D11EA2405F50CEB66
:1031F3001227F2750F00EA2402F50AEB1232D68584
:103203000A82F58312308C1206E38A088B09EA4599
:103213000970030232C8750E008071850C82850D1A
:1032230083E06401704F8E828F83A3A312199B8E58
:10323300828F83A3A3A3A3E0F51275130078121260
:103243001984EE2405F512EF3400F51378121219E0
:10325300841230861207017406121730E9F50F60E5
:1032630014850C82850D83E4F0123B3C8510828526
:1032730011831232E87C177D007900EEFAEFFB121E
:103283000F838E828F83E4F0A3F0050E900372E028
:10329300F8E50EC398501FE50E75F017A4F8A9F0D2
:1032A300850882850983A3A3123B69FCA3E0FDEC97
:1032B3004D600302321E85088285098374FFF0A3E3
:1032C300F0E50F7006123086120287A90F023071E3
:1032D300F50AEF3400F50B228E828F83123B44856F
:1032E3000E82850F83E8F0A3E9F02274F6121771BA
:1032F3007C008C08750900740278081217071233D2
:10330300206A7003A3E06B7006E8FAE9FB800B0CFC
:10331300ECC3940340DC7A007B0002399374662586
:1033230008F874033509F988828983E02274F71257
:1033330017717F00EF75F003A4F8A9F0EC28F8EDFE
:1033430039F988828983E06A7003A3E06B7006E829
:10335300FAE9FB800B0FEFC3940440D87A007B009B
:103363007F0102184374F61217711206AD8A828B1D
:1033730083E582458370067A007B008007A3A3A3BD
:10338300A312308C02399374F2121771E9FE740E92
:103393001217651233E574101217651238608C82A8
:1033A3008D83E064027036A3123B4AF50CA3E0F967
:1033B300A80C74026870037429697021750C027576
:1033C3000D00780C1219847808121984780A1219DE
:1033D30084EEF91207257406121730800279010270
:1033E3003A71E0F50AA3E0F50B2274E81217717441
:1033F300FB12171AE9851882851983F08A168B1731
:10340300ECFEEDFF751000741D121765123B40743E
:103413001D1217651232E88E828F83A3A3A3E0A245
:10342300E4502D741D12176512308C1206EF8A8238
:103433008B83E5824583700302382F790AEEFCEF14
:10344300FDAA16AB1712176FE9F5106003023832A5
:10345300741F12176512386074211217651233E551
:103463007423121765E0F50EA3E0F50F8E828F83A8
:10347300E0640260030237DDA3123B4085088285C6
:103483000983A3858212858313EE24061227EF880E
:10349300828983E0FAA3E0F9EA2400F514E439F51C
:1034A300157814121A0E010000280128D1340700E0
:1034B30002289635032803350029CD360129F8362D
:1034C300022999360329CD3604297737DD37E50EEE
:1034D300450F60030237D8850C82850D8312387837
:1034E300FAE9FB8A828B83E0850A82850B83123893
:1034F3008C1219848A828B83A3E0FCA3E0023761D8
:10350300E50E450F60030237D8850A82850B837465
:1035130001F0123868850882850983F07C007D00FC
:103523008E828F83A3A3A3A3E02401FAA3E0340034
:10353300FB1205E1EA4B60418A828B83E02402F8A7
:10354300850A82850B83E028F0EA2404F8EB340033
:10355300F988828983E085128285138312389E124B
:10356300388C1219848A828B831231D3E5082403A1
:10357300FAE5093400FB023766850A82850B83E08E
:103583002404F07C047D007900AA12AB13120F838C
:10359300023832E50E450F60030237D8123868FE51
:1035A300A3E0FF850A82850B837404F0EE8508820D
:1035B300850983F0EF851282851383F07403121754
:1035C30065AC82AD83EEFAEFFB1205E18A0C8B0D3D
:1035D300EA450D700302367A8A828B83A3A31224F1
:1035E3009C740112176585820E85830F780E12195C
:1035F30084740512176512199B7CFF7DFF1205E782
:1036030074041217308B0FEA450F7033850C8285D3
:103613000D83123845121984850C82850D83A312FC
:10362300199B7C027D007A817B9012036B740412D8
:103633001730E9700A740112176574FFF0A3F08E56
:10364300828F83E064027039750C02750D00780C6B
:103653001219848E828F831231D3E5082404FAE58C
:10366300093400FB120F6B7402121730850A82852E
:103673000B83E0240280097401121765EEF0A3EFB7
:10368300F07401121765123856F07401121765A30E
:1036930012384E0237D2E50E450F60030237D88544
:1036A3000C82850D831231D4AA16AB171207198524
:1036B3000A82850B837402F0EA850882850983F008
:1036C300851282851383EB0237D5E50E450F600320
:1036D3000237D8123868F8A3E0F9850A82850B838C
:1036E3007402F0E8850882850983F0E985128285F2
:1036F30013830237D5850C82850D8312308C120F0C
:1037030065EAFC8C82A882C3950EE4950F405FE8BE
:10371300650E7002E50F70047C0080228518828597
:103723001983E0FAE50E2AFAE50F3400FBC3EA98A1
:10373300EB94005003E08005E50ECCC39CFCEC85C4
:103743000A82850B83F08C0A750B00780A121984A0
:10375300850C82850D83E0250EFCA3E0350FFDAAC1
:1037630008AB09120F6B740212173002383275104E
:1037730007023832E50E450F705B850C82850D8399
:10378300123B40850A82850B837407F08882898304
:1037930012384E12383EE0851282851383F0E824F6
:1037A30002FAE93400FB8A828B8312384E12387D89
:1037B300123856A312388612385AF0E82405F8E96D
:1037C3003400F98882898312385AA312389EA3A33E
:1037D300A3A3F0805A75100B8055741D1217651240
:1037E300308C1206AD8A828B83E5824583603D125D
:1037F3003B40880C890DE8450D6031780E12198421
:10380300780A12198478081219847406121765E06D
:10381300F9EEFCEFFDAA16AB17850C82850D83121A
:10382300176F7406121730E9F510800375100EA98F
:103833001074051217307F10021843F088828983B1
:10384300A322E0F50E750F00780E22E0850882852D
:103853000983221238A5221238A5A3A322E0F50872
:10386300A3E0F50922850C82850D83E0F8A3E0F53A
:10387300838882E022123B44E822A3A3F08A828B4E
:1038830083A3221223A6A3A322F08A828B83123856
:103893009522E0F50A750B00780A2212383E123899
:1038A300A522E0850882850983A3A32274EE12175B
:1038B3007174FE12171A8A0A8B0BECFAEDFB74145F
:1038C300121765E0F510A3E0F5117416121765E001
:1038D300FE7418121765E0F50EA3E0F50F85188244
:1038E300851983AC82AD831205E18A0C8B0DEA4501
:1038F3000D604985188285198312308C1206AD8AB2
:10390300828B83E5824583602FA3A3123860E50889
:1039130045096024780E1219847810121984EEF97F
:10392300AC0CAD0DAA0AAB0B85088285098312176F
:103933006F74041217308006790E80027901022C0D
:10394300FE74F612177174FE12171A740C121765AF
:10395300123878851882851983F07401121765E986
:10396300F0E4F508F5097808121984750802780857
:1039730012198474041217658582088583097808EF
:1039830012198412070174061217307402121730C9
:103993007F0202184374F7121771EAFEEBFF8908DE
:1039A3007CA57D03120719EA5402600BA908EEFAFD
:1039B300EFFB1205D58002790102336374F6121707
:1039C3007174FF6A700374FF6B701B7B00EB75F0FF
:1039D30003A4F8A9F0EC28F8ED391223970BEBC3F5
:1039E3009404501480E71206E98A088B09A808A9F1
:1039F30009E8496003122398809674F6121771122E
:103A030006E98A828B83E58245836006A3A3E0FAF5
:103A130080027A007B0002399374F21217718A08CC
:103A23008B09ECFEEDFF740E121765E0F50A120622
:103A3300E98A0C8B0DA80CA90DE8497026EEFCEF62
:103A4300FD7AFF7BFF1206E98A0C8B0DA80CA90DEA
:103A5300E84970047911801688828983E508F0A308
:103A6300E509F088828983A3A3E50AF079007F063C
:103A730002184374EE121771EAFEEBFF8C088D09EE
:103A8300890C7414121765123B40741612176512D1
:103A9300308C750D00E8496003023B347402650CF9
:103AA3006003023B2F7412121765123B4AFCA3E01A
:103AB300F9EC2400F50EE439F50FEAF4F8EBF4F928
:103AC300EC58F8E50F59F9E849705CE5082406F865
:103AD300ED3400F9880A890B8882F583123B55126D
:103AE30007198A108B11E50E65107004E50F651137
:103AF3006042780E121984850A82850B83123B5526
:103B030012071F7402121730E9F50D7027780E1291
:103B13001984850882850983A3A3123B53120731B5
:103B23007402121730800D750D808008750D0D809D
:103B330003750D0BA90D0231DF8E828F83123B4477
:103B430022E0F8A3E0F922123B4488828983E02231
:103B5300A3A3E0FCA3E0FDEEFAEFFB223400F50D96
:103B6300850C82F58322E028FEA3E039FF8E828F45
:103B730083E02274F2121771EAFEEBFF890B7401E2
:103B8300650B600E7402650B706B79011208E7E92F
:103B93007063EEFAEFFB1206E38A088B09EA450924
:103BA3006048750A00800B7C177D007900120F8333
:103BB300050A900372E0F8E50AC3985022E50A75F6
:103BC300F017A4F8A9F0850882850983A3A3E02848
:103BD300FAA3E039FB8A828B831238784970C8854F
:103BE300088285098374FFF0A3F07CA57D03EEFAB8
:103BF300EFFB120713023A7174F21217718A088BE2
:103C030009ECFEEDFF740E1217651233E590125B9B
:103C1300E0F4603D7A097B00120F95EA4B60328A2B
:103C2300828B8374B1F0A3E412387FA312387DA38F
:103C3300E508F0A3E509123C57EEF0A3EF123C5759
:103C4300A3A3E50AF0A3E50BF090125BE0F9120FD2
:103C5300A1023A71F08A828B83A3A3A3A3A322C0F8
:103C630082C0839061907404F0A37448F0A3E4F0DD
:103C73009061807440F09061BC7407F09061877428
:103C830069F09061B67416F079001209EF790212A7
:103C930009F5902330E493F46006E493F91209CB19
:103CA3007905120D4F024083C082C083E9540FF996
:103CB300906185E0696012E5C654804449F5C6E524
:103CC3009E547F644970F8E9F053C680E59E547FA3
:103CD30070FA02408374F7121771E5A8FE53A87EA9
:103CE3001209D7C2BA539AFEC289759B00C2C21287
:103CF30009DD75A91175B9051209E3D2BA439A0111
:103D030074805E42A8024FA7C082C083906181E4A1
:103D1300F0A3F0A3F002408375E90075910075BF2D
:103D230000020122C082C083906181E4F0A374C0C9
:103D3300F0A3E480DFC082C08374F812171A9004E2
:103D43007B1253F67003023E1790047BE0544060ED
:103D5300237908851882851983AA82AB83120B0302
:103D6300851882851983AA82AB831207A390047BEB
:103D7300E054BFF0E054806010790C7A1B7B08128A
:103D83000B0390047BE0547FF0E0A2E0500F790036
:103D93001209EF1207A990047BE054FEF0E05402ED
:103DA300600F79011209EF1207A990047BE054FD1B
:103DB300F0E05404600F79001209F51207AF900484
:103DC3007BE054FBF0E05408600F79011209F5120F
:103DD30007AF90047BE054F7F0E05410600F7902D2
:103DE3001209F51207AF90047BE054EFF0E0542082
:103DF300600F79031209F51207AF90047BE054DFDB
:103E0300F0A3E05401600D120A011207B590047C7F
:103E1300E054FEF07408121730024083C082C0835E
:103E2300E9600514602A804F90619A7433F0A3749B
:103E330055F09061A0743AF09007F5E064017009C1
:103E4300C29190047D7467802D90047D74618026F7
:103E530090619A743FF0A3745AF09061A0747FF05C
:103E63009007F5E064017009D29190047D7471802C
:103E73000590047D746AF0024083C082C083E960C8
:103E83000B14600D14601714600C80209023348091
:103E93001590233580109007F5E064017005902399
:103EA300368003902337E493906186F00240837455
:103EB300EE12177174F412171A851882851983ACE0
:103EC30082AD8375839075820C740412162D902332
:103ED3003493F46003023FDC907808E0C39402500B
:103EE30003023FBC7404121765AC82AD8375838FE4
:103EF30075827F740812162DFC7EFF7FFF8E0C7D6A
:103F0300008C8285820E800F74086D606D74096D5C
:103F13006068740A6D60638D08750900740278081F
:103F2300121707123FE61215EAA909E50AC9F8882C
:103F33001074187808121505E5104508FAE9FBE531
:103F43000EC333F8E433F97404121765E58228F5D8
:103F530082E583391246D8C3E89AE99B4008E8C34F
:103F63009AF8E99B8006EAC398F8EB99F9C3E89EAF
:103F7300E99F5006E8FEE9FF8D0C0DEDC394134055
:103F83008774FF6E700374FF6F6024850C087402DE
:103F93007808121707123FE61215EA851882851969
:103FA30083E582250EF582E583124AF1E508F00CDC
:103FB300ECC394045003023EFC75080175090078B4
:103FC300081219847402121765AC82AD837ACD7B13
:103FD300081211C37402121730740C1217307F0ABF
:103FE30002184374482508F58274783509F58378F7
:103FF3000822C082C083906186E0F8902337E4935F
:10400300687009902336E493906186F09061AE74F2
:1040130068F0A3746AF090624574FBF0A304F05354
:10402300F4FD43FE029007F57401F09061A0E06493
:104033003A70047900800279011209EF0240837F0C
:1040430004021843C082C0839007D3E06401701355
:104053009007D9E0F87401686019E87006A3E0647A
:104063000160109007EAE06401700C9007F0E064CF
:10407300017004790C800279008005E0F912222492
:10408300D083D08202012212477E940622E0C433F9
:104093003354C022C082C0839007DD7425F090079B
:1040A300DB7401F0A3E4F07A01FB120CCB1240E3C2
:1040B3002416F582E8124AF17425F0A3740AF090ED
:1040C30007DAE0640170169007D9E07010790112E5
:1040D3000D2B120CFB120D257900120D37024083B4
:1040E3009007C91244672274F612177174FA1217F3
:1040F3001A9007D2E064017008120A0D9007D2E407
:10410300F075E1F11240E32415F582E8124AF174E7
:1041130001F09007D4E064017053908FB2C08285A0
:104123001882851983AC82AD8375838FD082740620
:1041330012162D75D90D9007CB1240904403F5D973
:104143007800880874CC125080740712408A40F2B9
:1041530078008808851882851983E582125080E5E6
:104163008312408A40EC75E195790180027900124F
:104173000CD190127D1241E074ABF0A3740BF0A349
:104183001241E01241E012433474B1F0A3740B12F4
:1041930043499007CBE0F97ACC7B07120CAD90072B
:1041A300DDE0F91222247901120CD7908FF0121658
:1041B30008120CEF908FF4121608120CB979001242
:1041C3000D431240E32414F582E8124AF17416F009
:1041D3009004797405F0041217300247E874A5F0CF
:1041E300A3740BF0A32274F41217718908A80812A0
:1041F3004EEC9007E2E0F97AE37B07120CAD9007EF
:10420300F0E0701A7900120D0D9007B8E070047990
:1042130000800279017AB97B07120CB3800579011A
:10422300120D0D75E1F175D9239007E21240904408
:1042330005F5D97800880A74E3250AF58274071214
:10424300408A40F175D90075D90075D90075D90038
:1042530075D90075D9007A00125342242212469769
:1042630040F67A001253422426F582E91247F00AF7
:10427300EAC3940340EEEE242B1247ED7A00125367
:1042830042242C12469D40F67A00125342242E12E9
:10429300469D40F67A00125342243012469D40F662
:1042A3007A00125342243212469D40F67A008A0A5B
:1042B300EE250AF8EF124C091246A9940540EFEED9
:1042C3002437F582EF124E40541FF8EE242AF5826C
:1042D300EF124E40C43354E048F5D975E19590127E
:1042E3007D7475F0A3740BF0A3747BF0A3740B12AD
:1042F300432B7481F0A3740B1243499007EFE0F949
:10430300122224908FF0121608120CEF908FF412E1
:104313001608120CB990600DE4F07901120D439068
:1043230004797406F0024042F0A31243341243347A
:104333002212433822746FF0A3740BF0A3746FF04E
:10434300A3740BF0A32212434D22F090128B12435D
:1043530059A312435922124338746FF0A3740BF01C
:104363002274EC1217719007E0124F0378101215A4
:10437300EA9007F1E0FAF875F005A4C8ACF02CF95F
:1043830074D728F582740439F583E0FEA3E0FFEEC9
:10439300C333FEEF33FF8E0CF50D750E00750F0062
:1043A30085100885110985120A85130B909054789E
:1043B300081215507808121980851008851109858F
:1043C300120A85130B7808790C12153D7810790CB5
:1043D300121495E4F50EF50F7808790C1215768A08
:1043E3000C750D007403780C1217077808790C12FA
:1043F300153D908FE478081215B1AA08AB09AC0AF1
:10440300AD0B1221BC74041217308A088B09A8085B
:10441300A909C3EE98EF995006E82EF8E93FF9E8A9
:1044230090600EF0E9A3F0EEA3F0EFA3F090600D1F
:1044330074C1F07F0C021843C082C0839007C91275
:10444300445B9007DD02407EC082C0839007E01288
:10445300445B9007EF02407E1244672406F582E82E
:1044630012488922E0F8A3E0C82202012274F21262
:1044730017711245DAF50AEF124967600478048070
:10448300027800E8240EF8EAC39850030245377512
:10449300080C9007FBE4F0EE2476F582EF124E4011
:1044A3009007FCF07902EE2477FCEF3400FD7AFDEF
:1044B3007B07120AF17902EE2479FCEF3400FD1236
:1044C3000AF17902EE247BFCEF3400FD120AF17944
:1044D30002EE247DFCEF3400FD120AF1EE24741287
:1044E30045F0120AF1850A82850B83E0601E750888
:1044F300FB75090778081219847C0C7903EEFAEF2F
:10450300FB120B637402121730750810740125082F
:10451300F5D975D90378008009880A74FB250A1236
:1045230045CFE8C3950840F175E1957904120CF580
:104533007901800279007F0602184374F212177121
:104543001245DAF508EF3400F509850882F583E0B2
:104553006004780480027800E8240AF8EAC39840EB
:1045630060750A089007FB7401F079057CBF7D072D
:104573007AFC7B07120AF1EE24801245F0120AF14D
:10458300850882850983E0601E7508FB7509077835
:10459300081219847C087903EEFAEFFB120B63749B
:1045A30002121730750A0C12486680031245C9E8D7
:1045B300C3950A40F775E1957904120CF5790180EA
:1045C300027900024539880874FB2508F5827407CF
:1045D300124E44F5D908221245DE22EAFEEBFF9083
:1045E30061D0E0F87480C398FAEE248222FCEF34A1
:1045F30000FD8E828F83A3A3A3A3A31254058C82F1
:104603008D83E028F0A3E039F079022274F61217C3
:1046130071EAFEEBFF9061D0E0707475D91875D91B
:104623000375D9037A008A08EE2508125347249BA1
:104633001246B040F17A008A08EE25081253472447
:10464300A312469D40F17A008A08EE2508125347CB
:1046530024931246B040F17A008A08EE25081253DB
:1046630047248712469740F175E1957908EE249324
:10467300FAEF3400FB120AF77904EE2487FAEF34D9
:1046830000FB120AF77904120CF51246B98002797D
:10469300000247E81246A39404221246A39402227E
:1046A300F582E9124F9CE0F5D90AEAC3221246A328
:1046B30094082275E195EE246FF582EF124F98125C
:1046C3005405EE2471F582EF124F98E8F0A3E9F058
:1046D3007901223400F5831254052274F6121771FE
:1046E300EAFEEBFF9007FB74061247881219847CDD
:1046F300017903120B63740212173075D90675D949
:1047030003780012476E40FB75E195900479E064ED
:10471300087017EE246FF582EF1246D6EE2471F57A
:1047230082EF124AF1E8F0A3E9F079010247E87455
:10473300F6121771EAFEEBFF9061D0E07029900743
:10474300FB740A1247881219847C017903120B63E4
:10475300740212173075D90675D903780012476EA3
:1047630040FB1246B680027900807A880874FB25E4
:1047730008F582740712477E940522124F9CE0F5D8
:10478300D908E8C322F07508FB7509077808227475
:10479300F6121771EAFEEBFF9061D0E070427901E7
:1047A3009007FB740BF0900479E0640770197508A7
:1047B300FB75090778081219847C010909120B6338
:1047C30074021217307905740129F5D975D9037864
:1047D3000080031245C9E8C39940F81246B6800227
:1047E30079008001F07F02021843F582EF124E44F4
:1047F300F5D92274F5121771124891600478048078
:10480300027800E8240BF8EAC3984052750A09902D
:1048130007FB7408F0F9124872120AF185088285C1
:104823000983E0601E7508FB75090778081219846F
:104833007C097903EEFAEFFB120B63740212173053
:10484300750A0D12486680031245C9E8C3950A40EC
:10485300F775E1957904120CF51246B980027900D7
:10486300024AE77401250AF5D975D903780022EEC7
:1048730024E4FCEF3400FD7AFC7B0722EE241DF5D3
:1048830082EF12488922124F9CE4F0A3F0221245D2
:10489300DEF8EF12489A223400F9880889098882E1
:1048A300F583E02274F31217718A088B091249FD0C
:1048B300FAE5082482F50AEB12496760047804805C
:1048C300027800E82408F8EAC398500302496075A7
:1048D3000C069007FB740CF0900496E09007FCF034
:1048E3007402C0E0F97C977D047AFD7B07120AF11C
:1048F300D0E0F97C997D04120AF1850A82850B8345
:10490300E0601E750AFB750B07780A1219847C0692
:104913007903AA08AB09120B637402121730750CE2
:104923000A7401250CF5D975D90378008009880A22
:1049330074FB250A1245CFE8C3950C40F175E19548
:104943007904120CF5E508246FF582E5091246D6C1
:10495300E5082471F582E5091246CB800279007FD0
:10496300050218433400F50B850A82F583E02274AF
:10497300F6121771EAFEEBFF1249FDFCEE2482F8F2
:10498300EF124A8060047A0480027A00EA2404FA6F
:10499300ECC39A40607A029007FBEAF0EE24F6F546
:1049A30082EF124A07601B7508FB75090778081226
:1049B30019847C027903EEFA120B63740212173026
:1049C3007A0674012AF5D975D90378008003124554
:1049D300C9E8C39A40F875E195EE2473125085EE49
:1049E300247F12508512487F7904120CF5EE240DB2
:1049F3001246BC800279000247E89061D0E0F87467
:104A030080C39822124E449007FCF088828983E089
:104A13002274F61217711249FDFEEA2482F8EB1292
:104A23004A8060047C0480027C00EC2404FCEEC316
:104A33009C40457C029007FB7407F0EA24F7F5825B
:104A4300EB124A0760177508FB75090778081219F6
:104A5300847903120B6374021217307C0674012CE1
:104A6300F5D975D903780080031245C9E8C39C4082
:104A7300F875E1957901800279000247E83400F97D
:104A830088828983E02274F5121771E9FEA2AFE4EC
:104A930033F50AC2AF7F00EA246EF8EB3400F980E5
:104AA300010F88828983E0F508EFC3950850188FBA
:104AB30008EA2508FCEB3400FDEC246AF582ED12CC
:104AC3004E406E70DC8017EA2508FAEB3400FBEAEF
:104AD300246AF582EB124AF1EE124A0D04F0E50A5C
:104AE300A2E092AF7F03021843246AF582E9124FD2
:104AF300982274F6121771A2AFE433FFC2AFEA240F
:104B03006EF8EB125134E014F07E0080198E08EA3F
:104B13002508F8EB125349246B124E3DC0E0E8120E
:104B23004AECD0E0F00E8C828D83E0F8EEC398401F
:104B3300DCEA246DF582EB124AF174FF124B6AEF43
:104B4300A2E092AF0247E8C082C083E5A8F8C2AFF3
:104B5300EA246AF582EB124AF1E9124B6AE8A2E70A
:104B6300A2E792AF024083F0EA2469124B7222F566
:104B730082EB124F9CE4F02274F21217718C828D37
:104B830083A3A3A3A3E0541FF0EA243612512A8E71
:104B9300828F83E4F0F50C850C8285820AEC250A6A
:104BA300F8ED12489AC0E0EA250AF8EB124C09D056
:104BB300E0F0750D00850882850983E0F50A750B21
:104BC30000E50D780A1216E8E50AA2E05023E50C89
:104BD30033333354F8250DC0E08E828F83E0F8120F
:104BE3004DDD2438124AEED0E0F08E828F83E0044C
:104BF300F0050DE50DC3940840BB050CE50CC3940B
:104C03000540940245393400F9E8245DF582E91240
:104C13004F982274F41217719004A5E06403700393
:104C2300024DC37E00EEF875F005A4C8AAF02AF978
:104C330074AB28F582740439F583E06003024DB93F
:104C430074A928FA740439FB8A828B83A3A37401A1
:104C530012539CA3A3A3E4F0EA2404F8EB125349F0
:104C6300FCE9FDEE8C828D83F0EA2462124DCA24A6
:104C730067F582EB124AF17401124DEFE4F0A312CF
:104C83004DEFA3A3124DEA240F124DCA2435F5822A
:104C9300EB125088F508F509F50AF50BEA2418120A
:104CA3004DD21215F9EA241C124DD8241D124DE6DB
:104CB300247F124DD82473124DD82468F582EB1249
:104CC3004AF17480124B6AEA246E124DD824EC1216
:104CD3004DD824ED124DD824EE124DD824EF124DA9
:104CE300D824F0124DE624F2124DE624F5124DD8E5
:104CF3002482124DD824D2124DD824D3124DD82455
:104D0300D4124DD21215F9EA24D8124DD21215F944
:104D1300EA24DE124DD824E0124DD824DC124DD8FB
:104D230024E1124DD824E2124DD824F8124DE62482
:104D3300FA124DE624FC124DE624FEF582EB1248EE
:104D430085FE8E08EA2508F8EB125349124AEC74E3
:104D5300FFF00EEEC3940440E97E008E82A88274B5
:104D6300BF28F5827407124E40C0E0124DDD245D6A
:104D7300124AEED0E0F00EEEC3940540DE7E008EC4
:104D830082A882748D28F5827404124E40C0E0120A
:104D93004DDD24E4124AEED0E0F00EEEC394084059
:104DA300DE9004A5E004F0640170198C828D83E029
:104DB3009004A7F0800E0EEEC394035003024C2818
:104DC3007A007B00024042124F957401F0EA2212EE
:104DD3004F95780822124B72EA22EA28F8EB340046
:104DE300F9E822124F95E4F0A3F0EA22F08A828BCD
:104DF30083A3A3A3A3A322C082C083EA2403F582CF
:104E0300EB124E406008E4F09004A6E014F0900426
:104E1300A5E014F070069004A774FFF08A828B83D8
:104E2300A3A3E4F09007C4E0700D9004A6E064012E
:104E330070057900120CBF024083F582E9124E44DB
:104E430022124F9CE022C082C0837B00EBF875F0F6
:104E530005A4C8AAF02AF974A528F87404125054BA
:104E6300A3A3A3A3E4F088828983A3A3A3A3A3A3F7
:104E7300F00BEBC3940340D49004A5E4F0A3F0A398
:104E830074FFF075E1F102408374F5121771750830
:104E930000750900750A00A80A124EEC8E828F83F2
:104EA300A3A3A3E0602BE5084509601D850882855F
:104EB3000983124F03121997124EFF12160812217B
:104EC300607404121730E97008EEF8EFF988088966
:104ED30009050AE50AC3940340BD85088285098351
:104EE300A3A3A3A3E0F9024AE7E875F005A4C8AABF
:104EF300F02AF974A928FE740439FF228E828F8365
:104F0300E0F8A3E0F5838882A3A32274F712177154
:104F130078FF79FF7F00EFFC75F005A4CCAEF02E8F
:104F2300FD74A92CFC74043DFD8C828D83A3A3A383
:104F3300E0603EEC2473F582ED124E40FE74FF6890
:104F4300700374FF69700774016E701C800D740127
:104F53006E700DEC2479124F885016EC2479800B77
:104F6300EC242E124F885009EC242EF582ED1246C4
:104F7300D60FEFC39403409EC3EA98EB994004E82D
:104F8300FAE9FB801FF582ED124F98C3E098A3E086
:104F93009922F582EB124F9C223400F58322A2E082
:104FA30092AF79007F0102184374F6121771EAFE7B
:104FB300EBFFEE2463F508EF3400F5098016AA0829
:104FC300AB09120AE51212C59007C5E004F0900779
:104FD300C6E004F08508828509831253F670DFEE7C
:104FE300FAEFFB120A91EEFAEFFB120BED0247E820
:104FF30074F7121771EAFEEBFF8E828F83A3A3A3CC
:10500300A3E0FA7B001207FDEEFAEFFB120AA912E6
:105013000BCF8090C082C0837B00EBF875F005A4B2
:10502300C8AAF02AF974A928F87404125054E0604D
:1050330014E8246E124E3D600CE8246A124E3D7053
:1050430004790180090BEBC3940340CE790002403D
:105053008339F988828983A3A3A32274F612177173
:1050630078008808748D125080740412508808E800
:10507300C3940840ED90048D74010247E72508F5B9
:105083008222F582EF124B752274F712177174FCAA
:1050930012171A851882851983E4F0A3F0A3F0A3ED
:1050A300F0120AFDE9851882851983F0120AFD744E
:1050B30001121765E9F0120AFD7402121765E9F08F
:1050C3008518828519831216087404121730024F4B
:1050D300A774F6121771EA240D12512AEC2403F86F
:1050E300ED3400F988088909EC2407F8ED125134EE
:1050F3001246DA850882850983E0FAA3E0FB1216DB
:105103008F8E828F83E8F0A3E91253FC8508828592
:105113000983E0FAA3E0FB12168F8B09EA450960C5
:10512300031251400247E8F8EB3400F9E8FEE9FFC7
:10513300223400F9E8FCE9FD8C828D83228E828F74
:1051430083E02401F0A3E03400F02274F612177117
:10515300EA242EF582EB124E40FCA3E0FDEA246F15
:1051630012512A780079FAECFAEDFB12168F8E822F
:105173008F83E8F0A3E9F0780079FAECFAEDFB12FB
:10518300168F8B09EA450960031251400247E87400
:10519300F0121771EAFEEBFF74101217657808120C
:1051A30015EA120C838A0C8B0D8C0E8D0F90905880
:1051B300780C121550908FE4780C1215B1780C12FC
:1051C3001980124EFF121608122160740412173050
:1051D300E9600302527A8E828F83E02402F8A3E00F
:1051E300125349FAE9FB8A828B837808121563907C
:1051F3008FE478081215EA8A828B8378081215C423
:10520300EE240BF582EF124AF1C082C0838E828FA7
:1052130083A3A3A3A3A3E02401F8A3E03400F9D05C
:1052230083D082E0687003A3E06970047901804948
:10523300EE2407F8EF3400F988828983125144EE93
:1052430024731252817014EE247412528A7003A3D1
:10525300E06D70078A828B83125144EE247F1252D1
:10526300817014EE248012528A7003A3E06D7007DC
:105273008A828B8312514479007F08021843F58296
:10528300EF124E44640122FAEF3400FB8A828B83CF
:10529300E0FCA3E0FD88828983E06C2274F312179B
:1052A30071E9FEECFFEA2462F582EB12528460039B
:1052B30002533D9061D0E0F508EA2482F582EB12B7
:1052C3004E40F50C60047804800278007480C39526
:1052D30008FC95E0FDEF28F8E41253492402F8E9AD
:1052E3003400F9EC98ED99A2D265D0334048740D9F
:1052F300121765E0F50AA3E0F50BE50C6015780AD3
:10530300121984EFFCEEF9120B6374021217307456
:10531300042FFF74012FF5D98ED97800800C8808EB
:10532300E50A125080E50B1245D3E8C39F40EF75A1
:10533300E195790080067907800279FF0249628A44
:105343000AEE250AF8EF3400F9E82274F712177110
:10535300A2AFE433F508C2AFEA2402F8EB3400F954
:105363008A828B83E0FEA3E0FFEE4F600E88828982
:1053730083E0FAA3E0F5838A8280048A828B83EC3C
:10538300F0A3EDF0888289831253A2F0E508024F5F
:10539300A18C828D83E8F0A3E9F08A828B8322ECCF
:1053A300F0A3EDF08C828D83E4F0A32274F712173F
:1053B30071EAFCEBFD7A007B00A2AFE433FEC2AFDF
:1053C3008C828D831253F66022E8FAE9FB8A828B82
:1053D300831246DA125394E4F0A31253FCE84970A3
:1053E3000A8C828D83A3A3E4F0A3F0EEA2E092AF34
:1053F300024FA7125405E84922F08C828D83125480
:105403000522E0F8A3E0F922C082C083800312548E
:1054130039E9F874FF28190470F4ECFAEDFB024043
:1054230083C082C0838003125439E9F874FF2819BA
:105433000470F40240838C828D83E08A828B83F034
:105443008C828D83A3AC82AD838A828B83A3AA8251
:10545300AB832274F012177174FA12171A890BECCA
:10546300FEEDFF750A008A088B0978081219C80037
:105473000410A0569954B754D154E95407551F55F5
:1054830042555A556E5598552056315648566256D0
:10549300A0568356AE557401650B600302569B8E6E
:1054A300828F83E0F8C39403400302569BE8901273
:1054B3009F0256987402650B600302569B8E828F7F
:1054C30083125E589012A0E8F0A3E9025698740183
:1054D300650B600302569B1256CD400302569BE8B0
:1054E300900DBF0256987401650B600302569B8EA4
:1054F300828F83E0F8C39405400302569BE8900D26
:10550300C00256987401650B600302569B1256CD78
:10551300400302569BE8900DC10256987410650B28
:10552300600302569B7508107509007808121984E8
:105533007AC27B0D120F6B74021217300256C174BC
:1055430001650B600302569B1256CD400302569B26
:10555300E8900DD20256987401650B600302569BC6
:105563008E828F83E09012A30256987404650B60B9
:105573000302569B8E828F83780C1215EA908FEC70
:10558300780C1213F6500302569B900DD4780C122C
:1055930015F90256C1E9600302569B1204FDE97036
:1055A300051211458060900E67806E7407650B606D
:1055B3000302569B75080675090078081219848E34
:1055C300828F83A3AC82AD837402121765AA82AB68
:1055D30083120F7174021217307C007D00851882CC
:1055E300851983AA82AB838E828F83E0F91210DF41
:1055F300E9F508C3940A40030256BE1204FDE9709C
:105603000CA90812114B7950121349806E74682546
:1056130008F582740E3400F5837401807874016593
:105623000B70751256CD5070E8900DD380677401DE
:10563300650B70648E828F83E0F8C3940A5059E837
:105643009012A280507401650B704D8E828F83E09F
:10565300F874F928C3940A503FE89012A480367472
:1056630001650B7033900E66E0F88E828F83E090B5
:105673000E66F0E87048E064017043121139803E11
:105683007401650B70128E828F83E0F8C39404500B
:1056930007E89012A5F08026750A188021C3EA94C2
:1056A30027EB940050157402650B700F8E828F8365
:1056B3001262481203E3E9F50A8003750A02A90A94
:1056C30074061217307F080218438E828F83E0F826
:1056D300C394022274F212177174DA12171A890A28
:1056E300ECFEEDFF7420121765AC82AD8375838FDA
:1056F3007582CA740612162D7420121765AC82AD1A
:10570300831210DFE9F5087434121765E0F50BE92D
:10571300C3940A4003025832121121E9F509901289
:105723009FE06402700474018001E4F50C780C12AC
:105733001988AD0BAC09A908EEFAEFFB12116F74CF
:10574300011217307C147D007900740C121765AABE
:1057530082AB83120F8375F006E508A4F50B740C76
:10576300121765AC82AD837A107424250BF91213DA
:1057730043E9703D7C1079FF740C121765AA82AB64
:1057830083120FE9E9702A741C121765AC82AD838A
:105793007A047425250BF9121343740C121765ACA4
:1057A30082AD83E509A2E0E433F9EEFAEFFB1204DC
:1057B30079851882851983AC82AD837A0C74702540
:1057C30008F9121343E97053851882851983AA8255
:1057D300AB83121115750800E50875F003A4F8A949
:1057E300F0851882851983E58228F8E583126055D0
:1057F300126242601D88828983A3A3E0F50C750DB4
:1058030000780C121984EEFAEFFB120707740212E8
:1058130017300508E508C3940440BDE509A2E1502B
:1058230046900DBEE0F9EEFAEFFB12070D803874D7
:1058330008650B703290129FE06402702A7C007D31
:1058430000A90AEEFAEFFB121169126AD760181267
:105853005E5D88828983E5824583600B7C007900E5
:10586300EEFAEFFB12176F7900742602621E74F0D2
:10587300121771EAFEEBFF8C088D09750A0AE960BD
:105883000C14600914603714607902592012112D29
:10589300E9F50AC3940A4003025920E50845096063
:1058A3007C750E06750F00780E121984EEFCEFFD61
:1058B300AA08AB09120F6B7402121730805F750BC5
:1058C30000750E06750F00780E121984EEFCEFFDBD
:1058D300E50B75F00EA4F8A9F074E028FA740D39FD
:1058E300FB120F7D7402121730E9600C850B0AE579
:1058F3000AC3940A50278016050BE50BC3940A507C
:105903001C80BE121133E9F50AC3940A500FE5084F
:1059130045096009AA08AB09A90A121127A90A02B5
:1059230056C874F4121771890875091574FF6A70E3
:105933000374FF6B70277E00AC087A027B00EEF9DC
:10594300121103E960037509000EEEC3940A40E8DF
:10595300E50860537A5D7B111208F9804A1208DB6F
:105963008A0A8B0BAE0AAF0BEE4F60387C007D00CA
:10597300EE2405FAEF3400FB8E828F83A3A3A3A347
:10598300E0F91210DFE9C3940A500CAC087A027BE9
:1059930000121103750900E508600CEEFAEFFB1223
:1059A300115D8003750914A9098005740E1217305F
:1059B3007F0402184374F2121771ECFEEDFF7508B1
:1059C30015740E121765E0F50AA3E0F50B74FF6A70
:1059D300700374FF6B7021750900AC0AAD0BEEFA0E
:1059E300EFFBA909121109E960037508000509E530
:1059F30009C3940A503F80E21208DB8A828B83E555
:105A0300824583602D7C007D00E5822405FAE583D1
:105A13003400FBA3A3A3A3E0F91210DFE9C3940AA4
:105A23005013AC0AAD0BEEFAEFFB12110975080027
:105A33008003750814A908026221C082C083900DF7
:105A4300D8EAF0A3EBF0900DBEE0FC7D007A267B54
:105A5300001203E3900DBEE0F91206890267177482
:105A6300EC1217718A088B09E9FE74141217657812
:105A73000C1215EA7F00EE702E7808121984908FAD
:105A8300EC78101215EA780C7910121495AA10AB61
:105A930011AC12AD1312048B7402121730E9FF60BC
:105AA300097901AA08AB09120485EFF97F0C0218E2
:105AB3004374F012177174EC12171AEAFEEBFFEE3F
:105AC300240CF50EEF3400F50F8E828F83A38582AD
:105AD3000A85830BEE2403F508EF3400F5098E8263
:105AE3008F83A3A3E024FA7003025DF924FD7003FE
:105AF300025D10147003025B8C14601014700302B7
:105B03005D4424FE7003025C88025E51EE2409F5B5
:105B13000AEF3400F50B126AD76043E0F5838882FD
:105B2300125E58880C890DE8450D6032850E82851A
