:020000040000FA
:0600000002010A0220AB20
:03002B000223337A
:0300330002231590
:03003B0002235449
:030043000222C9CD
:0300530002211E69
:03006B000222EF7F
:10008300021F17E5C754F84401F5C77901220000A0
:100093000080FB120086B900030200F4E4791A78A9
:1000A30002B800028004F709D8FCE4791C7802B88E
:1000B30000028004F709D8FCE490028178437910A8
:1000C3008002F0A3D8FCD9FA9011C3AA82AB839023
:1000D300013A78DC79018015E493A3AC82AD838A7D
:1000E300828B83F0A3AA82AB838C828D83D8E9D9D8
:1000F300E775823E7583CE740312011C7582917578
:100103008300740012011C75D00075813F7518813E
:10011300751902759F00020096C09FF59FE473D086
:100123009F22D083D082C09FE493C0E0740193C028
:10013300E0740293F59F2289039B03C5038F03FF9A
:100143000000B4000028002800283075A000A0009B
:10015300A000A00000080008E001F000100010005B
:10016300100010001000100050005000500010004C
:100173001000D0070000000000000F000100050080
:10018300307507001000010081FF00000000FF022E
:1001930002024E820100003E820248820100001BDF
:1001A30012024482010000B2020248820100001CD4
:1001B30012024C82010000C802FFFF0100FF20026F
:1001C3004E8201000041820248820100004A12026D
:1001D30054820000000000024682030000A503EBE6
:1001E3000AEB0AEB0AEB0AEB0AEB0AEB0AEB0AEB64
:1001F3000AEB0AEB0AEB0AEB0ABF0CDD0CB90CFFA6
:10020300FF01E803053F10020AFF009A10FEFF36C4
:100213000001120125A7C303120125BDC303120167
:1002230025ECC30312012522C40312012539C4039B
:1002330012012570C403120125C3C403120125DA78
:10024300C403120125A0BB03120125B7BB0312018E
:1002530025E8BB0312012523BC031201254DBC0372
:1002630012012577BC031201258EBC03120125A5BB
:10027300BC03120125BCBC03120125E5BC0312011A
:1002830025F8BC031201250EBD0312012538BD0359
:1002930012012535AA0212012539AB021201256686
:1002A300AB02120125BCAB02120125DFAB02120126
:1002B30025F3AB02120125F5AB0212012518AC029E
:1002C30012012527AD02120125EBAD02120125C053
:1002D300AE0212012531AF02120125BDAF02120198
:1002E30025C0AF0212012548B00212012583B002D6
:1002F300120125EAB00212012521B102120125AF34
:10030300B10212012539B20212012588B20212018B
:100313002595B20212012598B202120125F8B20204
:1003230012012503B30212012582B30212012585AE
:10033300B30212012598B3021201259BB3021201E5
:10034300252AB40212012544B40212012554B40231
:1003530012012584B40212012591B40212012594DD
:10036300B40212012515B50212012503B6021201CA
:1003730025B5B60212012518CD0212012515CE02AC
:1003830012012597CE02120125B7CE02120125FFD5
:10039300CE0212012552CF02120125B6CF0212015D
:1003A3002543D002120125FDD0021201250CD402EF
:1003B30012012597D502120125BAD502120125ECA7
:1003C3009F0312012589A103120125EDA103120147
:1003D300254CA2031201255AA20312012583A2036D
:1003E30012012500800312012528800312012556DE
:1003F30080031201258D8003120125EB8003120176
:1004030025368103120125818103120125C1810350
:10041300120125078203120125358203120125F2F9
:100423008203120125FC82031201250983031201B1
:10043300253C830312012508840312012514840338
:100443001201252C8403120125368403120125B4DD
:10045300840312012558C90312012566C903120139
:10046300257EC90312012596C903120125AEC903CE
:10047300120125EBEE0112012597EF01120125125E
:10048300F00112012533F1011201256FF10112016F
:100493002518F201120125FFF20112012563F4016F
:1004A300120125BAF4011201253BF5011201252B96
:1004B300F60112012578F601120125FEF60112015B
:1004C3002530F70112012544F90112012586F901AE
:1004D300120125A4F90112012546FA011201250E84
:1004E300FB011201251BFD0112012597A303120134
:1004F30025ADA303120125D3A303120125EFA40302
:10050300120125F9A4031201252EA60312012526A3
:10051300A703120125188F03120125BC8F031201B3
:1005230025EF8F03120125399003120125FC910356
:10053300120125CBAF0112012544B001120125544C
:10054300B00112012542B1011201255CB101120172
:1005530025BBB101120125C6B101120125B0B201BB
:1005630012012566B3011201254DB50112012506BD
:10057300B701120125E2B70112012596B801120154
:1005830025D3BB0112012581BC01120125F0BD0158
:1005930012012570BF0112012517C0011201256048
:1005A300C00112012597C00112012534C1011201B6
:1005B30025BFC1011201259CC201120125F1C2010F
:1005C30012012550C40112012560C4011201258DB9
:1005D300C401120125E4C4011201258DC5011201D4
:1005E3002594C6011201255EC701120125BEC8016B
:1005F30012012501C901120125A6C901120125CC49
:10060300C901120125DACB01120125DFCB01120149
:1006130025E4CD0112012531CE01120125A4CE011D
:10062300120125D7CE0112012579CF01120125220E
:10063300D0011201255AD0011201255DD00112010A
:1006430025A5D001120125E7D0011201253ED101D4
:10065300120125C8B403120125DBB403120125E9F5
:10066300B40312012531B50312012547B503120165
:10067300258EB503120125A2B6031201252FB70358
:100683001201257AB7031201257F5E001201258F1F
:100693005E00120125F25E00120125375F00120190
:1006A30025ED5F00120125C86000120125F16000ED
:1006B3001201252161001201256163001201254801
:1006C30065001201252067001201256468001201EC
:1006D30025CB6A00120125D96B001201252B6D0071
:1006E300120125356E00120125776E00120125AF28
:1006F3006E00120125D16E00120125346F00120124
:1007030025F673001201258B7400120125DF740096
:100713001201250675001201254475001201256397
:100723007500120125BD7500120125BD7600120169
:1007330025427700120125A1F302120125ABF30232
:1007430012012553F40212012596F402120125B178
:10075300F40212012541F50212012569F502120185
:1007630025A1F502120125D8F50212012501F60291
:100773001201253BF60212012550F6021201251D36
:10078300F70212012540F70212012562F702120156
:100793002577F702120125FDF70212012537F8022A
:1007A300120125AFF802120125F8F80212012522E1
:1007B300F9021201254DF90212012544C603120163
:1007C300250080021201252E800212012589810253
:1007D3001201256982021201258882021201250570
:1007E3008302120125488302120125C384021201E8
:1007F300253285021201255D8702120125E1890256
:10080300120125928A02120125888B0212012528E2
:100813008C02120125268D02120125B18D021201CF
:1008230025F1C4031201255AC503120125AEC503E0
:10083300120125DDC503120125FEC5031201259909
:1008430093031201250694031201254D940312010B
:10085300256595031201256196031201254497032B
:100863001201258AE602120125CCE602120125A512
:10087300E7021201259FE80212012581E902120114
:1008830025EAE90212012506EB0212012572EB02A9
:1008930012012575EB021201259EEB0212012518A8
:1008A300EC02120125BDEC02120125D2EC02120169
:1008B3002518ED0212012531ED0212012534ED0256
:1008C30012012530A7031201256CA703120125AAE3
:1008D300A70312012574A803120125E3A80312013B
:1008E300251EA9031201255CA9031201258CA90366
:1008F300120125B3A90312012521AA0312012563BD
:10090300AA031201256282011201258184011201C9
:1009130025648601120125A08601120125CD8601D9
:10092300120125948701120125DF87011201252A6F
:1009330088011201253C88011201257C88011201DE
:1009430025B08801120125FE88011201252F890196
:10095300120125528901120125D98901120125C1EC
:100963008A01120125AE8B01120125A78C01120108
:1009730025B68E01120125589401120125A8940170
:100983001201251F9701120125A4B703120125594E
:10099300B903120125A84100120125574200120193
:1009A30025A14200120125D743001201256D450000
:1009B300120125E245001201252346001201257587
:1009C3004600120125E647001201252B4A001201B9
:1009D30025254B00120125444B00120125634B00D2
:1009E300120125664B00120125974C001201258F39
:1009F3004D001201257B4E00120125EB4E00120122
:100A0300255D4F00120125E44F00120125BF500060
:100A1300120125945100120125735200120125FE83
:100A230052001201256C5300120125E053001201FC
:100A3300250B5400120125CA5400120125B7570093
:100A4300120125005800120125435800120125BC4C
:100A53005800120125545900120125455A0012016C
:100A6300256A5A00120125B05A00120125DA5A00EC
:100A7300120125225B001201259D5B00120125F75F
:100A83005B00120125605D001201250E5E0012015C
:100A9300254F5E00120125619C02120125AF9C02C5
:100AA300120125BB9C02120125999D02120125CA40
:100AB3009D02120125FB9D021201257B9E0212015C
:100AC30025B39E02120125059F02120125429F02B2
:100AD3001201255FA10212012585A30212012570CF
:100AE300A5021201255AA702120125FDFF021201D8
:100AF3002575F902120125C0FD0212012504FF022A
:100B030012012597E0011201254FE301120125553A
:100B1300E3011201250FE601120125DCE8011201B0
:100B2300253C8503120125E08503120125B28603C6
:100B3300120125DC86031201252A8903120125C827
:100B43002300120125122400120125533200120141
:100B530025D83300120125FB34001201256C3B001C
:100B6300120125673C00120125A43C00120125C790
:100B73003C00120125093D00120125133D0012011D
:100B830025013E00120125F73E00120125903F008A
:100B930012012581B1031201257BB203120125EF56
:100BA300B2031201252DB303120125A1B3031201D0
:100BB300251AB40312012523B4031201252FB4030C
:100BC30012012544B40312012582B40312012598AE
:100BD300B40312012558ED0212012565ED0212013D
:100BE300257FED02120125BEED02120125FCED0267
:100BF30012012561EE0212012576EE021201258D06
:100C0300EE021201259BEE02120125AAEE02120149
:100C130025BFEE02120125D4EE02120125DFEE02FA
:100C2300120125EBEE02120125F8EE02120125074F
:100C3300EF0212012512EF0212012537EF02120112
:100C430025DEEF02120125F3EF0212012508F0025F
:100C530012012522F0021201253DF0021201255A4C
:100C6300F00212012565F00212012521F1021201A1
:100C7300250DF20212012532F2021201253DF20284
:100C830012012552F20212012566F202120125C752
:100C9300F202120125CDF202120125D3F202120152
:100CA30025D9F202120125F1F20212012524F302E1
:100CB300120125C2C202120125E4C202120125C497
:100CC300C3021201259BC602120125C7C7021201E6
:100CD30025EBC8021201259DC9021201253ECA0255
:100CE300120125378E02120125BB8E021201256ADD
:100CF3008F02120125C99002120125EA9202120104
:100D030025D693021201250B94021201252D94027C
:100D1300120125DC9402120125D49602120125FD4D
:100D230096021201258F9702120125C19702120123
:100D330025CE97021201252598021201254B980210
:100D4300120125B89A02120125BB9B021201251339
:100D53009C021201252BD20112012535D301120168
:100D6300251CD40112012526D40112012548D401E2
:100D730012012554D401120125EDD5011201251CC0
:100D8300D60112012538D70112012591D70112018D
:100D930025F7D801120125D6D90112012532DA012E
:100DA3001201259FDA01120125DADA011201251950
:100DB300DB01120125D2DD01120125ECDD01120157
:100DC3002578DE0112012586DE01120125DFDE0111
:100DD300120125EDDE0112012560DF01120125C498
:100DE300DF011201250EE0011201254ABD031201A4
:100DF300256FBD03120125E1BD031201253EDF026C
:100E030012012547DF0212012550DF0212012527B7
:100E1300E002120125D8E1021201250EE2021201BD
:100E23002548E2021201257EE202120125B8E20200
:100E3300120125ECE20212012518E30212012561D9
:100E4300E3021201259BE302120125E4E3021201EE
:100E5300253CE40212012571E402120125CCE402CF
:100E630012012506E50212012557E5021201258D1F
:100E7300E502120125C7E502120125EAE502120186
:100E83002533CB031201255FCB03120125BACB0314
:100E9300120125C4CB03120125D4CB03120125E58E
:100EA300D602120125EFD6021201252DD702120117
:100EB3002576D702120125B0D7021201250AD802DE
:100EC3001201252BD80212012503DB021201250C86
:100ED300DB0212012559DB0212012582DB0212011A
:100EE300258CDB02120125F8DB021201258ADC02C4
:100EF300120125D4DC021201250ADD021201259616
:100F0300DD02120125D7DD021201250EDE021201D8
:100F13002520DE021201253FDE0212012548DE02F2
:100F230012012510DF0212012561C803120125AF4A
:100F3300B903120125E5B9031201251BBA031201F6
:100F43002566BB0312012575CD031201258BCD0345
:100F530012012595CD031201250698031201251BC5
:100F63009803120125CE98031201250E990312014D
:100F730025279903120125629903120125AF9903CD
:100F8300120125E19903120125239A031201252E4B
:100F93009C03120125DFCD0312012591C003120129
:100FA30025BAC003120125E9C00312012581C1033B
:100FB30012012599C103120125DBC1031201255634
:100FC3008A03120125988A03120125218B0312013A
:100FD30025728B03120125B78B03120125128C0393
:100FE300120125618C03120125B78C03120125AC74
:100FF3008D03120125A38E03120125E08E03120136
:101003002506CD03120125389901120125B99B014B
:10101300120125539D01120125079E011201259AF4
:101023009E011201251F9F01120125449F011201F8
:1010330025969F011201254BA301120125D1A3017E
:1010430012012504A5011201253EA50112012573F4
:10105300A50112012530A70112012564A701120180
:1010630025C1A7011201250AA80112012571A801B2
:10107300120125EAA80112012519A901120125313E
:10108300A9011201257AAA011201258AAA011201D6
:1010930025A8AB01120125CAAB0112012500AC0141
:1010A300120125AFAD011201253CAE011201257BD2
:1010B300AE0112012594AF0112012547FF0212016F
:1010C3002558FF0212012591CE03120125D0CE032C
:1010D300120125EB7F00120125DECB03120125EE61
:1010E300CB0312012509CC0312012571CC03120194
:1010F300255DC703120125E2C70312012548C80372
:1011030012012520C20312012549C203120125B48D
:10111300C20312012505C30312012560C303120193
:101123002517AE031201252CAE0312012570AF0360
:10113300120125ECAF0312012560B0031201257AD9
:10114300B00312012591B003120125A4B0031201CB
:1011530025BEB003120125D5B003120125FBB00350
:101163001201254CB1031201253B9C0312012552A8
:101173009C03120125CC9C03120125B09D0312018F
:1011830025879F03120125ABAA031201253BAB035D
:10119300120125C7AB0312012560AC03120125F12F
:1011A300AC03120125FAAC0312012578AD03120139
:1011B300258BAD03120125A1AD0312012501AE0359
:1011C30012012514AE031201257BCC03120125EB7A
:1011D300CC03120125FBCC03120125EFBE03120140
:1011E3002541BF03120125CBBF0312012532C003E2
:1011F30012012534FD011201255EFD011201252C8A
:10120300FE0112012507FF011201258EFF011201C4
:1012130025A97700120125707800120125A778000F
:10122300120125D178001201253179001201258799
:101233007900120125EC7900120125847A0012014C
:1012430025937B001201252A7D00120125B77D001D
:101253001201251E7E00120125357E001201254F45
:101263007F001201258D7F0012012547CA03120159
:101273002526B70212012530B802120125F3B9025F
:1012830012012588BA021201258CBB02120125AF77
:10129300BB02120125E5BE0212012537BF0212016E
:1012A30025D5BF02120125FAC0021201259FC102F2
:1012B30012012520C20212012510CF03120125DAE3
:1012C300CE031201253CCF0312012564CF03E76649
:1012D30070100809E766700A0809E76670040809D0
:1012E300E76622E066701008A3E066700A08A3E0D0
:1012F30066700408A3E06622C3E7960809E7960828
:1013030009E7960809E79622C3E09608A3E0960842
:10131300A3E09608A3E09622C008C3E096F5080868
:10132300A3E096420808A3E096420808A3E0964586
:10133300087001D3D00822080808EAC0E0EBC0E037
:1013430086F0E7A4FA180986F0E7A42AFA180986B2
:10135300F0E7A42AFA180986F0E7A42AFA1986F016
:10136300E7A4FBE5F02AFA190886F0E7A42BFBE5CE
:10137300F03AFA190886F0E7A42BFBE5F03AFA18DD
:10138300180986F0E7A4C5F02BFBE43AFA1908E73D
:10139300C5F0C6A426F6E5F03BFBE43AFA1886F05E
:1013A300E7A4F6E5F00826F6E43B08F6E43A08F687
:1013B300D0E0FBD0E0FA22E4CFC0E0E4CEC0E0E42A
:1013C300CDC0E0E4CCC0E075F020C3E633F608E618
:1013D30033F608E633F608E633F6181818EC33FC50
:1013E300ED33FDEE33FEEF33FFC3EC9709ED9709C1
:1013F300EE9709EF97191919400FFFEC97FC09EDC8
:1014030097FD09EE97FE191906D5F0BEECF709ED25
:10141300F709EEF709EFF7191919D0E0FCD0E0FD51
:10142300D0E0FED0E0FF226016080808C6C313C64A
:1014330018C613C618C613C618C613C6D5E0EA22C3
:101443007009080808226016181818C6C333C6089E
:10145300C633C608C633C608C633C6D5E0EA22E695
:1014630027F60809E637F60809E637F60809E637E6
:10147300F622E026F608A3E036F608A3E036F608DF
:10148300A3E036F622E026F008A3E036F008A3E056
:1014930036F008A3E036F022C3E697F60809E6978C
:1014A300F60809E697F60809E697F622C3E096F0F0
:1014B30008A3E096F008A3E096F008A3E096F022D4
:1014C300E657F60809E657F60809E657F60809E667
:1014D30057F622E056F008A3E056F008A3E056F0D2
:1014E30008A3E056F022E667F60809E667F608095E
:1014F300E667F60809E667F622E0F608A3E0F608D1
:10150300A3E0F608A3E0F622E6F008A3E6F008A3BA
:10151300E6F008A3E6F022E0FAA3E0FBA3E0FCA3D5
:10152300E0FD22EAF0A3EBF0A3ECF0A3EDF022CA76
:10153300C0E0E6F0A308DAFAD0E0FA22CAC0E0E09D
:10154300A3C582CCC582C583CDC583F0A3C582CC98
:10155300C582C583CDC583DAE6D0E0CA22C3E49849
:10156300F8E499F91215A18026C3E49AFAE49BFBE7
:10157300E920E7E91215A1E498F8E499F922C3E414
:1015830098F8E499F91215A1E498F8E499F9C3E4F9
:101593009AFAE49BFB22EB20E7CFE920E7E0B900CE
:1015A30010BB0008E88AF084F8AAF022E4FBC8FA2A
:1015B30022EB70227B10C833C8C933C9335007C329
:1015C3009AC3DBF280069A50012ADBEAC833F4C8D7
:1015D300C933F4C9FA2275F008E4C833C8C933C95A
:1015E30033C99AC99B5004C92AC93BD5F0ECFBC83F
:1015F30033F4C8E4C9FA22600D08C6A2E713C6187B
:10160300C613C6D5E0F322600C08C6C313C618C6BA
:1016130013C6D5E0F422700422600D18C6C333C686
:1016230008C633C6D5E0F41822251810AF08F518FC
:10163300400215198008F51840021519D2AF22C0CF
:10164300D0251810AF08F518500205198008F518B1
:1016530050020519D2AFD0D0222518F58210AF0859
:10166300F518400215198008F51840021519D2AF74
:10167300851983222518F582E43519F58322E4734D
:101683002518C582C0E0E51934FFC583C0E0E5181D
:10169300C3958224F810AF088583198582188008C2
:1016A300858319858218D2AFCEF0A3E520F0A37805
:1016B30008E608F0A3DEFAEFF0A3E58124FAF8E6E2
:1016C30008F0A3E608F0A3E608F0A30808E608F08C
:1016D300A3E608F0A315811581D0E0FED0E0F8154C
:1016E3008115811581E8C0E0EEC0E0222518C5828E
:1016F300C0E0E51934FFC583C0E0E518C395822433
:10170300F910AF08858319858218800885831985A8
:101713008218D2AFCEF0A3E520F0A37808E608F054
:10172300A3DEFAEFF0A3E58124FBF8E608F0A3E6D5
:1017330008F0A30808E608F0A3E608F0A31581154E
:1017430081D0E0FED0E0F815811581E8C0E0EEC05D
:10175300E022851983851882E0A3FEE0A3F52078B3
:1017630008E0A3F608DFFAE0A3FFE0A3C0E0E0A3EC
:10177300C0E0E0A3C0E0E0A3C0E0E0A3C0E010AF9E
:10178300088582188583198008858218858319D274
:10179300AFD083D082020122851983851882E0A30A
:1017A300FEE0A3F5207808E0A3F608DFFAE0A3FF44
:1017B300E0A3C0E0E0A3C0E0E0A3C0E0E0A3C0E09A
:1017C30010AF088582188583198008858218858360
:1017D30019D2AFD083D08222C0D02518C582C0E0F1
:1017E300E51934FFC583C0E0E518C3958224F310DF
:1017F300AF08858319858218800885831985821827
:10180300D2AFC8F0A3E9F0A3EAF0A3EBF0A3790801
:10181300E709F0A3D8FAECF0A3EDF0A3EEF0A3EF01
:10182300F0A3D0E0F0A3D0E0F0A3D0E0F0A3E52054
:10183300F0A3E5F0F0A322851983851882E0C0E0C8
:10184300A3E0F9A3E0FAA3E0FBA37808E0F608A37A
:10185300DFFAE0FCA3E0FDA3E0FEA3E0FFA3E0C00A
:10186300E0A3E0C0E0A3E0F5D0A3E0F520A3E0A36C
:10187300F5F010AF088583198582188008858319D0
:10188300858218D2AFD082D083D0E0F8D0E0327412
:10189300048006740280027401C0E0F40412165C32
:1018A300D0E0121532227404800474028000CCC08C
:1018B300E0EDC0E0E518C39CCCAD1950011D10AF9D
:1018C300068C188D1980068C188D19D2AF12153F0E
:1018D300D0E0FDD0E0FC22D083D082E9C0E0E493E5
:1018E300A3C386F0C5F095F0F908E493A386F0C589
:1018F300F095F0700BE493A3C3994005E9048002CB
:10190300A3E475F002A42582F582E5F03583F5831F
:10191300D0E0F9E493A3C0E0E493C0E022D083D005
:1019230082ECC0E0EDC0E0E493A3FCE493A3FDEDFF
:101933004C600D12196CEC24FFFCED34FFFD80EFBD
:10194300E493A3FCE493A3FDED4C600D1219ABECFF
:1019530024FFFCED34FFFD80EFD0E0FDD0E0FCE49C
:1019630093A3C0E0E493C0E022C0E0C3E4939608ED
:101973007401939618400FE49366700808740193FA
:10198300661870007019A3A3C3E4939608740193B7
:101993009618A3A3400DD0E0D0E0D0E002195CA3D9
:1019A300A3A3A3A3A3D0E022C0E0C0F088F0E493F4
:1019B3006670080874019366187000A8F0A3A370FA
:1019C3000BD0F0D0E0D0E0D0E002195CA3A3D0F0BC
:0319D300D0E0223F
:1019D80074F51216EFEAFEEBFFEE2434F8EF34004C
:1019E800F988088909EE2435F582EF3400F583E09B
:1019F800F8EE2437F582EF3400F583E0F50AEC853C
:101A08000AF0A4FCAAF0850AF0EDA42AFDE82CF857
:101A1800E43DF97A257B001215A1EA85088285093B
:101A280083F0F8740758F97401B900028004C333CD
:101A3800D9FCFAE8131313541FF8EE28F8EF340012
:101A4800F9E8245DF582E93400F583E05A6008EE90
:101A58002434F582EF802CEE2434F582EF3400F53F
:101A680083E0C0E0EE2436F582EF3400F583E0F53C
:101A7800F0D0E084A8F0EE28F8EF3400F9E8243834
:101A8800F582E93400F583E0F97F0402179B74F5C9
:101A98001216EFEAFEEBFFEE2434F582EF3400F580
:101AA80083E0C0E0EE2435F582EF3400F583D0E022
:101AB800F08E828F83A3A3A3A3A3A3A3C082C08312
:101AC8008E828F83A3A3A3A3A3E0F8A3E0F9D08316
:101AD800D082E0C398F508A3E099F509EE247FF5D4
:101AE80082EF3400F583E064017069EE2480F582AA
:101AF800EF3400F583E0F8A3E0F98E828F83A3A387
:101B0800A3A3A3A3A3E0FCA3E0FD8E828F83A3A3DA
:101B1800A3A3A3E0FAA3E0FBC3EA9CEB9D5010C388
:101B2800EC98ED99402EC3EA98EB995027800EC3A4
:101B3800EA98EB994007C3EC98ED9940177CBF7D74
:101B480007EEFAEFFB120A31EE247FF582EF34003C
:101B5800F583E4F0EE2434F8EF3400F9E8FCE9FD0D
:101B6800EE2435F582EF3400F583E0F8EE2437F5FE
:101B780082EF3400F583E0F50AE508850AF0A4F55C
:101B880008AAF0850AF0E509A42AF509E82508F865
:101B9800E43509F97A257B001215A1EA8C828D8338
:101BA800F0F8740758F97401B900028004C333D9F6
:101BB800FCFAE8131313541FF8EE28F8EF3400F971
:101BC800E8245DF582E93400F583E05A6008EE24E4
:101BD80034F582EF802CEE2434F582EF3400F5835F
:101BE800E0C0E0EE2436F582EF3400F583E0F5F04E
:101BF800D0E084A8F0EE28F8EF3400F9E82438F5AE
:101C080082E93400F583E0F91222B5021A9174EFE3
:101C18001216EF900479E064086005E06407702A02
:101C28009061C8E060249004A7E0F4601DE0F875B6
:101C3800F005A4C8AAF02AF974A928FE740439FF8B
:101C48008E828F83A3A3A3E07003021D4690606079
:101C5800E0C0E0EE2468F582EF3400F583D0E0F0D0
:101C6800750CFB750D07750800750900E5D914F5A5
:101C78000AE5D95403F50E60177403650E605CE538
:101C88000A6010EE2467F582EF3400F583E07003F4
:101C9800021D2B9007F6E06401602AEE2482F5828B
:101CA800EF3400F583E06004780480027800850A48
:101CB80008E508C398FA95E0FB1209178A088B090A
:101CC800EA45097005120C958074EE2482F582EFBE
:101CD8003400F583E070048A0C8B0DE50A601285E8
:101CE8000C82850D83F50BE5D9F0A3150BE50B7078
:101CF800F6EE2482F582EF3400F583E0604474FC4C
:101D0800250AF50A780C121896AC0AA90EEEFAEF15
:101D1800FB120AE57402121642E97026AA08AB09FA
:101D28001211E1793D8E828F83A3A3A3A3E0FA7BEE
:101D3800001207FDEEFAEFFB120A55120B45790067
:101D480080747403650E6056850A1075110078104A
:101D5800121896AC0CAD0DAA08AB09120AC1740290
:101D6800121642EE2468F582EF3400F583E06480B1
:101D78007004747F8001E0F50C780C12189AE50E57
:101D8800F50C780C12189AA90AAC08AD099004A7AA
:101D9800E0FA7B001207BB7402121642801390040B
:101DA80079E06408700BAC0CAD0DEEFAEFFB120B8A
:101DB80015120CA179017F0A02179B74F51216EF10
:101DC80074FC12162CEAFEEBFF8908A2AFE433F587
:101DD80009C2AF806AEE2463F8EF3400F97A007B19
:101DE80000A2AFE433F50AC2AF88828983E0FCA37E
:101DF800E0FDEC4D603A88828983E0FAA3E0FB8A33
:101E0800828B83E0FCA3E0FD88828983ECF0A3ED5C
:101E1800F08A828B83E4F0A3F088828983E0FCA3B4
:101E2800E0FDEC4D700A88828983A3A3E4F0A3F057
:101E3800E50AA2E092AF1211E19007C6E004F0EEC5
:101E48002463F582EF3400F583E0F8A3E0F9E8496C
:101E5800603DEE2463F582EF3400F583E02402FA56
:101E6800A3E03400FBEA2402F50AEB3400F50B7812
:101E78000A1218968A828B83E0FCA3E0F9EEFAEF47
:101E8800FB120A857402121642E97003021DDD90E6
:101E980007C6E060639007C7E0F89007C6E0C398FC
:101EA800500C7402650870509007C8E0604A8E8232
:101EB8008F83A3A3A3A3E0851882851983F0A3E4E5
:101EC800F09007C6E0F87402121677E8F0A3E4F081
:101ED8009007C6E0F89007C5E028F074021216775C
:101EE800AC82AD83851882851983AA82AB83790178
:101EF8001207C79007C6E4F0E509A2E092AF7404A0
:101F0800121642021A910000851A87851BC622C044
:101F1800E0C0D0E8C0E0E9C0E0EAC0E0EBC0E0EC37
:101F2800C0E0EDC0E0EEC0E0C008C009C00AC00BC8
:101F3800C082C083C0F0A2AFE433FEC2AF759B007D
:101F4800906182E0A2E05012E591A2E0500C7591F8
:101F5800FE7401651A7003121C16E0A2E55051E5E3
:101F680091A2E5504B7591DF900479E06407600514
:101F7800E0640870237401651A703579019004A72C
:101F8800E0FA75F005A4CAA8F028FB74A92AFA7427
:101F9800043BFB121DC38018E0640D701390049B72
:101FA800E004F064287002E4F07A00E0F9120CA76B
:101FB800906182E0A2E6400302205EE591A2E6403D
:101FC8000302205E7591BF900479E06405700812E1
:101FD8000BB1120BBD8003120BB7751A00120C1748
:101FE800E990047AF07900120BF91209A17A017BC1
:101FF80000900478E0F9120EFF907803E0644270D4
:10200800559007FAE014F0704DC2AF122016007810
:102018001DD0E0F618D0E0F6E59F54077005750965
:10202800FF800375097FC4C0E0781CE6F50808E660
:102038005509F509740B780812160AD0E02508F836
:10204800906270E0A2E740F8E8C333906272F090C3
:102058006270E0D2E0F0906181E0A2E35009E5E926
:10206800A2E3500375E9F7A3E0A2E75009E591A2BE
:10207800E7500375917FEEA2E092AFD0F0D083D005
:1020880082D00BD00AD009D008D0E0FED0E0FDD035
:10209800E0FCD0E0FBD0E0FAD0E0F9D0E0F8D0D016
:1020A800D0E032C0E0C0D0C082C083906183E0A29B
:1020B800E05009E5BFA2E0500375BFFEE0A2E15081
:1020C80009E5BFA2E1500375BFFDE0A2E25009E5B2
:1020D800BFA2E2500375BFFBE0A2E35009E5BFA22F
:1020E800E3500375BFF7E0A2E45009E5BFA2E4504E
:1020F8000375BFEFE0A2E55009E5BFA2E5500375FF
:10210800BFDFE0A2E65009E5BFA2E6500375BFBFF6
:10211800D083D0828088C0E0C0D0E8C0E0E9C0E0C9
:10212800EAC0E0EBC0E0ECC0E0EDC0E0C0F0E5A73D
:10213800A2E6500FE5A1A2E6500953A7BF75A1BFBB
:10214800122183E5A7A2E5500CE5A1A2E5500653AC
:10215800A7DF75A1DFE5A7A2E15009E5A1A2E1503B
:102168000375A1FDE5A7A2E2500CE5A1A2E2500685
:1021780053A7FB75A1FBD0F002209474F81216EF58
:10218800751A01900479E064067015120B698A8249
:102198008B83A3A3A3A3A3A3E0FAA3E0FB120B9F43
:1021A800A2AFE433FED2AF90047FE0640170187AE6
:1021B800207B00900478E0F9120F7D7A207B009054
:1021C8000478E0F9120F05906182E0D2E6F09007FA
:1021D800F7E0602185C61B801690047EE0640170DC
:1021E80008E5C654F84405F5C653BEFC121F107422
:1021F80001651A60E4EEA2E092AF7F0102179B74BA
:10220800ED1216EF8A088B098C0A8D0B74131216BF
:1022180077780C1214FC7808790C1212FB751001EF
:102228007511C875120075130050127808790C12D0
:10223800149B781079081212FB50168010780C79CC
:102248000812149B7810790C1212FB400479018053
:102258000279007F0C02179B74ED1216EF8A088B27
:10226800098C0A8D0B7413121677780C1214FC78EB
:102278000C79081212FB40117808790C12149BAAE9
:1022880008AB09AC0AAD0B802275100075110075FA
:1022980012007513017810790C12149B78107908C4
:1022A800121462AA10AB11AC12AD1380A6C082C082
:1022B80083E9906000F0D083D08222C2AF02000090
:1022C80022C0E074F21217DBA2AFE433FED2AFC231
:1022D800C0E5D1A2E4500653D1EF1211C3EEA2E03B
:1022E80092AF7F0102183AC0E074F21217DBA2AF76
:1022F800E433FED2AFE589A2E1500312111B7589C0
:1023080000C2C5EEA2E092AF7F0102183AC0E074A5
:10231800F21217DBA2AFE433FED2AFE58BA2E05096
:102328000312111B758B00C2E880D8C0E0C0D0E84A
:10233800C0E0E9C0E0E5A8D2AFC2C7A2E7A2E79231
:10234800AFD0E0F9D0E0F8D0D0D0E032C0E0C0D0D3
:10235800E8C0E0E9C0E0C008C009C082C083A2AFFD
:10236800E433F9D2AF901052E0F8A3E06870085354
:102378009AFBA374018026C2E9901052E0F5087414
:10238800012508F074D22508F582740F3400F5830E
:10239800E0F5C1901052E0C394804002E4F0E9A255
:1023A800E092AFD083D082D009D008D0E0F9D0E055
:0623B800F8D0D0D0E032A5
:1023C000FFFFFFFFFFFFFFFFC082C083784C79084B
:1023D00088828983A3A3A3A3A3A3E4F0888289832B
:1023E000A3A3A3A3A374FFF0E82418F8E93400F929
:1023F000E864AC7003E9640870D690084E74FFF08E
:1024000090084DE4F090084CF090084FF0A3F002D3
:102410003CC074EC12168390084FE0F508A3E0F579
:1024200009E508450970061209A102324E850882A5
:10243000850983E014601814601524FE601124C41B
:102440007003022C5424C07003022C5402324EE05C
:10245000F9120B578A0A8B0BAE0AAF0B9004A6E059
:102460007003022852120A49E9F875F005A4C8AAB7
:10247000F02AF974A928F50C740439F50D850C823D
:10248000F583E0F50AA3E0F50BAC0AFDEEFAEFFBED
:10249000120B51E9F50E7402650E70030227FA8ED5
:1024A000828F83E024FE600A24FE70030226E40289
:1024B000324EEE65087003EF650960211209BF9086
:1024C00007DAE0640170169007D9E0701079011204
:1024D0000C65120C35120C5F7900120C6BE50E6066
:1024E00021E5082415F582E5093400F583E0601242
:1024F0009007D5E0F8A3E0F9A3E0687003A3E069D2
:102500007042120BC98A0C8B0D8C0E8D0F75100347
:10251000751100751200751300780C791012146291
:102520007510FF7511FF7512FF780C79101214C326
:102530008E828F83A3A3E50CF0A3E50DF0A3E50E37
:10254000F0A3E4F0E5082415F582E5093400F583ED
:10255000E0640160030225FC850A82850B83A3A346
:10256000750CF1750DFF750EFF750FFF780C1214C9
:1025700075780C1218928E828F83A3A3C082C083B9
:102580009007D7E0F508A3E085080CF50DE4F50EFB
:10259000F50FD083D082780C121475AA0CAB0DAC59
:1025A0000EAD0F1222077404121642E9701F8E82BC
:1025B0008F83A3A3C082C0839007D7E0F508A3E070
:1025C000F509E4F50AF50BD083D0828014850A82E0
:1025D000850B83A3A37508F17509FF750AFF750BB9
:1025E000FF7808121475750CFF750DFF750EFF75D9
:1025F0000F007808790C1214C3022B4CEE240EF550
:1026000082EF3400F5831218A98E828F83A3A31260
:10261000151A1222077404121642E96401600302BB
:10262000316F850A82850B83A3A3750CF1750DFFAD
:10263000750EFF750FFF780C121475780C12189236
:102640008E828F83A3A3C082C0839007D7E0F50852
:10265000A3E085080CF50DE4F50EF50FD083D082CC
:10266000780C121475AA0CAB0DAC0EAD0F1222072C
:102670007404121642E9701F8E828F83A3A3C08256
:10268000C0839007D7E0F508A3E0F509E4F50AF563
:102690000BD083D0828014850A82850B83A3A37517
:1026A00008F17509FF750AFF750BFF78081214759C
:1026B000750CFF750DFF750EFF750F007808790C0E
:1026C0001214C3EE240EF582EF3400F5837808125D
:1026D000150B9007DDE06427700474258002E00488
:1026E000F002316FEE65087003EF65096031900705
:1026F000F1E0F91209C5850882850983E06402705A
:102700001E9007DAE0640170169007D9E070107926
:1027100000120C65120C35120C5F7901120C6BE57E
:102720000E60129007EBE0F8A3E0F9A3E0687003F5
:10273000A3E0697039120BC98A0C8B0D8C0E8D0FBA
:10274000751003751100751200751300780C79105F
:102750001214627510FF7511FF7512FF780C791055
:102760001214C38E828F83A3A3780C12150B850AD3
:1027700082850B83A3A3750CF1750DFF750EFF7594
:102780000FFF780C121475780C1218928E828F83BA
:10279000A3A3C082C0839007EDE0F508A3E08508FD
:1027A0000CF50DE4F50EF50FD083D082780C1214E1
:1027B00075AA0CAB0DAC0EAD0F12220774041216E5
:1027C00042E9701F8E828F83A3A3C082C0839007CB
:1027D000EDE0F508A3E0F509E4F50AF50BD083D0A8
:1027E000828014850A82850B83A3A37508F175097D
:1027F000FF750AFF750BFF022F5885088285098334
:10280000E0640270139007DAE06401700B9007D95E
:10281000E070057900120C65E50C2404FEE50D342A
:1028200000FF8E828F83E0F9120B8D8E828F83E002
:102830009004A7F07902FA75F005A4CAA8F028FB65
:1028400074A92AFA74043BFB121DC3AA0AAB0B023B
:10285000324BEE65087003EF65098E828F8360034B
:10286000022A6EE024FE600A24FE70030229AB02F5
:102870003247EE2415F582EF3400F583E0604C908A
:1028800007D5E0F8A3E0F9A3E0687003A3E069606E
:102890003A120BC98A088B098C0A8D0B750C0A75C4
:1028A0000D00750E00750F007808790C121462780F
:1028B000081218928E828F83A3A312151A12220770
:1028C0007404121642E96003023247120BC98A08E7
:1028D0008B098C0A8D0B750C03750D00750E007538
:1028E0000F007808790C121462750CFF750DFF75D6
:1028F0000EFF7808790C1214C38E828F83A3A378FD
:102900000812150BEE2415F582EF3400F583E06410
:102910000170328E828F83A3A3C082C0839007D7B9
:10292000E0F508A3E0F509E4F50AD083D082780841
:10293000121475EE240EF582EF3400F58378081238
:10294000150B023247EE240EF582EF3400F58312A8
:1029500018A98E828F83A3A312151A12220774045A
:10296000121642E9640160030232478E828F83A30C
:10297000A3C082C0839007D7E0F508A3E0F509E47F
:10298000F50AD083D0827808121475EE240EF582F1
:10299000EF3400F583780812150B9007DDE064270B
:1029A000700474258002E0040232469007EBE0F8E0
:1029B000A3E0F9A3E0687003A3E0696037120BC9D4
:1029C0008A088B098C0A8D0B750C0A750D00750E23
:1029D00000750F007808790C1214627808121892AA
:1029E0008E828F83A3A312151A1222077404121663
:1029F00042E97077EE2402F508EF3400F509120B76
:102A0000C98A0C8B0D8C0E8D0F7510037511007516
:102A10001200751300780C79101214627510FF758E
:102A200011FF7512FF780C79101214C38508828586
:102A30000983780C12150B850882850983C082C032
:102A4000839007EDE0F508A3E0F509E4F50AF50B3E
:102A5000D083D0827808121475EE240EF582EF34FC
:102A600000F583780812150B1209CB023247E024D7
:102A7000FE600A24FE7003022B5E02324E1209BF72
:102A80009007DAE0640170169007D9E070107901C0
:102A9000120C65120C35120C5F7900120C6B90074A
:102AA000D5E0F8A3E0F9A3E0687003A3E06960371C
:102AB000120BC98A088B098C0A8D0B750C0A750DCF
:102AC00000750E00750F007808790C1214627808F2
:102AD0001218928E828F83A3A312151A12220774E2
:102AE00004121642E97074EE2402F508EF3400F582
:102AF00009120BC98A0C8B0D8C0E8D0F7510037586
:102B00001100751200751300780C7910121462759B
:102B100010FF7511FF7512FF780C79101214C38520
:102B20000882850983780C12150B85088285098334
:102B3000C082C0839007D7E0F508A3E0F509E4F56B
:102B40000AF50BD083D0827808121475EE240EF5A6
:102B500082EF3400F583780812150B02316F90076D
:102B6000F1E0F91209C5850882850983E0640270E5
:102B70001E9007DAE0640170169007D9E0701079B2
:102B800000120C65120C35120C5F7901120C6B905F
:102B900007EBE0F8A3E0F9A3E0687003A3E0696045
:102BA00037120BC98A088B098C0A8D0B750C0A75B4
:102BB0000D00750E00750F007808790C12146278FC
:102BC000081218928E828F83A3A312151A1222075D
:102BD0007404121642E97079EE2402F8EF3400F919
:102BE00088088909120BC98A0C8B0D8C0E8D0F7504
:102BF0001003751100751200751300780C7910120E
:102C000014627510FF7511FF7512FF780C791012A0
:102C100014C3850882850983780C12150B850882F8
:102C2000850983C082C0839007EDE0F508A3E0F535
:102C300009E4F50AF50BD083D0827808121475EEFA
:102C4000240EF582EF3400F583780812150B120973
:102C5000CB0232419004A6E07003023065120A49AB
:102C6000E9F875F005A4C8AAF02AF974A928F510A6
:102C7000740439F511851082F583E0F508A3E0F5B9
:102C8000099004A7E0F875F005A4C8AAF02AF97421
:102C9000A928F50C740439F50D90084DE05407701F
:102CA00003022F73A3E0F9120B578A0A8B0BAE0AAB
:102CB000AF0BAC08AD09120B51E9F50E7402650EAD
:102CC0007003022F73850C82850D83A3A3A3A3E059
:102CD000F875F08AA4C8AAF02AF974B128F50A7424
:102CE0000839F50BAA0AFB120B81AA0AAB0B120BCF
:102CF0007B75128075130078121218967C007D6027
:102D0000E50A2406FAE50B3401FB120AC17402122B
:102D10001642A80AA90B906195E0C0E0E82486F568
:102D200082E93401F583D0E0F0906196E0C0E0E8FC
:102D30002487F582E93401F583D0E0F0906197E0D3
:102D4000C0E0E82488F582E93401F583D0E0F09012
:102D50006198E0C0E0E82489F582E93401F583D088
:102D6000E0F08E828F83E024FE600A24FE7003026E
:102D70002E7E022F731209BF9007DAE064017011F2
:102D80009007D9E0700B120C35120C5F7900120C11
:102D90006BE50E60129007D5E0F8A3E0F9A3E068B8
:102DA0007003A3E0697036120BC98A0C8B0D8C0E70
:102DB0008D0F751003751100751200780C791012C3
:102DC00014627510FF7511FF7512FF780C791012DF
:102DD00014C38E828F83A3A3780C12150B850882EF
:102DE000850983A3A3750CF1750DFF750EFF750F93
:102DF000FF780C121475780C1218928E828F83A3B0
:102E0000A3C082C0839007D7E0F50CA3E0F50DE4E2
:102E1000F50EF50FD083D082780C121475AA0CAB86
:102E20000DAC0EAD0F1222077404121642E9701F8A
:102E30008E828F83A3A3C082C0839007D7E0F5085A
:102E4000A3E0F509E4F50AF50BD083D08280148560
:102E50000882850983A3A37508F17509FF750AFF28
:102E6000750BFF7808121475750CFF750DFF750E44
:102E7000FF750F007808790C1214C30231609007B7
:102E8000F1E0F91209C5E50E60129007EBE0F8A336
:102E9000E0F9A3E0687003A3E0697036120BC98AF9
:102EA0000C8B0D8C0E8D0F751003751100751200B3
:102EB000780C79101214627510FF7511FF7512FFEE
:102EC000780C79101214C38E828F83A3A3780C120E
:102ED000150B850882850983A3A3750CF1750DFF79
:102EE000750EFF750FFF780C121475780C1218927E
:102EF0008E828F83A3A3C082C0839007EDE0F50C80
:102F0000A3E0F50DE4F50EF50FD083D082780C1216
:102F10001475AA0CAB0DAC0EAD0F1222077404127F
:102F20001642E9701F8E828F83A3A3C082C0839054
:102F300007EDE0F508A3E0F509E4F50AF50BD08309
:102F4000D0828014850882850983A3A37508F17552
:102F500009FF750AFF750BFF7808121475750CFFD1
:102F6000750DFF750EFF750F007808790C1214C3EC
:102F700002322FE510650C7004E511650D70030237
:102F80003043850C82850D83A3A3A3E07003023038
:102F900027850C82850D83A3A3A3A3E0F875F08A8F
:102FA000A4C8AAF02AF974B128FE740839FFEEFA11
:102FB000EFFB120B81EEFAEFFB120B7B750A8075AB
:102FC0000B00780A1218967C007D60EE2406FAEF5A
:102FD0003401FB120AC17402121642906195E0C0DE
:102FE000E0EE2486F582EF3401F583D0E0F09061C5
:102FF00096E0C0E0EE2487F582EF3401F583D0E05F
:10300000F0906197E0C0E0EE2488F582EF3401F59E
:1030100083D0E0F0906198E0C0E0EE2489F582EF83
:103020003401F583D0E0F0E5102404FEE51134000E
:10303000FF8E828F83E0F9120B8D8E828F83E0905A
:1030400004A7F079029004A7E0FA75F005A4CAA8D5
:10305000F028FB74A92AFA74043BFB121DC3AA08CA
:10306000AB0902324B90084DE05407700302324E18
:10307000A3E0F9120B578A088B09AE08AF098E82BC
:103080008F83E024FE600A24FE700302317702324F
:103090004E1209BF9007DAE0640170169007D9E07C
:1030A00070107901120C65120C35120C5F79001248
:1030B0000C6B9007D5E0F8A3E0F9A3E0687003A3D8
:1030C000E0696037120BC98A088B098C0A8D0B7571
:1030D0000C0A750D00750E00750F007808790C123A
:1030E000146278081218928E828F83A3A312151A85
:1030F0001222077404121642E97074EE2402F508D5
:10310000EF3400F509120BC98A0C8B0D8C0E8D0F54
:10311000751003751100751200751300780C791085
:103120001214627510FF7511FF7512FF780C79107B
:103130001214C3850882850983780C12150B850843
:1031400082850983C082C0839007D7E0F508A3E099
:10315000F509E4F50AF50BD083D0827808121475CE
:10316000EE240EF582EF3400F583780812150B90EB
:10317000084E74020232469007F1E0F91209C59038
:1031800007EBE0F8A3E0F9A3E0687003A3E069604F
:1031900037120BC98A088B098C0A8D0B750C0A75BE
:1031A0000D00750E00750F007808790C1214627806
:1031B000081218928E828F83A3A312151A12220767
:1031C0007404121642E97076EE2402F8EF3400F926
:1031D00088088909120BC98A0C8B0D8C0E8D0F750E
:1031E0001003751100751200751300780C79101218
:1031F00014627510FF7511FF7512FF780C791012AB
:1032000014C3850882850983780C12150B85088202
:10321000850983C082C0839007EDE0F508A3E0F53F
:1032200009E4F50AF50BD083D0827808121475EE04
:10323000240EF582EF3400F583780812150B12097D
:10324000CB90084E7404F0EEFAEFFB120B4B7F0CA0
:1032500002175574F0121683EAFEEBFFEE2402F813
:10326000EF3400F988088909EE2406F8EF3400F9F4
:10327000880A890B8882F5831218AD850882850932
:103280008312151A120BA57402121642850A828542
:103290000B831218AD85088285098312151A120B4B
:1032A000997402121642EE240EF582EF3400F58373
:1032B00012151A120BAB8E828F83E06440701CEEE5
:1032C0002412F8EF3400F988828983E0906064F07A
:1032D00088828983A3E09060658006906064E4F052
:1032E000A3F090084FEEF0A3EFF0EE2416F582EF76
:1032F0003400F583E0F8A3E0F5838882121681900C
:103300006054E4F0A3F0A3F0A3F0A3F0A3F0A3F0C3
:10331000A3F0A3F0A3F0A3F0A3F0906182E0C2E6D3
:10332000F07591BFEE2415F582EF3400F583E0646B
:10333000017003120BDBE5E170FCEE2414F582EF63
:103340003400F583E0F46003E0F5E1EE2415F58246
:10335000EF3400F5837401F090047FE06401707332
:10336000120BC98A088B098C0A8D0B7808121892E7
:103370008E828F83A3A312151A1222607404121670
:10338000428A088B098C0A8D0B750C05750D00752A
:103390000E00750F007808790C12133A7403780840
:1033A00012142AE50824F4F508E5093401F509901A
:1033B00007F7E06003120F29E4F50AF50B7808120D
:1033C00018927A207B00900478E0F9120F7174044F
:1033D0001216427F0802175574EA121683EAFEEBB2
:1033E000FF8C148D15EE4F70030234F4120BC98A52
:1033F000088B098C0A8D0B750C01750D00750E007C
:10340000750F007808790C121462750CFF750DFFAA
:10341000750EFF7808790C1214C38E828F83E064D6
:103420000270149007D5E0F8A3E0F9A3E0687003F8
:10343000A3E06970248017E06404701D9007EBE03E
:10344000F8A3E0F9A3E0687003A3E069700B8E8233
:103450008F83A3A3780812150B75101A75110075C8
:10346000120075130078081218928514828515834E
:10347000A3A312151A12226074041216428A0C8B2E
:103480000D8C0E8D0F7810790C1212FB406685148E
:1034900082851583A3A3750CE7750DFF750EFF7567
:1034A0000FFF780C121475780C1218928E828F838D
:1034B000A3A312151A1222077404121642E97034DB
:1034C000750C07750D00750E00750F007808790CE6
:1034D00012146278081218928E828F83A3A3121599
:1034E0001A1222077404121642E970047900800649
:1034F0007901800279027F0E02175574F01216834B
:10350000890874FF6508600302368990084DE0540D
:10351000077003023B657A00784C790888828983BA
:10352000A3A3A3A3A3E06404703FEA75F018A4F872
:10353000A9F0745228F582740839F583E0640170AB
:10354000377A00784C790888828983A3A3A3A3A340
:10355000E0640460030235DE88828983A3A3A3A309
:10356000A3A3E06401707780630AE82418F8E934C3
:1035700000F9EAC3940440A47A00784C7908888260
:103580008983A3A3A3A3A3E064017067EA75F0187D
:10359000A4F8A9F0745228F582740839F583E06420
:1035A0000170627A00784C790888828983A3A3A38A
:1035B000A3A3E06401600302366588828983A3A324
:1035C000A3A3A3A3E064016003023665EA75F018C3
:1035D000A4F8A9F0745128FA740839023B620AE889
:1035E0002418F8E93400F9EAC3940450030235477B
:1035F000023B650AE82418F8E93400F9EAC39404A8
:10360000500302357E7A00784C790888828983A33A
:10361000A3A3A3A3E064027061EA75F018A4F8A95B
:10362000F0745228F582740839F583E0640170590A
:103630007A00784C790888828983A3A3A3A3A3E0A6
:103640006402707A88828983A3A3A3A3A3A3E064FE
:1036500001706BEA75F018A4F8A9F0745128FA7497
:103660000839FB806F0AE82418F8E93400F9EAC346
:10367000940450030235A9023B650AE82418F8E9CE
:103680003400F9EAC3940440827A00784C790888BF
:10369000828983A3A3A3A3A3E06508703A888289E3
:1036A00083A3A3A3A3A3A3E06401702BEA75F0187E
:1036B000A4F8A9F0745128FE740839FF802C0AE898
:1036C0002418F8E93400F9EAC394045003023636AA
:1036D0007A007B00023B690AE82418F8E93400F913
:1036E000EAC3940440A97E007F007A00784C7908F0
:1036F00088828983A3A3A3A3A3E06508701BEA754E
:10370000F018A4F8A9F0745228F582740839F583EA
:10371000E0640170137A0180110AE82418F8E93492
:1037200000F9EAC3940440C87A00E5081460101454
:1037300070030238A024FE70030239B3023B657B9C
:1037400000784C790888828983A3A3A3A3A3E064AB
:10375000027052EB75F018A4F8A9F0745228F582A3
:10376000740839F583E06401704A7B00784C79086D
:1037700088828983A3A3A3A3A3E064026003023821
:103780000E88828983A3A3A3A3A3A3E06401707E10
:10379000EB75F018A4F8A9F0745128F50A740839EB
:1037A000F50B0238260BE82418F8E93400F9EBC3CE
:1037B000940440917B00784C790888828983A3A384
:1037C000A3A3A3E064046003023867EB75F018A4B8
:1037D000F8A9F0745228F582740839F583E0640181
:1037E00060030238797B00784C790888828983A34A
:1037F000A3A3A3A3E06404600302388488828983BE
:10380000A3A3A3A3A3A3E064017079023A070BE882
:103810002418F8E93400F9EBC3940450030237701C
:10382000750A00750B00EAA2E05035850A82850B07
:1038300083A3A3750CF6750DFF750EFF750FFF784A
:103840000C121475780C1218928E828F83A3A31217
:10385000151A1222077404121642E97003023B5F24
:10386000AA0AAB0B023B690BE82418F8E93400F90B
:10387000EBC3940450030237BAEAA2E0501BEEFAFD
:10388000EFFB80190BE82418F8E93400F9EBC39436
:103890000450030237EB023AAC7A007B00023B692A
:1038A0007B00784C790888828983A3A3A3A3A3E033
:1038B00064047040EB75F018A4F8A9F0745228F570
:1038C00082740839F583E0640170387B00784C79A4
:1038D0000888828983A3A3A3A3A3E06404600302EE
:1038E000396588828983A3A3A3A3A3A3E06401709D
:1038F00074023A070BE82418F8E93400F9EBC39492
:103900000440A37B00784C790888828983A3A3A311
:10391000A3A3E064017063EB75F018A4F8A9F07438
:103920005228F582740839F583E06401705B7B00EE
:10393000784C790888828983A3A3A3A3A3E06401B8
:10394000705288828983A3A3A3A3A3A3E064017018
:1039500043EB75F018A4F8A9F0745128F50A74081F
:1039600039F50B80440BE82418F8E93400F9EBC36F
:10397000940450030238D1023AAC0BE82418F8E959
:103980003400F9EBC394044080EAA2E0501EEEFA42
:10399000EFFB801C0BE82418F8E93400F9EBC39422
:1039A000044091750A00750B00023AB27A007B0060
:1039B000023B697B00784C790888828983A3A3A3A2
:1039C000A3A3E064017055EB75F018A4F8A9F07496
:1039D0005228F582740839F583E06401704D7B004C
:1039E000784C790888828983A3A3A3A3A3E0640108
:1039F0006003023A9A88828983A3A3A3A3A3A3E0C6
:103A000064016003023A9AEB75F018A4F8A9F07407
:103A10005128F50A740839F50B023AB20BE824185C
:103A2000F8E93400F9EBC39404408E7B00784C79BC
:103A30000888828983A3A3A3A3A3E064026003028E
:103A40003AF1EB75F018A4F8A9F0745228F58274D5
:103A50000839F583E064016003023B037B00784C86
:103A6000790888828983A3A3A3A3A3E064026003E7
:103A7000023B0A88828983A3A3A3A3A3A3E06401D2
:103A80006003023B0AEB75F018A4F8A9F074512802
:103A9000F50A740839F50B023B220BE82418F8E903
:103AA0003400F9EBC3940450030239E4750A00753D
:103AB0000B00EAA2E04003023860850A82850B838E
:103AC000A3A3750CF6750DFF750EFF750FFF780C2F
:103AD000121475780C1218928E828F83A3A312157C
:103AE0001A1222077404121642E960030238608039
:103AF0006E0BE82418F8E93400F9EBC39404500382
:103B0000023A31EAA2E0505D80550BE82418F8E94A
:103B10003400F9EBC394045003023A62750A00754D
:103B20000B00EAA2E04003023860850A82850B831D
:103B3000A3A3750CF6750DFF750EFF750FFF780CBE
:103B4000121475780C1218928E828F83A3A312150B
:103B50001A1222077404121642E96003023860EE5A
:103B6000FAEFFB80047A007B000233D374F612165E
:103B7000838909750800784C790888828983A3A312
:103B8000A3A3A3A3E06003023C48E50875F018A4D2
:103B9000F8A9F0745128FE740839FF8E828F83A330
:103BA0007401F08E828F83E509F0120BC98E828F2B
:103BB00083A3A31215268E828F83A3A3A3A3A3A3FB
:103BC000E4F0A3F0EE240EF582EF3400F58374FFE9
:103BD000F0A3F0A3F0A3F0EE2414F582EF3400F587
:103BE000837401F0EE2415F582EF3400F58374013F
:103BF000F0EE2416F582EF3400F583E4F0A3F090A4
:103C0000084DE04509F090084CE004F06401600CB8
:103C1000748065096006744065097019E50875F0DF
:103C200018A4F8A9F0745128F8740839F990084FCD
:103C3000E8F0A3E9F0E50875F018A4F8A9F07451CC
:103C400028FA740839FB80180508E82418F8E934C4
:103C500000F9E508C394045003023B7A7A007B0024
:103C600080007F02021755C082C0838A828B83E066
:103C7000F8A3E0F98A828B83E4F0A3F08882898339
:103C8000A3F088828983E0F4F890084DE058F09022
:103C9000084CE014F0700B90084FE4F0A3F090048F
:103CA00079F0801CC082C08390084CE0600A9008C4
:103CB0004FE0FAA3E0FB80047A007B008002E0F989
:103CC000D083D082020122C082C083E9FB7A0078CF
:103CD0004C790888828983A3A3A3A3A3E06B701601
:103CE000EA75F018A4F8A9F0745228F5827408391E
:103CF000F583E0F980110AE82418F8E93400F9EABC
:103D0000C3940440CE790080B7C082C08390084C31
:103D1000023CBE74F6121683EAFEEBFF9061D0E01F
:103D2000C0E0EE2400F582EF3401F583D0E0F0909E
:103D300061D7E0F89061D5E0C398547FC0E0EE24ED
:103D400001F582EF3401F583D0E0F09061D6E0C355
:103D500098547FC0E0EE2402F582EF3401F583D061
:103D6000E0F0701A9061C5E0A2E45012E0A2E750C2
:103D70000DEE2402F582EF3401F5837480F0120C0D
:103D80008FEE2401F582EF3401F583E07034EE24E8
:103D900002F582EF3401F583E070279061C5E0A25F
:103DA000E4501FE0A2E7501AEE2402F582EF34013E
:103DB000F5837480F0EE2401F582EF3401F583740D
:103DC00080F075E1957800EE2400F582EF3401F57E
:103DD00083E060279061D3E0C0E08808EE2508F515
:103DE00082EF3400F583D0E0F008EE2400F582EF96
:103DF0003401F583E0F9E8C39940D975E191023CBB
:103E00006274F6121683EAFEEBFF9061C8E0C0E030
:103E1000EE2403F582EF3401F583D0E0F09061CF1A
:103E2000E0F89061CDE0C398547FC0E0EE2404F543
:103E300082EF3401F583D0E0F09061CEE0C3985476
:103E40007FC0E0EE2405F582EF3401F583D0E0F089
:103E5000701A9061C5E0A2E05012E0A2E3500DEEAE
:103E60002405F582EF3401F5837480F0120C95EE91
:103E70002404F582EF3401F583E07034EE2405F577
:103E800082EF3401F583E070279061C5E0A2E05035
:103E90001FE0A2E3501AEE2405F582EF3401F5830A
:103EA0007480F0EE2404F582EF3401F5837480F021
:103EB000120C9B7A00EE2403F582EF3401F583E0C7
:103EC000602F9061CBE0C0E08A08EE2508F8EF345F
:103ED00000F9E82480F582E93400F583D0E0F00AA7
:103EE000EE2403F582EF3401F583E0F8EAC398404D
:103EF000D175E181023C6274F41216838908A80826
:103F0000E875F08AA4C8AAF02AF974B128FE7408EA
:103F100039FFEEFAEFFB120B81EEFAEFFB120B7B8F
:103F2000750A80750B00780A1218967C007D60EE89
:103F30002406FAEF3401FB120AC1740212164290F1
:103F40006195E0C0E0EE2486F582EF3401F583D080
:103F5000E0F0906196E0C0E0EE2487F582EF340156
:103F6000F583D0E0F0906197E0C0E0EE2488F58220
:103F7000EF3401F583D0E0F0906198E0C0E0EE24EA
:103F800089F582EF3401F583D0E0F07F0402175504
:103F900074F21216838908A808E875F08AA4C8AAE2
:103FA000F02AF974B128F8740839F99061C6E0FD77
:103FB000E054F0F075E1817C00E82403F582E934F7
:103FC00001F583E0602B8C0AE8250AFAE93400FB4E
:103FD000EA2480F582EB3400F583E09061CAF00CAE
:103FE000E82403F582E93401F583E0FAECC39A4052
:103FF000D5E82405F582E93401F583E06004906199
:10400000CEF0E82404F582E93401F583E060049001
:1040100061CDF0ED9061C6F0A808E875F08AA4C8FB
:10402000AAF02AF974B128F8740839F9E0FCE054D0
:104030000FF075E1917A00E82400F582E93401F58A
:1040400083E060238A0AE8250AF582E93400F583D3
:10405000E09061D2F00AE82400F582E93401F583AA
:10406000E0FBEAC39B40DDE82402F582E93401F578
:1040700083E060049061D6F0E82401F582E9340120
:10408000F583E060049061D5F0EC9061C6F085089E
:1040900082AE82EEF875F08AA4C8AAF02AF974B14B
:1040A00028F50A740839F50B750C80750D00780C2D
:1040B000121896E50A2406FCE50B3401FD7A007B14
:1040C00060120AC17402121642A80AA90BE82486DB
:1040D000F582E93401F583E0906195F0E82487F5F5
:1040E00082E93401F583E0906196F0E82488F58256
:1040F000E93401F583E0906197F0E82489F582E9DD
:104100003401F583E0906198F0EE75F005A4CEA837
:10411000F028FF74A92EF58274043FF583E0F8A31C
:10412000E0F5838882E06480704190126B7403F044
:10413000A3740BF0A374EBF0A3740AF0A37403F060
:10414000A3740BF0A37403F0A3740BF0A374EBF04F
:10415000A3740AF0A37403F0A3740BF0A37409F022
:10416000A3740BF0900479740880059004797407A7
:10417000F090127974EBF0A3740AF0A374EBF0A33F
:10418000740AF0A374EBF0A3740AF0A374EBF0A329
:10419000740AF0A374EBF0A3740AF0A374EBF0A319
:1041A000740AF07F06021755C082C0839061907434
:1041B00004F0A37448F0A37402F09061807440F09E
:1041C0009061BC7403F09061877419F0906265741B
:1041D0001BF0906249E0C3941390619C400A7409FB
:1041E000F090606674018007740DF0906066E4F0F2
:1041F00090619A7433F0A37455F09061A0743AF012
:104200009007F5E064017009C29190047D746780A5
:104210000590047D7461F09023C6E493906186F06C
:104220009023C0E493F46027E493540FF8906185E1
:10423000E0686012E5C654804449F5C6E59E547FA7
:10424000644970F8E8F053C680E59E547F70FA79AF
:1042500005120C8902461CC082C083E5A8F853A849
:104260007E906181E4F0A3F0A3F0C2BA539AFEC23B
:1042700089759B00C2C275E90075910075BF007514
:10428000A91175B905906181F0A374C0F0A3E4F0A1
:10429000D2BA439A0174805842A802461CF00246E2
:1042A0001CC082C08374F812162C90047BE0F8A323
:1042B000E0F9E84970030243CF90047BE05440608A
:1042C000237908851882851983AA82AB83120AA3F1
:1042D000851882851983AA82AB831207A390047B79
:1042E000E054BFF0E054806010790C7A1B7B081218
:1042F0000AA390047BE0547FF0E0A2E0503190618B
:104300009A7433F0A37455F09061A0743AF090075A
:10431000F5E064017009C29190047D746780059096
:10432000047D7461F01207A990047BE054FEF0E074
:104330005402603190619A743FF0A3745AF0906116
:10434000A0747FF09007F5E064017009D2919004A9
:104350007D7471800590047D746AF01207A9900441
:104360007BE054FDF0E0540460139023C4E4939088
:104370006186F01207AF90047BE054FBF0E0540834
:1043800060139023C5E493906186F01207AF900408
:104390007BE054F7F0E0541060139023C6E4939050
:1043A0006186F01207AF90047BE054EFF0E05420F8
:1043B000600A1207AF90047BE054DFF0A3E05401E1
:1043C000600D1209AD1207B590047CE054FEF07444
:1043D0000812164202461C74EC12168374F412166C
:1043E0002C851882851983AC82AD83758382758292
:1043F00006740412153F9023C493F46003024563CE
:10440000907808E0C39402500302454374041216E6
:1044100077AC82AD837583817582CC740812153FA9
:104420008518828519838582128583137404121678
:1044300077AC82AD83750EFF750FFF7FFF7E007531
:104440000C48750D78801574086E70030244D7749B
:10445000096E70030244D7740A6E607B850C8285F6
:104460000D8378081214FC8C828D83A909E50AC992
:10447000F888107418780812142AE5104508F8C353
:10448000E098A3E099850C82850D8378081214FCCE
:1044900040188C828D837418780812142AE5104510
:1044A00008F8E0C398F8A3E0801C74187808121488
:1044B0002AE5104508FAE9FB8C828D83E0F8A3E039
:1044C000F9EAC398F8EB99F9C3E8950EE9950F500E
:1044D00006880E890FEEFF0EE50C2404F50CE50DA1
:1044E0003400F50DEEC39413500302444774FF6586
:1044F0000E700474FF650F60238F08740278081231
:10450000161974482508F58274783509F5837808FA
:104510001214FC851282851383E508F0EC2402FC5A
:10452000ED3400FD851282851383A3858212858375
:1045300013740C121677E5826C7003E5836D6003CB
:10454000024435750801750900780812189674023E
:10455000121677AC82AD837AF17B081210F77402E1
:10456000121642740C1216427F0C021755C082C0FC
:10457000839061AE7468F0A3746AF090624574FB36
:10458000F0A304F053F4FD43FE029007F57401F02C
:104590009061A0E0643A90619A70237433F0A37440
:1045A00055F09061A0743AF0740164017009C291F1
:1045B00090047D7467802890047D74618021743F2D
:1045C000F0A3745AF09061A0747FF07401640170DC
:1045D00009D29190047D7471800590047D746A0203
:1045E000429DC082C0839007D3E0640170119007A0
:1045F000D9E064016019E07006A3E06401601090E6
:1046000007EAE06401700C9007F0E064017004793F
:104610000C800279008005E0F91222B5D083D082A7
:10462000020122C082C0839007DD7425F09007DB71
:104630007401F0A3E4F07A01FB120C059007C9E0C5
:10464000F8A3E0C82416F582E83400F58374D1F0AD
:10465000A37409F09007DAE0640170169007D9E0BE
:1046600070107901120C65120C35120C5F79001272
:104670000C7102461CC082C08374FA12162C90077B
:10468000D2E0640170081209B99007D2E4F075E134
:10469000F19007C9E0F8A3E0C82415F582E83400DA
:1046A000F5837401F09007D4E0640170769081FC8A
:1046B000C082851882851983AC82AD83758381D0D1
:1046C00082740612153F75D90D9007CBE0C43333C1
:1046D00054C04403F5D978C9790788828983A3A394
:1046E000A3E0F5D988828983A3A882A983E864CF4F
:1046F0007003E9640770E3851882851983A882A98D
:104700008388828983E0F5D9A3A882A983740612DD
:104710001677E582687003E5836970E575E1957940
:104720000180027900120C0B90126B7421F0A374BB
:104730000BF0A37427F0A3740BF0A37421F0A374FF
:104740000BF0A37421F0A3740BF0A374EBF0A3742B
:104750000AF0A374EBF0A3740AF0A3742DF0A37411
:104760000BF090127974EBF0A3740AF0A374EBF0E1
:10477000A3740AF0A374EBF0A3740AF0A374EBF033
:10478000A3740AF0A374EBF0A3740AF0A374EBF023
:10479000A3740AF09007CBE0F97ACC7B07120BE701
:1047A0009007DDE0F91222B57901120C117AD67B5F
:1047B000BE7C897D8E120C297A557B557C557D00F7
:1047C000120BF37900120C7D9007C9E0F8A3E0C842
:1047D0002414F582E83400F5837416F0900479749B
:1047E00005F0040243D174F71216838908A808E87B
:1047F00075F005A4C8AAF02AF974A928FE74043932
:10480000FF9007E2E0F97AE37B07120BE79007F0ED
:10481000E0701A7900120C479007B8E07004790034
:10482000800279017AB97B07120BED8005790112BC
:104830000C4775E1F175D9239007E2E0C433335496
:10484000C04405F5D978E0790788828983A3A3A3BA
:10485000E0F5D988828983A3A882A983E864E670F9
:1048600003E9640770E375D90075D90075D900753F
:10487000D90075D90075D900EEF8EFF9E82404FAEB
:10488000E93400FBE82422F582E93400F583E0F501
:10489000D988828983A3A882A983EA687002EB6918
:1048A00070E2EEF8EFF9E824031AE93400FBE8249B
:1048B00026F582E93400F583E0F5D988828983A35F
:1048C000A882A983EA687002EB6970E2EE242BF5F6
:1048D00082EF3400F583E0F5D9EE242CF582EF3435
:1048E00000F583E0F5D9EE242DF582EF3400F58351
:1048F000E0F5D9EE242EF582EF3400F583E0F5D90A
:10490000EE242FF582EF3400F583E0F5D9EE243064
:10491000F582EF3400F583E0F5D9EE2431F582EF2E
:104920003400F583E0F5D9EE2432F582EF3400F55A
:1049300083E0F5D9EE2433F582EF3400F583E0F51A
:10494000D9EEF8EFF9E82405FAE93400FBE8245D34
:10495000F582E93400F583E0F5D988828983A3A83C
:1049600082A983EA687002EB6970E2EE2437F5826F
:10497000EF3400F583E0541FF8EE242AF582EF347B
:1049800000F583E0C43354E048F5D975E195901201
:104990006B74F1F0A3740AF0A374F7F0A3740AF037
:1049A000A374EBF0A3740AF0A374EBF0A3740AF001
:1049B000A374EBF0A3740AF0A374EBF0A3740AF0F1
:1049C000A374FDF0A3740AF090127974EBF0A37451
:1049D0000AF0A374EBF0A3740AF0A374EBF0A374D1
:1049E0000AF0A374EBF0A3740AF0A374EBF0A374C1
:1049F0000AF0A374EBF0A3740AF09007EFE0F91249
:104A000022B57AD67BBE7C897D8E120C297A557BA5
:104A1000557C557D00120BF390600DE4F079011286
:104A20000C7D9004797406F0024FDF74E81216834F
:104A30009007E0E0F8A3E0F5838882A3A3780C1246
:104A400014FC9007F1E0FAF875F005A4C8ACF02C5E
:104A5000F974D728F582740439F583E0FEA3E0FFEA
:104A6000EEC333FEEF33FF8E14F515751600751780
:104A700000850C08850D09850E0A850F0B7510043D
:104A80007511007512007513007808791012146200
:104A90007808121892850C08850D09850E0A850F75
:104AA0000B78087914121462780C79141213BAE492
:104AB000F516F5177808791412149B8A0C750D00F9
:104AC0007403780C121619E50D3395E0F50EF50F09
:104AD0007808790C121462750CFF750DFF750EFFC6
:104AE0007808790C1214C3AA08AB09AC0A7D00122D
:104AF000226074041216428A088B09A808A909C307
:104B0000EE98EF995006E82EF8E93FF9E890600E2C
:104B1000F0E9A3F0EEA3F0EFA3F090600D74C1F004
:104B20007F10021755C082C0839007C9E0F8A3E048
:104B3000C82406F582E83400F583E4F0A3F090077A
:104B4000DD024617C082C0839007E0E0F8A3E0C80A
:104B50002406F582E83400F583E4F0A3F09007EF33
:104B600002461702012274F61216839061D0E0F813
:104B70007480C398FCEA2482F582EB3400F583E06C
:104B80006004780480027800E8240EF8ECC39850A2
:104B900003024C927C0C9007FBE4F0EA2476F58249
:104BA000EB3400F583E09007FCF0EA2477F8EB346F
:104BB00000F988828983E09007FDF088828983A3C9
:104BC000E09007FEF0EA2479F8EB3400F988828956
:104BD00083E09007FFF088828983A3E0900800F0CB
:104BE000EA247BF8EB3400F988828983E09008019D
:104BF000F088828983A3E0900802F0EA247DF8EB34
:104C00003400F988828983E0900803F088828983E0
:104C1000A3E0900804F0EA2474F8EB3400F98A82E7
:104C20008B83A3A3A3A3A3E0FEA3E0FF88828983D1
:104C3000E02EF0A3E03FF088828983E0900805F041
:104C400088828983A3E0900806F0EA2482F582EB4B
:104C50003400F583E060177508FB750907780812C2
:104C600018967903120ADF74021216427C1074013E
:104C70002CF5D975D9037582FB758307ECFEE0F539
:104C8000D9A31EEE70F875E1957904120C2F790105
:104C90008002790002518F74F61216839061D0E081
:104CA000F87480C398FCEA2482F582EB3400F58323
:104CB000E06004780480027800E8240AF8ECC398E5
:104CC0005003024D8A7508089007FB7401F07CBF01
:104CD0007D0778FC79077E058C828D83E088828948
:104CE00083F08C828D83A3AC82AD8388828983A379
:104CF000A882A9831EEE70E0EA2480FCEB3400FD5C
:104D00008A828B83A3A3A3A3A3E0FEA3E0FF8C82EC
:104D10008D83E02EF0A3E03FF08C828D83E08882CB
:104D20008983F08C828D83A3AC82AD838882898352
:104D3000A308A9838C828D83E088828983F0EA248A
:104D400082F582EB3400F583E0601A7508FB750983
:104D50000778081218967C087903120ADF74021289
:104D6000164275080C74012508F5D975D9037582AA
:104D7000FB758307AE08E0F5D9A31EEE70F875E168
:104D8000957904120C2F79018002790002518F74F9
:104D9000F7121683EAFEEBFF9061D0E06003024E4B
:104DA0007675D91875D90375D903EEF8EFF9E824AB
:104DB00008FAE93400FBE8249BF582E93400F58326
:104DC000E0F5D988828983A3A882A983EA68700262
:104DD000EB6970E2EE24A3F582EF3400F583E0F591
:104DE000D9EE24A4F582EF3400F583E0F5D9EE2462
:104DF00093F582EF3400F583E5822408F8E58334E7
:104E000000F9E0F5D9A3E865827003E9658370F2E3
:104E1000EE2487F582EF3400F583E5822404F8E57B
:104E2000833400F9E0F5D9A3E865827003E965836E
:104E300070F275E1957908EE2493FAEF3400FB12D5
:104E40000A977904EE2487FAEF3400FB120A977967
:104E500004120C2FEE246FF582EF3400F583E0F896
:104E6000A3E0F9EE2471F582EF3400F583E8F0A3B6
:104E7000E9F0790180027900024FDF74F61216839F
:104E8000EAFEEBFF9007FB7406F07508FB75090757
:104E900078081218967C017903120ADF7402121640
:104EA0004275D90675D9037582FB758307E0F5D97C
:104EB000A3E58264007004E583640870F075E195F1
:104EC000900479E06408701EEE246FF582EF3400E0
:104ED000F583E0F8A3E0F9EE2471F582EF3400F5F4
:104EE00083E8F0A3E9F0790102518F74F61216837A
:104EF000EAFEEBFF9061D0E0705E9007FB740AF071
:104F00007508FB75090778081218967C0179031259
:104F10000ADF740212164275D90675D9037582FB31
:104F2000758307E0F5D9A3E58264007004E5836426
:104F30000870F075E195EE246FF582EF3400F5838B
:104F4000E0F8A3E0F9EE2471F582EF3400F583E890
:104F5000F0A3E9F079018002790002518F74F61212
:104F60001683EAFEEBFF9061D0E07066780190074F
:104F7000FB740BF0900479E0640770197508FB75F9
:104F8000090778081218967C017903120ADF740267
:104F90001216427805740128F5D975D9037582FB7C
:104FA000758307E8FAE0F5D9A31AEA70F875E19578
:104FB000EE246FF582EF3400F583E0F8A3E0F9EE1C
:104FC0002471F582EF3400F583E8F0A3E9F079016C
:104FD0008002790002518FF0EEA2E092AF79007F5B
:104FE0000102175574F6121683EAFEEBFF9061D0AA
:104FF000E0F87480C398FAEE2482F582EF3400F56D
:1050000083E06004780480027800E8240BF8EAC3A7
:105010009850030250BA7D099007FB7408F0EE2403
:10502000E4F8EF3400F97AFC7B077C0888828983F6
:10503000E08A828B83F088828983A3A882A9838AED
:10504000828B83A3AA82AB831CEC70E0EE2482F5F2
:1050500082EF3400F583E0601D7508FB7509077861
:10506000081218967C097903EEFAEFFB120ADF7436
:10507000021216427D0D74012DF5D975D903758282
:10508000FB7583078D08E0F5D9A31508E50870F6D0
:1050900075E1957904120C2FEE246FF582EF340040
:1050A000F583E0F8A3E0F9EE2471F582EF3400F522
:1050B00083E8F0A3E9F079018002790002518F744E
:1050C000F6121683EAFEEBFF9061D0E0F87480C31D
:1050D00098FAEE2482F582EF3400F583E0600478DC
:1050E0000480027800E82408F8EAC39850030251CB
:1050F0008D78069007FB740CF0900496E09007FC06
:10510000F0900497E09007FDF0900498E09007FE7F
:10511000F0900499E09007FFF090049AE090080066
:10512000F0EE2482F582EF3400F583E0601B750811
:10513000FB75090778081218967C067903EEFA12B7
:105140000ADF7402121642780A740128F5D975D95B
:10515000037582FB7583078808E0F5D9A31508E578
:105160000870F675E1957904120C2FEE246FF58224
:10517000EF3400F583E0F8A3E0F9EE2471F582EF57
:105180003400F583E8F0A3E9F07901800279007F2B
:105190000202175574F6121683EAFEEBFF9061D0F7
:1051A000E0F87480C398FAEE2482F582EF3400F5BB
:1051B00083E06004780480027800E82404F8EAC3FD
:1051C00098500302526E78029007FBE8F0EE24F646
:1051D000F582EF3400F583E09007FCF0EE2482F5D1
:1051E00082EF3400F583E0601B7508FB75090778D2
:1051F000081218967C027903EEFA120ADF74021282
:1052000016427806740128F5D975D9037582FB75A5
:1052100083078808E0F5D9A31508E50870F675E15D
:1052200095EE2473F582EF3400F583E4F0EE247FED
:10523000F582EF3400F583E4F0EE241DF582EF34BF
:1052400000F583E4F0A3F07904120C2FEE240DF5A1
:1052500082EF3400F583E0F8A3E0F9EE2471F582E3
:10526000EF3400F583E8F0A3E9F0790180027900DA
:1052700002518F74F61216839061D0E0F87480C3E7
:1052800098FCEA2482F582EB3400F583E060047830
:105290000480027800E82404F8ECC398405B7902AB
:1052A0009007FB7407F0EA24F7F582EB3400F583EE
:1052B000E09007FCF0EA2482F582EB3400F583E00D
:1052C00060187508FB75090778081218967C0209A2
:1052D000120ADF74021216427906740129F5D97593
:1052E000D9037582FB758307E9F8E0F5D9A318E8BF
:1052F00070F875E19579018002790002518F74F59B
:10530000121683E9FCA2AFE433F50AC2AF7D008038
:10531000010DEA246EF582EB3400F583E0F8EDC36D
:1053200098501A8D08EA2508F8EB3400F9E8246A49
:10533000F582E93400F583E06C70D68024EA246EAF
:10534000F8EB3400F9E0FEEA2EFAEB3400FBEA2435
:105350006AF582EB3400F583ECF088828983E004FF
:10536000F0E50AA2E092AF7F0302175574F6121619
:1053700083A2AFE433FDC2AFEA246EF582EB3400C2
:10538000F583E014F07C0060368C08EA2508F8EB21
:105390003400F9E8246BF582E93400F583E0C0E0DD
:1053A000E8246AF582E93400F583D0E0F00CEA24C1
:1053B0006EF582EB3400F583E0F8ECC39840CAEA5E
:1053C000246DF582EB3400F58374FFF0EA2469F56F
:1053D00082EB3400F583E4F0EDA2E092AF02518F4E
:1053E000C082C083E5A8F8C2AFEA246AF582EB3434
:1053F00000F583E9F0EA2469F582EB3400F583E4F3
:10540000F0E8A2E7A2E792AF02461C74F3121683FB
:10541000EAFEEBFFECFAEDFB8A828B83A3A3A3A346
:10542000E0541FF0EE2436F582EF3400F583E4F00B
:10543000F50AEEFCEFFD8A828B83E0C0E0EC245D90
:10544000F582ED3400F583D0E0F0750B00E50A330A
:10545000333354F8F50C8A828B83E0F50875090024
:10546000E50B78081215FAE508A2E0502FEE243675
:10547000F8EF3400F988828983E0F508EE2508F515
:1054800008EF3400F509E5082438F582E509340011
:10549000F583E50CF088828983E004F0050B050CA8
:1054A000E50BC3940840AF050A8A828B83A3AA82C6
:1054B000AB838C828D83A3AC82AD83E50AC3940554
:1054C00050030254367F0502175574F71216839065
:1054D00004A5E0640370030257B07C0078A579044A
:1054E00088828983A3A3A3A3A3A3E0600302579E9A
:1054F000ECF875F005A4C8AAF02AF974A928FA7482
:105500000439FB8A828B83A3A37401F08A828B8384
:10551000A3A3A3E4F0EC8A828B83A3A3A3A3F0EA62
:105520002462F582EB3400F5837401F0EA2467F518
:1055300082EB3400F5837401F08A828B83A3A3A3EA
:10554000A3A3E4F0A3F08A828B83A3A3A3A3A3A3C2
:10555000A3F0A3F0EA240FF582EB3400F583740185
:10556000F0EA2435F582EB3400F583E4F0EA241800
:10557000F582EB3400F583E4F0A3F0A3F0A3F0EAA6
:10558000241CF582EB3400F583E4F0EA241DF58257
:10559000EB3400F583E4F0A3F0EA247FF582EB34EA
:1055A00000F583E4F0EA2473F582EB3400F583E43C
:1055B000F0EA2468F582EB3400F5837480F0EA2485
:1055C00069F582EB3400F583E4F0EA246EF582EBB2
:1055D0003400F583E4F0EA24ECF582EB3400F58343
:1055E000E4F0EA24EDF582EB3400F583E4F0EA24FC
:1055F000EEF582EB3400F583E4F0EA24EFF582EB7C
:105600003400F583E4F0EA24F0F582EB3400F5830E
:10561000E4F0A3F0EA24F2F582EB3400F583E4F041
:10562000A3F0EA24F5F582EB3400F583E4F0EA24F4
:1056300082F582EB3400F583E4F0EA24D2F582EBC4
:105640003400F583E4F0EA24D3F582EB3400F583EB
:10565000E4F0EA24D4F582EB3400F583E4F0A3F01F
:10566000A3F0A3F0EA24D8F582EB3400F583E4F04C
:10567000A3F0A3F0A3F0EA24DEF582EB3400F58377
:10568000E4F0EA24E0F582EB3400F583E4F0EA2468
:10569000DCF582EB3400F583E4F0EA24E1F582EBFB
:1056A0003400F583E4F0EA24E2F582EB3400F5837C
:1056B000E4F0EA24F8F582EB3400F583E4F0A3F09B
:1056C000EA24FAF582EB3400F583E4F0A3F0EA244F
:1056D000FCF582EB3400F583E4F0A3F0EA24FEF558
:1056E00082EB3400F583E4F0A3F0EAF8EBF9E82468
:1056F00004FCE93400FDE8246AF582E93400F5830E
:1057000074FFF088828983A3A882A983EC68700261
:10571000ED6970E2EAF8EBF97CBF7D078C828D833E
:10572000E0C0E0E8245DF582E93400F583D0E0F0E4
:105730008C828D83A3AC82AD8388828983A3A88267
:10574000A983EC64C47003ED640770D0EAF8EBF948
:105750007C8C7D048C828D83A3E0C0E0E824E4F59A
:1057600082E93400F583D0E0F08C828D83A3AC8293
:10577000AD8388828983A3A882A983EC6494700393
:10578000ED640470CF9004A5E004F0640170258AF4
:10579000828B83A3A3A3A3E09004A7F080160CE858
:1057A0002405F8E93401F9ECC3940350030254E0F2
:1057B0007A007B00024FDFC082C0838A828B83A382
:1057C000A3A3E0600F8A828B83A3A3A3E4F09004D9
:1057D000A6E014F09004A5E014F070069004A774FD
:1057E000FFF08A828B83A3A3E4F09007C4E0700DDE
:1057F0009004A6E0640170057900120BF902461CC2
:10580000C082C08378A5790488828983A3A3A3A3D7
:10581000A3A3A3E4F088828983A3A3A3A3A3A3F0F3
:10582000E82405F8E93401F9E864B47003E9640791
:1058300070D69004A5E4F0A3F0A374FFF075E1F135
:1058400002461C74F5121683750800750900750A66
:10585000007EA97F048E828F83A3A3A3E0603DE531
:10586000084509602F850882850983E0F8A3E0F5E3
:10587000838882A3A31218A98E828F83E0F8A3E005
:10588000F5838882A3A312151A1222077404121634
:1058900042E97008EEF8EFF988088909050AEE2454
:1058A00005FEEF3401FFE50AC3940340A885088292
:1058B000850983A3A3A3A3E0F902536774F7121623
:1058C0008378FF79FF7E007CA97D048C828D83A381
:1058D000A3A3E0606274FF68700374FF697011EC49
:1058E0002473F582ED3400F583E06401703A802181
:1058F000EC2473F582ED3400F583E064017017EC5D
:105900002479F582ED3400F583C3E098A3E0995043
:1059100026EC24798015EC242EF582ED3400F583F5
:10592000C3E098A3E099500FEC242EF582ED3400EB
:10593000F583E0F8A3E0F90EEC2405FCED3401FD5D
:10594000EEC394034085C3EA98EB994004E8FAE972
:10595000FB024FDF74F6121683EAFEEBFFEE2463C0
:10596000F582EF3400F583E0F8A3E0F9E84970032D
:105970000259F9EE2463F8EF3400F97A007B00A2B3
:10598000AFE433F508C2AF88828983E0FCA3E0FD71
:10599000EC4D603A88828983E0FAA3E0FB8A828B2F
:1059A00083E0FCA3E0FD88828983ECF0A3EDF08A1C
:1059B000828B83E4F0A3F088828983E0FCA3E0FD7E
:1059C000EC4D700A88828983A3A3E4F0A3F0E50874
:1059D000A2E092AF1211E19007C5E004F09007C673
:1059E000E004F0EE2463F582EF3400F583E0F8A3E1
:1059F000E0F9E84960030259738E828F83A3A3A361
:105A0000E0600F8E828F83A3A3A3E4F09004A6E04E
:105A100014F09004A5E014F070069004A774FFF051
:105A20008E828F83A3A3E4F09007C4E0700D9004EE
:105A3000A6E0640170057900120BF9EEFAEFFB1293
:105A40000B6302518F74F7121683EAFEEBFF8E820E
:105A50008F83A3A3A3A3E0FA7B001207FDEEFAEF66
:105A6000FB120A55120B45024FDFC082C0837A0039
:105A700078A9790488828983A3A3A3E0601EE8241F
:105A80006EF582E93400F583E06011E8246AF5825E
:105A9000E93400F583E07004790180110AE82405F7
:105AA000F8E93401F9EAC3940340C9790002461CBD
:105AB000C082C083788C790488828983A3E4F088CB
:105AC000828983A3A882A983E864947003E96404AB
:105AD00070E690048D740102429D74F7121683746F
:105AE000FC12162C851882851983E4F0A3F0A3F02C
:105AF000A3F0120A9DE9851882851983F0120A9D88
:105B00007401121677E9F0120A9D7402121677E9F1
:105B1000F085188285198312151A74041216420230
:105B20004FDF74F6121683EAFEEBFFEC2403F8ED68
